{"abi":[{"type":"function","name":"NAME","inputs":[],"outputs":[{"name":"","type":"string","internalType":"string"}],"stateMutability":"view"},{"type":"function","name":"addAllowedRecipients","inputs":[{"name":"recipients","type":"address[]","internalType":"address[]"}],"outputs":[],"stateMutability":"nonpayable"},{"type":"function","name":"getAllowedRecipients","inputs":[{"name":"account","type":"address","internalType":"address"}],"outputs":[{"name":"","type":"address[]","internalType":"address[]"}],"stateMutability":"view"},{"type":"function","name":"onInstall","inputs":[{"name":"data","type":"bytes","internalType":"bytes"}],"outputs":[],"stateMutability":"nonpayable"},{"type":"function","name":"onUninstall","inputs":[{"name":"data","type":"bytes","internalType":"bytes"}],"outputs":[],"stateMutability":"nonpayable"},{"type":"function","name":"pluginManifest","inputs":[],"outputs":[{"name":"","type":"tuple","internalType":"struct PluginManifest","components":[{"name":"interfaceIds","type":"bytes4[]","internalType":"bytes4[]"},{"name":"dependencyInterfaceIds","type":"bytes4[]","internalType":"bytes4[]"},{"name":"executionFunctions","type":"bytes4[]","internalType":"bytes4[]"},{"name":"permittedExecutionSelectors","type":"bytes4[]","internalType":"bytes4[]"},{"name":"permitAnyExternalAddress","type":"bool","internalType":"bool"},{"name":"canSpendNativeToken","type":"bool","internalType":"bool"},{"name":"permittedExternalCalls","type":"tuple[]","internalType":"struct ManifestExternalCallPermission[]","components":[{"name":"externalAddress","type":"address","internalType":"address"},{"name":"permitAnySelector","type":"bool","internalType":"bool"},{"name":"selectors","type":"bytes4[]","internalType":"bytes4[]"}]},{"name":"userOpValidationFunctions","type":"tuple[]","internalType":"struct ManifestAssociatedFunction[]","components":[{"name":"executionSelector","type":"bytes4","internalType":"bytes4"},{"name":"associatedFunction","type":"tuple","internalType":"struct ManifestFunction","components":[{"name":"functionType","type":"uint8","internalType":"enum ManifestAssociatedFunctionType"},{"name":"functionId","type":"uint8","internalType":"uint8"},{"name":"dependencyIndex","type":"uint256","internalType":"uint256"}]}]},{"name":"runtimeValidationFunctions","type":"tuple[]","internalType":"struct ManifestAssociatedFunction[]","components":[{"name":"executionSelector","type":"bytes4","internalType":"bytes4"},{"name":"associatedFunction","type":"tuple","internalType":"struct ManifestFunction","components":[{"name":"functionType","type":"uint8","internalType":"enum ManifestAssociatedFunctionType"},{"name":"functionId","type":"uint8","internalType":"uint8"},{"name":"dependencyIndex","type":"uint256","internalType":"uint256"}]}]},{"name":"preUserOpValidationHooks","type":"tuple[]","internalType":"struct ManifestAssociatedFunction[]","components":[{"name":"executionSelector","type":"bytes4","internalType":"bytes4"},{"name":"associatedFunction","type":"tuple","internalType":"struct ManifestFunction","components":[{"name":"functionType","type":"uint8","internalType":"enum ManifestAssociatedFunctionType"},{"name":"functionId","type":"uint8","internalType":"uint8"},{"name":"dependencyIndex","type":"uint256","internalType":"uint256"}]}]},{"name":"preRuntimeValidationHooks","type":"tuple[]","internalType":"struct ManifestAssociatedFunction[]","components":[{"name":"executionSelector","type":"bytes4","internalType":"bytes4"},{"name":"associatedFunction","type":"tuple","internalType":"struct ManifestFunction","components":[{"name":"functionType","type":"uint8","internalType":"enum ManifestAssociatedFunctionType"},{"name":"functionId","type":"uint8","internalType":"uint8"},{"name":"dependencyIndex","type":"uint256","internalType":"uint256"}]}]},{"name":"executionHooks","type":"tuple[]","internalType":"struct ManifestExecutionHook[]","components":[{"name":"selector","type":"bytes4","internalType":"bytes4"},{"name":"preExecHook","type":"tuple","internalType":"struct ManifestFunction","components":[{"name":"functionType","type":"uint8","internalType":"enum ManifestAssociatedFunctionType"},{"name":"functionId","type":"uint8","internalType":"uint8"},{"name":"dependencyIndex","type":"uint256","internalType":"uint256"}]},{"name":"postExecHook","type":"tuple","internalType":"struct ManifestFunction","components":[{"name":"functionType","type":"uint8","internalType":"enum ManifestAssociatedFunctionType"},{"name":"functionId","type":"uint8","internalType":"uint8"},{"name":"dependencyIndex","type":"uint256","internalType":"uint256"}]}]}]}],"stateMutability":"pure"},{"type":"function","name":"pluginMetadata","inputs":[],"outputs":[{"name":"","type":"tuple","internalType":"struct PluginMetadata","components":[{"name":"name","type":"string","internalType":"string"},{"name":"version","type":"string","internalType":"string"},{"name":"author","type":"string","internalType":"string"},{"name":"permissionDescriptors","type":"tuple[]","internalType":"struct SelectorPermission[]","components":[{"name":"functionSelector","type":"bytes4","internalType":"bytes4"},{"name":"permissionDescription","type":"string","internalType":"string"}]}]}],"stateMutability":"pure"},{"type":"function","name":"postExecutionHook","inputs":[{"name":"functionId","type":"uint8","internalType":"uint8"},{"name":"preExecHookData","type":"bytes","internalType":"bytes"}],"outputs":[],"stateMutability":"nonpayable"},{"type":"function","name":"preExecutionHook","inputs":[{"name":"functionId","type":"uint8","internalType":"uint8"},{"name":"sender","type":"address","internalType":"address"},{"name":"value","type":"uint256","internalType":"uint256"},{"name":"data","type":"bytes","internalType":"bytes"}],"outputs":[{"name":"context","type":"bytes","internalType":"bytes"}],"stateMutability":"nonpayable"},{"type":"function","name":"preRuntimeValidationHook","inputs":[{"name":"functionId","type":"uint8","internalType":"uint8"},{"name":"","type":"address","internalType":"address"},{"name":"value","type":"uint256","internalType":"uint256"},{"name":"data","type":"bytes","internalType":"bytes"}],"outputs":[],"stateMutability":"view"},{"type":"function","name":"preUserOpValidationHook","inputs":[{"name":"functionId","type":"uint8","internalType":"uint8"},{"name":"userOp","type":"tuple","internalType":"struct PackedUserOperation","components":[{"name":"sender","type":"address","internalType":"address"},{"name":"nonce","type":"uint256","internalType":"uint256"},{"name":"initCode","type":"bytes","internalType":"bytes"},{"name":"callData","type":"bytes","internalType":"bytes"},{"name":"accountGasLimits","type":"bytes32","internalType":"bytes32"},{"name":"preVerificationGas","type":"uint256","internalType":"uint256"},{"name":"gasFees","type":"bytes32","internalType":"bytes32"},{"name":"paymasterAndData","type":"bytes","internalType":"bytes"},{"name":"signature","type":"bytes","internalType":"bytes"}]},{"name":"userOpHash","type":"bytes32","internalType":"bytes32"}],"outputs":[{"name":"validationData","type":"uint256","internalType":"uint256"}],"stateMutability":"view"},{"type":"function","name":"removeAllowedRecipients","inputs":[{"name":"recipients","type":"address[]","internalType":"address[]"}],"outputs":[],"stateMutability":"nonpayable"},{"type":"function","name":"runtimeValidationFunction","inputs":[{"name":"functionId","type":"uint8","internalType":"uint8"},{"name":"sender","type":"address","internalType":"address"},{"name":"value","type":"uint256","internalType":"uint256"},{"name":"data","type":"bytes","internalType":"bytes"}],"outputs":[],"stateMutability":"nonpayable"},{"type":"function","name":"supportsInterface","inputs":[{"name":"interfaceId","type":"bytes4","internalType":"bytes4"}],"outputs":[{"name":"","type":"bool","internalType":"bool"}],"stateMutability":"view"},{"type":"function","name":"userOpValidationFunction","inputs":[{"name":"functionId","type":"uint8","internalType":"uint8"},{"name":"userOp","type":"tuple","internalType":"struct PackedUserOperation","components":[{"name":"sender","type":"address","internalType":"address"},{"name":"nonce","type":"uint256","internalType":"uint256"},{"name":"initCode","type":"bytes","internalType":"bytes"},{"name":"callData","type":"bytes","internalType":"bytes"},{"name":"accountGasLimits","type":"bytes32","internalType":"bytes32"},{"name":"preVerificationGas","type":"uint256","internalType":"uint256"},{"name":"gasFees","type":"bytes32","internalType":"bytes32"},{"name":"paymasterAndData","type":"bytes","internalType":"bytes"},{"name":"signature","type":"bytes","internalType":"bytes"}]},{"name":"userOpHash","type":"bytes32","internalType":"bytes32"}],"outputs":[{"name":"validationData","type":"uint256","internalType":"uint256"}],"stateMutability":"nonpayable"},{"type":"event","name":"AllowedAddressesAdded","inputs":[{"name":"account","type":"address","indexed":true,"internalType":"address"},{"name":"recipients","type":"address[]","indexed":false,"internalType":"address[]"}],"anonymous":false},{"type":"event","name":"AllowedAddressesNotRemoved","inputs":[{"name":"account","type":"address","indexed":true,"internalType":"address"}],"anonymous":false},{"type":"event","name":"AllowedAddressesRemoved","inputs":[{"name":"account","type":"address","indexed":true,"internalType":"address"},{"name":"recipients","type":"address[]","indexed":false,"internalType":"address[]"}],"anonymous":false},{"type":"error","name":"AlreadyInitialized","inputs":[]},{"type":"error","name":"CallDataIsNotEmpty","inputs":[{"name":"account","type":"address","internalType":"address"},{"name":"target","type":"address","internalType":"address"},{"name":"value","type":"uint256","internalType":"uint256"},{"name":"data","type":"bytes","internalType":"bytes"}]},{"type":"error","name":"FailToAddRecipient","inputs":[{"name":"account","type":"address","internalType":"address"},{"name":"recipient","type":"address","internalType":"address"}]},{"type":"error","name":"FailToRemoveRecipient","inputs":[{"name":"account","type":"address","internalType":"address"},{"name":"recipient","type":"address","internalType":"address"}]},{"type":"error","name":"InvalidTargetCodeLength","inputs":[{"name":"account","type":"address","internalType":"address"},{"name":"target","type":"address","internalType":"address"},{"name":"value","type":"uint256","internalType":"uint256"},{"name":"data","type":"bytes","internalType":"bytes"}]},{"type":"error","name":"NotImplemented","inputs":[{"name":"selector","type":"bytes4","internalType":"bytes4"},{"name":"functionId","type":"uint8","internalType":"uint8"}]},{"type":"error","name":"NotInitialized","inputs":[]},{"type":"error","name":"UnauthorizedRecipient","inputs":[{"name":"account","type":"address","internalType":"address"},{"name":"recipient","type":"address","internalType":"address"}]},{"type":"error","name":"Unsupported","inputs":[]}],"bytecode":{"object":"0x6080806040523461001657611c56908161001c8239f35b600080fdfe6080806040526004908136101561001557600080fd5b60003560e01c90816301ffc9a714610d0b575080630ae779e114610c425780630c7ecd8414610c255780631128186d14610be8578063118a53891461095f57806315b76b841461093d57806346d60eb2146106c957806347b19eee146108e75780636d61fe70146108425780638a91b0e31461073a578063a3f4df7e146106e0578063bfd151c1146106c9578063c4db8dd9146106b4578063c7763130146101115763cf01c349146100c657600080fd5b3461010c57602036600319011261010c57356001600160a01b038116810361010c576100fc6100f761010892611940565b611a02565b60405191829182611043565b0390f35b600080fd5b3461010c57600036600319011261010c5761012a611520565b50610133611520565b61013b610f31565b60038152606036602083013780604083015261015e6323d8cf7760e11b91611249565b52630ae779e160e01b6101746040830151611256565b5263cf01c34960e01b61018a6040830151611266565b5261019361158c565b6101208201526102bd6101a4610f12565b6001815260006020820152600060408201526101e86101c1610edd565b635b0e93fb60e11b928382526020820152610120850151906101e282611249565b52611249565b506102826101f4610f12565b91600183526002602084015260006040840152610239610212610edd565b631a7e6adf60e11b9485825260208201526101208701519061023382611256565b52611256565b5061024261158c565b610140860152610250610f12565b60018152600160208201526000604082015261026a610edd565b9182526020820152610140850151906101e282611249565b5061028b610f12565b6001815260036020820152600060408201526102a5610edd565b91825260208201526101408301519061023382611256565b506102ec6102c9610f12565b6002815260403660208301376020830181905263043140ed60e01b918291611249565b526102fa6020830151611256565b52610378610306610f12565b60028152600060208201526001604082015261032061158c565b60e0840152610350610330610edd565b6323d8cf7760e11b81526020810183905260e0850151906101e282611249565b50610359610edd565b90630ae779e160e01b8252602082015260e08301519061023382611256565b50610381610f12565b9060028252600060208301526000604083015261039c610f12565b6003815260006020820152600060408201526103b6610f31565b926003845260005b6060811061067c575061042b90839461010061045a9501526104026103e1610edd565b6323d8cf7760e11b815260208101839052610100870151906101e282611249565b5061040b610edd565b90630ae779e160e01b825260208201526101008501519061023382611256565b50610434610edd565b9063cf01c34960e01b825260208201526101008301519061045482611266565b52611266565b50610463610edd565b600181526020368183013780825263412b922360e11b9061048390611249565b526040518091602082526104f06104da6104c46104ae845161018060208801526101a0870190610f75565b6020850151868203601f19016040880152610f75565b6040840151858203601f19016060870152610f75565b6060830151848203601f19016080860152610f75565b6080820151151560a084015260a0820151151560c084015260c082015190601f198482030160e0850152815180825260208201916020808360051b8301019401926000915b838310610625578780886105906105786105608b60e0850151601f1987830301610100880152610fef565b610100840151858203601f1901610120870152610fef565b610120830151848203601f1901610140860152610fef565b6105ae6101408301519161016092601f198683030184870152610fef565b91015190601f19838203016101808401526020808351928381520192019060005b8181106105dd575050500390f35b91935091602060e06001926106176040885163ffffffff851b815116845261060b8682015187860190610fb3565b01516080830190610fb3565b0194019101918493926105cf565b91939596509193602080610669600193601f19868203018752606060408b51878060a01b038151168452858101511515868501520151918160408201520190610f75565b9701930193019092879695949293610535565b602090610687610edd565b60008152610693610f12565b600081526000848201526000604082015283820152828288010152016103be565b3461010c576106c236610e99565b5050611396565b3461010c576106d736610e04565b50505050611396565b3461010c57600036600319011261010c576101086106fc610edd565b602081527f436f6c642053746f72616765204164647265737320426f6f6b20506c7567696e6020820152604051918291602083526020830190610e59565b503461010c57602036600319011261010c578035906001600160401b03821161010c5761076991369101610dd7565b50506107776100f733611940565b6113888151106000146108195760408051338152637c9c64bb60e11b6020820152600091810191909152600160608201815b156107c9575b600091815260808320600061fffe198254169155916107a9565b600182161580610810575b6107af575050507f8342bc442963161fe55b209fbfc4dafccac754f61a43438af2615c68dac75ed36040518061080b339482611043565b0390a2005b508115156107d4565b50337fe7286f689afa21e4be11e804963cab3150095657dda0d218dc22bf2eb0c682ca600080a2005b503461010c57602036600319011261010c5780356001600160401b039182821161010c5761087291369101610dd7565b8092919261087c57005b82019160208184031261010c57803591821161010c57019080601f8301121561010c578160206108ae933591016114d3565b6108b78161173c565b7f2762cf05265ec47ebbfe12ce03afa1f82fa948b789548da6e83f3a083ffb10e46040518061080b339482611043565b3461010c5761080b7f2762cf05265ec47ebbfe12ce03afa1f82fa948b789548da6e83f3a083ffb10e461091936610d77565b61092f61092a9492943683876114d3565b61173c565b6040519182913395836110c2565b3461010c57602061095761095036610e99565b509061142a565b604051908152f35b3461010c57600036600319011261010c576109786113c4565b506109816113c4565b610989610edd565b906020918281527f436f6c642053746f72616765204164647265737320426f6f6b20506c7567696e8382015281526109bf610edd565b60058152640312e302e360dc1b838201528282019081526109de610edd565b90601982527f436972636c6520496e7465726e65742046696e616e6369616c000000000000008483015260408301918252610a17610f31565b906003825260005b606080821015610a4957908691610a34610edd565b90600082528382015282828601015201610a1f565b5050909391610b6d9060608501958652610add610a64610edd565b60108152610aa86f41646472657373426f6f6b577269746560801b918288820152610a8d610edd565b906323d8cf7760e11b8252888201528951906101e282611249565b50610ab1610edd565b906010825286820152610ac2610edd565b90630ae779e160e01b82528682015287519061023382611256565b50610b27610ae9610edd565b600f81526e1059191c995cdcd09bdbdad4995859608a1b86820152610b0c610edd565b9063cf01c34960e01b82528682015287519061045482611266565b50610b5c610b46604051968688525160808789015260a0880190610e59565b935193601f199485888303016040890152610e59565b905183868303016060870152610e59565b9351918184860301608085015282519081865280860181808460051b8901019501936000975b848910610ba05787870388f35b9091929394958480610bd6838686600196030188526040838c5163ffffffff60e01b815116845201519181858201520190610e59565b98019401980197919094939294610b93565b503461010c57604036600319011261010c5780359060ff8216820361010c57602435906001600160401b03821161010c576106c291369101610dd7565b3461010c57610c40610c3636610e04565b93915091506112ce565b005b503461010c57610c5136610d77565b909160005b828110610c905760405133907f8342bc442963161fe55b209fbfc4dafccac754f61a43438af2615c68dac75ed3908061080b8789836110c2565b610cbe6bffffffffffffffffffffffff19610cb4610caf848789611088565b6110ae565b60601b16336115e4565b15610ccb57600101610c56565b610cd992610caf9294611088565b6040805163e3bee48360e01b8152339381019384526001600160a01b03909216602084015290918291010390fd5b0390fd5b823461010c57602036600319011261010c57359063ffffffff60e01b821680920361010c5760209163412b922360e11b8114908115610d4c575b5015158152f35b63043140ed60e01b811491508115610d66575b5083610d45565b6301ffc9a760e01b14905083610d5f565b90602060031983011261010c576004356001600160401b039283821161010c578060238301121561010c57816004013593841161010c5760248460051b8301011161010c576024019190565b35906001600160a01b038216820361010c57565b9181601f8401121561010c578235916001600160401b03831161010c576020838186019501011161010c57565b90608060031983011261010c5760043560ff8116810361010c57916024356001600160a01b038116810361010c579160443591606435906001600160401b03821161010c57610e5591600401610dd7565b9091565b919082519283825260005b848110610e85575050826000602080949584010152601f8019910116010190565b602081830181015184830182015201610e64565b9060031960608184011261010c5760043560ff8116810361010c5792602435916001600160401b03831161010c57826101209203011261010c576004019060443590565b60405190604082018281106001600160401b03821117610efc57604052565b634e487b7160e01b600052604160045260246000fd5b60405190606082018281106001600160401b03821117610efc57604052565b60405190608082018281106001600160401b03821117610efc57604052565b6040519190601f01601f191682016001600160401b03811183821017610efc57604052565b90815180825260208080930193019160005b828110610f95575050505090565b83516001600160e01b03191685529381019392810192600101610f87565b80516005811015610fd9576040918291845260ff60208201511660208501520151910152565b634e487b7160e01b600052602160045260246000fd5b90815180825260208080930193019160005b82811061100f575050505090565b9091929382608060019261103783895163ffffffff60e01b8151168452015184830190610fb3565b01950193929101611001565b602090602060408183019282815285518094520193019160005b82811061106b575050505090565b83516001600160a01b03168552938101939281019260010161105d565b91908110156110985760051b0190565b634e487b7160e01b600052603260045260246000fd5b356001600160a01b038116810361010c5790565b909160406020928260208201602083525201929160005b8281106110e7575050505090565b909192938280600192838060a01b036110ff89610dc3565b168152019501939291016110d9565b6001600160401b038111610efc5760051b60200190565b81601f8201121561010c578035906001600160401b038211610efc57611154601f8301601f1916602001610f50565b928284526020838301011161010c57816000926020809301838601378301015290565b602090818184031261010c5780356001600160401b039182821161010c57019083601f8301121561010c5781356111b56111b08261110e565b610f50565b94848087848152019260051b8501019381851161010c57858101925b8584106111e2575050505050505090565b833585811161010c5782019060609081601f19848703011261010c57611206610f12565b6112118a8501610dc3565b8152604092838501358b8301528401359288841161010c5761123a878c80979681970101611125565b908201528152019301926111d1565b8051156110985760200190565b8051600110156110985760400190565b8051600210156110985760600190565b80518210156110985760209160051b010190565b9160608383031261010c5782356001600160a01b038116810361010c579260208101359260408201356001600160401b03811161010c576112cb9201611125565b90565b90919060019060ff1681810361130c5750508060041161010c578160046112fb9261130a9401910161128a565b916001600160a01b03166116c6565b565b90929060031461132857604051634851657960e11b8152600490fd5b8160041161010c57600461133f9282019101611177565b80519060005b8281106113525750505050565b83906113906001600160a01b036113698386611276565b51511660206113788487611276565b51015160406113878588611276565b510151916116c6565b01611345565b6040516384b9b37960e01b81526000356001600160e01b031916600482015260ff9091166024820152604490fd5b60405190608082018281106001600160401b03821117610efc57604052606080838181528160208201528160408201520152565b903590601e198136030182121561010c57018035906001600160401b03821161010c5760200191813603831361010c57565b60ff168061146157508060606114419201906113f8565b8060041161010c578160046112fb9261145c9401910161128a565b600090565b60021461147a57604051634851657960e11b8152600490fd5b8060606114889201906113f8565b908160041161010c5760046114a09282019101611177565b80519060005b8281106114b557505050600090565b6001906114cd6001600160a01b036113698386611276565b016114a6565b9092916114e26111b08561110e565b93808552602092602086019160051b810192831161010c57905b8282106115095750505050565b83809161151584610dc3565b8152019101906114fc565b6040519061018082018281106001600160401b03821117610efc5760405281610160606091828152826020820152826040820152828082015260006080820152600060a08201528260c08201528260e08201528261010082015282610120820152826101408201520152565b611594610f12565b90600282528160005b604090818110156115df576020916115b3610edd565b9060008252839060006115c4610f12565b9181835281848401528201528183015282850101520161159d565b505050565b604080516001600160a01b039092168252637c9c64bb60e11b6020830152600090820181905261ffff19909216606082018181526080808420805493969594909392871580156116be575b6116b4576001908660015b15611687575b508691815283832080549061fffe1990818316918c83146116635750509261163a565b95509798999a50509480945061fffc92506002915016931691161717905555600190565b600181161590816116aa575b501561169f5738611640565b509496505050505050565b9050151538611693565b5093955050505050565b50831561162f565b906116d192916117f6565b60408051338152637c9c64bb60e11b60208201526000918101919091526080906bffffffffffffffffffffffff198360601b1660608201522054156117135750565b6040516375f4229560e11b81523360048201526001600160a01b03919091166024820152604490fd5b80519060005b82811061174e57505050565b6117746bffffffffffffffffffffffff196117698385611276565b5160601b16336118b1565b1561178157600101611742565b610d07916001600160a01b039161179791611276565b51604051635b01bbf160e01b815233600482015291166001600160a01b031660248201529081906044820190565b6001600160a01b0391821681529116602082015260408101919091526080606082018190526112cb92910190610e59565b9181156118365780516118175750506001600160a01b038116156117135790565b604051630c4f82d960e41b8152918291610d07918533600486016117c5565b91803b1561189357505061184981611a66565b906001600160a01b039081831615611882575b81831615611870575b508116156117135790565b61187b919250611b7c565b9038611865565b915061188d82611b07565b9161185c565b610d07836040519384936347662f4160e01b855233600486016117c5565b9061ffff191690811561193957604080516001600160a01b039092168252637c9c64bb60e11b60208301526000908201526060810182815260808220805490929061193057600160809252209182549283158015611926575b1561191a57600193505555600190565b90600217905555600190565b506001841661190a565b50505050600090565b5050600090565b906040519160018060a01b03168252637c9c64bb60e11b602083015260008060408401526000906060840160019460018252608090608081205492604051948860808701995b6119a3575b5050505050506001820160051b016080016040528252565b90919293949681881615806119f9575b156119f35761fffe198816908201600581901b8801870182905297600216156119ea5783528085852054915b959493929195611986565b508082916119df565b9661198b565b508715156119b3565b805160005b818110611a1357505090565b80611a2060019285611276565b5160601c611a2e8286611276565b5201611a07565b906020825192015163ffffffff60e01b908181169360048110611a5757505050565b60040360031b82901b16169150565b6001600160e01b0319611a7882611a35565b1663a9059cbb60e01b81148015611af7575b8015611ae7575b8015611ad7575b15611ab457506044815110611aae576024015190565b50600090565b6323b872dd60e01b14611ac75750600090565b6064815110611aae576044015190565b5063a457c2d760e01b8114611a98565b50633950935160e01b8114611a91565b5063095ea7b360e01b8114611a8a565b6001600160e01b0319611b1982611a35565b1663a22cb46560e01b8103611b3957506044815110611aae576024015190565b637921219560e11b8103611b58575060c4815110611aae576044015190565b631759616b60e11b14611b6b5750600090565b610104815110611aae576044015190565b6001600160e01b0319611b8e82611a35565b1663a22cb46560e01b81148015611c10575b15611bb657506044815110611aae576024015190565b632142170760e11b81148015611c00575b15611bdd57506064815110611aae576044015190565b635c46a7ef60e11b14611bf05750600090565b60a4815110611aae576044015190565b506323b872dd60e01b8114611bc7565b5063095ea7b360e01b8114611ba056fea2646970667358221220a7e886c84c80dd49991af127505092f93de2f237ec1d45cf5a2601a08664e1ca64736f6c63430008180033","linkReferences":{}},"methodIdentifiers":{"NAME()":"a3f4df7e","addAllowedRecipients(address[])":"47b19eee","getAllowedRecipients(address)":"cf01c349","onInstall(bytes)":"6d61fe70","onUninstall(bytes)":"8a91b0e3","pluginManifest()":"c7763130","pluginMetadata()":"118a5389","postExecutionHook(uint8,bytes)":"1128186d","preExecutionHook(uint8,address,uint256,bytes)":"46d60eb2","preRuntimeValidationHook(uint8,address,uint256,bytes)":"0c7ecd84","preUserOpValidationHook(uint8,(address,uint256,bytes,bytes,bytes32,uint256,bytes32,bytes,bytes),bytes32)":"15b76b84","removeAllowedRecipients(address[])":"0ae779e1","runtimeValidationFunction(uint8,address,uint256,bytes)":"bfd151c1","supportsInterface(bytes4)":"01ffc9a7","userOpValidationFunction(uint8,(address,uint256,bytes,bytes,bytes32,uint256,bytes32,bytes,bytes),bytes32)":"c4db8dd9"},"id":18}