{"abi":[{"type":"function","name":"install","inputs":[{"name":"plugin","type":"address","internalType":"address"},{"name":"manifestHash","type":"bytes32","internalType":"bytes32"},{"name":"pluginInstallData","type":"bytes","internalType":"bytes"},{"name":"dependencies","type":"tuple[]","internalType":"struct FunctionReference[]","components":[{"name":"plugin","type":"address","internalType":"address"},{"name":"functionId","type":"uint8","internalType":"uint8"}]},{"name":"msca","type":"address","internalType":"address"}],"outputs":[],"stateMutability":"nonpayable"},{"type":"function","name":"uninstall","inputs":[{"name":"plugin","type":"address","internalType":"address"},{"name":"config","type":"bytes","internalType":"bytes"},{"name":"pluginUninstallData","type":"bytes","internalType":"bytes"}],"outputs":[{"name":"","type":"bool","internalType":"bool"}],"stateMutability":"nonpayable"},{"type":"event","name":"AddressAdded","inputs":[{"name":"addr","type":"address","indexed":true,"internalType":"address"}],"anonymous":false},{"type":"event","name":"AddressRemoved","inputs":[{"name":"addr","type":"address","indexed":true,"internalType":"address"}],"anonymous":false},{"type":"error","name":"ExecuteFromPluginExternalAlreadySet","inputs":[{"name":"plugin","type":"address","internalType":"address"},{"name":"externalAddress","type":"address","internalType":"address"}]},{"type":"error","name":"ExecuteFromPluginExternalAlreadyUnset","inputs":[{"name":"plugin","type":"address","internalType":"address"},{"name":"externalAddress","type":"address","internalType":"address"}]},{"type":"error","name":"ExecutionDetailAlreadySet","inputs":[{"name":"plugin","type":"address","internalType":"address"},{"name":"selector","type":"bytes4","internalType":"bytes4"}]},{"type":"error","name":"FailToCallOnInstall","inputs":[{"name":"plugin","type":"address","internalType":"address"},{"name":"revertReason","type":"bytes","internalType":"bytes"}]},{"type":"error","name":"HookDependencyNotPermitted","inputs":[]},{"type":"error","name":"InvalidAddress","inputs":[]},{"type":"error","name":"InvalidExecutionSelector","inputs":[{"name":"plugin","type":"address","internalType":"address"},{"name":"selector","type":"bytes4","internalType":"bytes4"}]},{"type":"error","name":"InvalidFunctionReference","inputs":[]},{"type":"error","name":"InvalidLimit","inputs":[]},{"type":"error","name":"InvalidPluginDependency","inputs":[{"name":"plugin","type":"address","internalType":"address"}]},{"type":"error","name":"InvalidPluginManifest","inputs":[]},{"type":"error","name":"InvalidPluginManifestHash","inputs":[]},{"type":"error","name":"InvalidSelfDependency","inputs":[]},{"type":"error","name":"ItemAlreadyExists","inputs":[]},{"type":"error","name":"ItemDoesNotExist","inputs":[]},{"type":"error","name":"OnlyDelegated","inputs":[]},{"type":"error","name":"PluginNotImplementInterface","inputs":[]},{"type":"error","name":"PluginUsedByOthers","inputs":[{"name":"plugin","type":"address","internalType":"address"}]},{"type":"error","name":"ValidationFunctionAlreadySet","inputs":[{"name":"selector","type":"bytes4","internalType":"bytes4"}]}],"bytecode":{"object":"0x60a080604052346100295730608052612ff3908161002f823960805181818160a001526112cd0152f35b600080fdfe60406080815260048036101561001457600080fd5b600091823560e01c928363b58bb5cb1461003f5750505063c877ea631461003a57600080fd5b61085b565b346106e15760603660031901126106e157823561005b816106e4565b6001600160401b03936024358581116102d05761007b90369083016107f2565b946044359081116102d05761009390369083016107f2565b946001600160a01b0390307f00000000000000000000000000000000000000000000000000000000000000008316146106d1576100cf84611b16565b506100d8610950565b5080511561068057806020806100f393518301019101610c95565b600290600261010186610e16565b015491875192602093602081019061012b8161011d8785611085565b03601f198101835282610789565b51902003610670576001928361014088610e16565b015461064b5761014f87611c19565b61017261016e608085016101638151151590565b61063a575b51151590565b1590565b6104db575b6060830180515190858a5b838110610464575050505061019561121a565b610140840180515190868b5b838110610432575050505061012084019182515193868b5b8b8782106103f35750505050505050506101d16121b5565b61010082018051519084895b8381106103d4575050505060e08201908151519184895b84811061037057505050505061020f61016082015186612248565b8681018051519083885b83811061033f57505050508051519082875b8381106102d4575050505061025a61024285610e16565b60056000918281558260018201558260028201550155565b921690813b156102d0576102ab95610288928592838851809681958294638a91b0e360e01b845283016112b2565b03925af190816102b7575b506102af5750905b5190151581529081906020820190565b0390f35b91905061029b565b806102c46102ca9261071f565b80611267565b85610293565b8380fd5b61032b6102f36102e583865161119f565b516001600160e01b03191690565b63ffffffff60e01b166000527fc6a0cc20c824c4eecc4b0fbb7fb297d07492a7bd12c83d4fa4d27b4249f9bfce602052604060002090565b6103358154611253565b905501839061022b565b6103686103586103536102e584875161119f565b6111c9565b80546001600160a01b0319169055565b018490610219565b6103cc848361039561035361038686895161119f565b51516001600160e01b03191690565b018151815460209093015160ff60a01b60a09190911b166001600160a81b03199093166001600160a01b0390911617919091179055565b0185906101f4565b6103eb85600761039561035361038686895161119f565b0185906101dd565b61042990610423878661040d610353610386888e5161119f565b01928861041b878d5161119f565b510151611cec565b90611fa5565b500187906101b9565b61045b8c61042387600861044d610353610386888b5161119f565b01928a61041b878a5161119f565b500187906101a1565b6001600160a01b038b1660009081527fc6a0cc20c824c4eecc4b0fbb7fb297d07492a7bd12c83d4fa4d27b4249f9bfcc602052604090206104d3906104c9905b6104b26102e585885161119f565b63ffffffff60e01b16600052602052604060002090565b805460ff19169055565b018690610182565b60c0830180515190895b8281106104f457505050610177565b6104ff81835161119f565b516001600160a01b038b1660009081527fc6a0cc20c824c4eecc4b0fbb7fb297d07492a7bd12c83d4fa4d27b4249f9bfcd60205260409020610559905b82516001600160a01b031660009081526020919091526040902090565b9061056861016e835460ff1690565b6105f457908c8e8a94936105808460ff198154169055565b808901511561059d575050815461ff001916909155505b016104e5565b01805151928501915b8381106105b65750505050610597565b6105e86104c96105cf6102e584869798999a965161119f565b869063ffffffff60e01b16600052602052604060002090565b01908a949392916105a6565b8a6106368f61060a8f945160018060a01b031690565b9051630861b85160e01b81526001600160a01b0394851693810193845293166020830152829160400190565b0390fd5b6106466104c98b610e16565b610168565b8851637572accb60e11b81526001600160a01b03881681880190815281906020010390fd5b875163202b168f60e21b81528590fd5b508451630c77631360e41b8152848184818786165afa9081156106cc5785916106aa575b506100f3565b6106c691503d8087833e6106be8183610789565b810190610c95565b876106a4565b610e0a565b85516353980bdb60e11b81528390fd5b80fd5b6001600160a01b038116036106f557565b600080fd5b60843590610707826106e4565b565b634e487b7160e01b600052604160045260246000fd5b6001600160401b03811161073257604052565b610709565b604081019081106001600160401b0382111761073257604052565b606081019081106001600160401b0382111761073257604052565b61016081019081106001600160401b0382111761073257604052565b90601f801991011681019081106001600160401b0382111761073257604052565b6040519061018082018281106001600160401b0382111761073257604052565b6040519061070782610737565b6001600160401b03811161073257601f01601f191660200190565b81601f820112156106f557803590610809826107d7565b926108176040519485610789565b828452602083830101116106f557816000926020809301838601378301015290565b6001600160401b0381116107325760051b60200190565b60ff8116036106f557565b346106f55760a03660031901126106f557600435610878816106e4565b6001600160401b03906044358281116106f5576108999036906004016107f2565b916064359081116106f557366023820112156106f5578060040135926108be84610839565b916040946108cf6040519485610789565b8084526020906024602086019160061b840101923684116106f557602401905b8382106109105761090e8787876109046106fa565b92602435906112c3565b005b87823603126106f557828891825161092781610737565b8435610932816106e4565b81528285013561094181610850565b838201528152019101906108ef565b6040519061018082018281106001600160401b038211176107325760405281610160606091828152826020820152826040820152828082015260006080820152600060a08201528260c08201528260e08201528261010082015282610120820152826101408201520152565b51906001600160e01b0319821682036106f557565b9080601f830112156106f5578151906020916109ec81610839565b936109fa6040519586610789565b81855260208086019260051b8201019283116106f557602001905b828210610a23575050505090565b838091610a2f846109bc565b815201910190610a15565b519081151582036106f557565b81601f820112156106f557805191602091610a6184610839565b93604092610a726040519687610789565b818652848087019260051b840101938185116106f557858401925b858410610a9e575050505050505090565b83516001600160401b03908181116106f557860191606080601f1985880301126106f557845190610ace82610752565b8a850151610adb816106e4565b8252610ae8868601610a3a565b8b8301528401519283116106f557610b07868b809695819601016109d1565b85820152815201930192610a8d565b91908260609103126106f557604051610b2e81610752565b8092805160058110156106f557604091829184526020810151610b5081610850565b60208501520151910152565b9080601f830112156106f5578151916020610b7684610839565b93604093610b876040519687610789565b818652828087019260071b850101938185116106f5578301915b848310610bb15750505050505090565b6080838303126106f557836080918751610bca81610737565b610bd3866109bc565b8152610be185848801610b16565b83820152815201920191610ba1565b81601f820112156106f5578051906020610c0983610839565b93604090610c1a6040519687610789565b848652828601918360e0809702860101948286116106f5578401925b858410610c47575050505050505090565b86848403126106f5578487918351610c5e81610752565b610c67876109bc565b8152610c7586848901610b16565b83820152610c868660808901610b16565b85820152815201930192610c36565b6020818303126106f55780516001600160401b03918282116106f55701610180818403126106f557610cc56107aa565b9281518381116106f55781610cdb9184016109d1565b845260208201518381116106f55781610cf59184016109d1565b602085015260408201518381116106f55781610d129184016109d1565b604085015260608201518381116106f55781610d2f9184016109d1565b6060850152610d4060808301610a3a565b6080850152610d5160a08301610a3a565b60a085015260c08201518381116106f55781610d6e918401610a47565b60c085015260e08201518381116106f55781610d8b918401610b5c565b60e0850152610100808301518481116106f55782610daa918501610b5c565b90850152610120808301518481116106f55782610dc8918501610b5c565b90850152610140808301518481116106f55782610de6918501610b5c565b9085015261016092838301519081116106f557610e039201610bf0565b9082015290565b6040513d6000823e3d90fd5b6001600160a01b031660009081527fc6a0cc20c824c4eecc4b0fbb7fb297d07492a7bd12c83d4fa4d27b4249f9bfcb6020526040902090565b6001600160a01b031660009081527fc6a0cc20c824c4eecc4b0fbb7fb297d07492a7bd12c83d4fa4d27b4249f9bfc86020526040902090565b6001600160a01b031660009081527fc6a0cc20c824c4eecc4b0fbb7fb297d07492a7bd12c83d4fa4d27b4249f9bfc96020526040902090565b90815180825260208080930193019160005b828110610ee1575050505090565b83516001600160e01b03191685529381019392810192600101610ed3565b908082519081815260208091019281808460051b8301019501936000915b848310610f2d5750505050505090565b9091929394958480610f71600193601f198682030187528a5190606090868060a01b0383511681528483015115158582015281604080940151938201520190610ec1565b9801930193019194939290610f1d565b634e487b7160e01b600052602160045260246000fd5b60051115610fa157565b610f81565b80516005811015610fa1576040918291845260ff60208201511660208501520151910152565b90815180825260208080930193019160005b828110610fec575050505090565b9091929382608060019261101483895163ffffffff60e01b8151168452015184830190610fa6565b01950193929101610fde565b90815180825260208080930193019160005b828110611040575050505090565b909192938260e06001926110796040895163ffffffff851b815116845261106d8682015187860190610fa6565b01516080830190610fa6565b01950193929101611032565b9061119c91602081528151906110a9610180928360208401526101a0830190610ec1565b916111236110f76110e36110cf602088015196601f199788888303016040890152610ec1565b604088015187878303016060880152610ec1565b606087015186868303016080870152610ec1565b6080860151151560a085015260a0860151151560c085015260c0860151858583030160e0860152610eff565b61118c61117561115e61114760e089015194610100958989830301878a0152610fcc565b938801519361012094888883030186890152610fcc565b928701519261014093878783030185880152610fcc565b918601519161016092868683030184870152610fcc565b9401519282850301910152611020565b90565b80518210156111b35760209160051b010190565b634e487b7160e01b600052603260045260246000fd5b63ffffffff60e01b166000527fc6a0cc20c824c4eecc4b0fbb7fb297d07492a7bd12c83d4fa4d27b4249f9bfcf602052604060002090565b6040519061120e82610737565b60006020838281520152565b604051602081018181106001600160401b03821117610732576040526000815290565b634e487b7160e01b600052601160045260246000fd5b60001981019190821161126257565b61123d565b60009103126106f557565b919082519283825260005b84811061129e575050826000602080949584010152601f8019910116010190565b60208183018101518483018201520161127d565b90602061119c928181520190611272565b94939192909190307f00000000000000000000000000000000000000000000000000000000000000006001600160a01b031614611a7c5761130661016e87612334565b611a6a576113138661241e565b50604051630c77631360e41b8152916000836004816001600160a01b038b165afa9283156106cc57600093611a4d575b50604051602081019061135a8161011d8785611085565b5190208403611a3b5782515160005b818110611a1557505081516020840180515182036119f45760005b828110611927575050505060a0820151611907575b604082018051519060005b8281106117f9575050506101608201805151908260005b8984821061179f57505050505060e082018051519060005b82811061174d5750505061010082018051519160005b8381106116bb5750505050610120810180515161140461121a565b9160005b8281106116885750505061014082018051519160005b83811061164f5750505050606081018051519060005b828110611605575050506080810151156114f7575061146261145585610e16565b805460ff19166001179055565b600261146d85610e16565b01556001600160a01b0383163b156106f557600061149f91604051809381926306d61fe760e41b8352600483016112b2565b0381836001600160a01b0388165af190816114e4575b506114e057506114c3611ac4565b604051633355f52760e21b81529182916106369160048401611af4565b9050565b806102c46114f19261071f565b386114b5565b60c0018051519060005b82811061151057505050611462565b61151b81835161119f565b516001600160a01b03881660009081527fc6a0cc20c824c4eecc4b0fbb7fb297d07492a7bd12c83d4fa4d27b4249f9bfcd6020526040902061155c9061053c565b90611568825460ff1690565b6115da57815460ff191660011782556020810151156115995750805461ff0019166101001790556001905b01611501565b604001805151906000906001809401915b8381106115be575050505050600190611593565b806115d46114556105cf6102e58995875161119f565b016115aa565b51604051635c43279160e11b81526001600160a01b03808b1660048301529091166024820152604490fd5b6001906116496114556104a48b60018060a01b03166000527fc6a0cc20c824c4eecc4b0fbb7fb297d07492a7bd12c83d4fa4d27b4249f9bfcc602052604060002090565b01611434565b806116816008611668610353610386600196895161119f565b0161167b858d602061041b878b5161119f565b90612aaf565b500161141e565b806116b460026116a1610353610386600196885161119f565b0161167b878d602061041b878a5161119f565b5001611408565b6116c961038682855161119f565b60076116f66116e96116e4836116de866111c9565b01611a9c565b612a88565b6001600160581b03191690565b61172b5782916117259161039561171f878f602061171760019a8d5161119f565b510151611f12565b926111c9565b016113e9565b6040516328fbab7760e11b81526001600160e01b031983166004820152602490fd5b61175b61038682845161119f565b60016117706116e96116e4836116de866111c9565b61172b5782916117999161039561171f898f602061179160019a8c5161119f565b510151611efa565b016113d3565b8381600d6117eb6117e5876117cf6001996117f198602061041b8c6117c8610386828e5161119f565b9b5161119f565b9460406117dd8a8d5161119f565b510151611e16565b936111c9565b01612a02565b0183906113bb565b6118076102e582845161119f565b61182f611823611816836111c9565b546001600160a01b031690565b6001600160a01b031690565b6118d45761183c8161264f565b80156118c5575b80156118b6575b611883579061187d8a61185e6001946111c9565b80546001600160a01b0319166001600160a01b03909216919091179055565b016113a4565b604051631ef19fa360e31b81526001600160a01b038b1660048201526001600160e01b0319919091166024820152604490fd5b506118c081612916565b61184a565b506118cf816128a2565b611843565b604051634c5f65e960e11b81526001600160a01b038b1660048201526001600160e01b0319919091166024820152604490fd5b61192261191387610e16565b805461ff001916610100179055565b611399565b611942611934828761119f565b51516001600160a01b031690565b6001600160a01b03818116908616146119eb57600261196082610e16565b0154156119c85761198161016e61197b6102e585875161119f565b836123be565b6119c8579060016119b481936119ae60038f61199c90610e16565b016119a7868c61119f565b5190612585565b50610e16565b016119bf8154611a8e565b90555b01611384565b604051630d24182f60e01b81526001600160a01b03919091166004820152602490fd5b506001906119c2565b604051630d24182f60e01b81526001600160a01b038a166004820152602490fd5b80611a296102f36102e5600194895161119f565b611a338154611a8e565b905501611369565b60405163202b168f60e21b8152600490fd5b611a639193503d806000833e6106be8183610789565b9138611343565b6040516349ad710360e11b8152600490fd5b6040516353980bdb60e11b8152600490fd5b906001820180921161126257565b90604051611aa981610737565b91546001600160a01b038116835260a01c60ff166020830152565b3d15611aef573d90611ad5826107d7565b91611ae36040519384610789565b82523d6000602084013e565b606090565b6001600160a01b03909116815260406020820181905261119c92910190611272565b6001600160a01b0381811691908215611bfa57611b3282612bce565b15611be85781611b628261185e61035894611b4f611b9197610e4f565b541691611b5b85610e88565b5416610e4f565b611b85611b7161181683610e88565b61185e611b8061181685610e4f565b610e88565b611b8061035882610e4f565b7fc6a0cc20c824c4eecc4b0fbb7fb297d07492a7bd12c83d4fa4d27b4249f9bfca611bbc8154611c0c565b90557f24a12366c02e13fe4a9e03d86a8952e85bb74a456c16e4a18b6d8295700b74bb600080a2600190565b604051639a749d8160e01b8152600490fd5b60405163e6c4247b60e01b8152600490fd5b8015611262576000190190565b611c2281610e16565b600360056003830192015492611c366121b5565b6000946000915b818310611c4e575b50505050505050565b611c5d90869798949596612c96565b9690978792815b8a51811015611cba5780611cb38c611cac838d611ca58e6001611c93611c8e611934839c8a61119f565b610e16565b01611c9e8154611253565b9055610e16565b019261119f565b5190612d8e565b5001611c64565b5095939198509593966116e9611ccf91612a88565b15611ce4576001019192939096949596611c3d565b869750611c45565b9091611cf6611201565b5060028251611d0481610f97565b611d0d81610f97565b14611e045760018251611d1f81610f97565b611d2881610f97565b03611d5e57506020015161119c9060ff165b611d54611d456107ca565b6001600160a01b039094168452565b60ff166020830152565b915060028151611d6d81610f97565b611d7681610f97565b03611daa5760400190815181511115611d9857611d9491519061119f565b5190565b604051635f1b910f60e11b8152600490fd5b905060038151611db981610f97565b611dc281610f97565b03611dd957604051635f1b910f60e11b8152600490fd5b60049051611de681610f97565b611def81610f97565b03611dfc5761119c6121d8565b61119c6121b5565b6040516358cb286b60e01b8152600490fd5b9091611e20611201565b5060028251611e2e81610f97565b611e3781610f97565b14611e045760018251611e4981610f97565b611e5281610f97565b03611e6857506020015161119c9060ff16611d3a565b915060028151611e7781610f97565b611e8081610f97565b03611e9e5760400190815181511115611d9857611d9491519061119f565b905060038151611ead81610f97565b611eb681610f97565b03611ecd57604051635f1b910f60e11b8152600490fd5b60049051611eda81610f97565b611ee381610f97565b03611dfc57604051635f1b910f60e11b8152600490fd5b9091611f04611201565b5060018251611e4981610f97565b9091611f1c611201565b5060018251611f2a81610f97565b611f3381610f97565b03611f4957506020015161119c9060ff16611d3a565b915060028151611f5881610f97565b611f6181610f97565b03611f7f5760400190815181511115611d9857611d9491519061119f565b905060038151611f8e81610f97565b611f9781610f97565b03611ecd575061119c6121fb565b906001600160581b0319611fb882612a88565b16156121a357611fc88183612e86565b908115611be857612174926001611fe0600293612a88565b93036121785761211e6120f58461201561200e8286906001600160581b031916600052602052604060002090565b5460581b90565b612072600186019161205b61204161200e8686906001600160581b031916600052602052604060002090565b88906001600160581b031916600052602052604060002090565b9060581c6001600160581b0360a81b825416179055565b6120d461209661200e8484906001600160581b031916600052602052604060002090565b61205b6120ba61200e868a906001600160581b031916600052602052604060002090565b84906001600160581b031916600052602052604060002090565b6121056120f58387906001600160581b031916600052602052604060002090565b80546001600160a81b0319169055565b906001600160581b031916600052602052604060002090565b6001600160581b0319831660009081528183016020526040812055600381016121478154611c0c565b90555b600481016121588154611c0c565b905501906001600160581b031916600052602052604060002090565b5490565b6001600160581b0319831660009081528183016020526040902061219c8154611c0c565b905561214a565b60405163062eecfd60e41b8152600490fd5b6121bd611201565b506040516121ca81610737565b600081526000602082015290565b6121e0611201565b506040516121ed81610737565b600081526002602082015290565b612203611201565b5060405161221081610737565b600081526001602082015290565b612226611201565b5060ff6040519161223683610737565b8060601c835260581c16602082015290565b9080519161225461121a565b9060005b848110612266575050505050565b6001906001600160e01b031961227c828761119f565b5151166122908585602061041b868b61119f565b906122ab6122a5878760406117dd888d61119f565b916111c9565b6122b483612a88565b926001600160581b0319908185166122dd5750506122d59250601301611fa5565b505b01612258565b6122ea90600d8401611fa5565b506122f483612a88565b16612302575b5050506122d7565b61232b9260126123269201906001600160581b031916600052602052604060002090565b611fa5565b503880806122fa565b61233d81612ec0565b90816123ac575b8161234d575090565b60209150600090604051838101906301ffc9a760e01b825263043140ed60e01b60248201526024815261237f81610752565b5191617530fa6000513d826123a0575b5081612399575090565b9050151590565b6020111591503861238f565b90506123b781612ee9565b1590612344565b6123c781612ec0565b918261240c575b826123d857505090565b6020925090600091604051848101916301ffc9a760e01b835263ffffffff60e01b1660248201526024815261237f81610752565b915061241781612ee9565b15916123ce565b6001600160a01b0381811691908215611bfa5761243a82612bce565b612565577fe4e858e4eda86ec57944d84330bd8c1255924cac192d7f288fdd9d4f8b81e380541660008181527fc6a0cc20c824c4eecc4b0fbb7fb297d07492a7bd12c83d4fa4d27b4249f9bfc86020526040812080546001600160a01b0319166001600160a01b0385161790557fa226db3f664042183ee0281230bba26cbf7b5057e50aee7f25a175ff45ce4d7f9290916125319161185e906124df61035882610e4f565b600080527fc6a0cc20c824c4eecc4b0fbb7fb297d07492a7bd12c83d4fa4d27b4249f9bfc9602052611b80817fe4e858e4eda86ec57944d84330bd8c1255924cac192d7f288fdd9d4f8b81e38061185e565b7fc6a0cc20c824c4eecc4b0fbb7fb297d07492a7bd12c83d4fa4d27b4249f9bfca61255c8154612576565b905580a2600190565b6040516250f12f60e11b8152600490fd5b60001981146112625760010190565b906001600160581b031961259882612a88565b16156121a3576125a790612a88565b906125b28282612f19565b6125655761263d60029261205b6001840191600080528260205260406000205460581b926125f88261205b8689906001600160581b031916600052602052604060002090565b6126168287906001600160581b031916600052602052604060002090565b6001600160581b0360a81b81541690556121058261205b8360008052602052604060002090565b016126488154612576565b9055600190565b63ffffffff60e01b16635b0e93fb60e11b8114908115612891575b8115612880575b811561286f575b811561285e575b811561284d575b811561283c575b811561282b575b811561281a575b8115612809575b81156127f8575b81156127e7575b81156127d6575b81156127c5575b81156127b4575b81156127a3575b8115612792575b8115612781575b8115612770575b811561275f575b811561274e575b811561273d575b811561272c575b811561271b575b811561270e575090565b6223de2960e01b14919050565b630a85bd0160e11b81149150612704565b63bc197c8160e01b811491506126fd565b63f23a6e6160e01b811491506126f6565b63335a353d60e11b811491506126ef565b6327729e3b60e11b811491506126e8565b630f95d04b60e41b811491506126e1565b6336cf06ff60e01b811491506126da565b6370c321eb60e01b811491506126d3565b631a10fa5160e31b811491506126cc565b6344ab613f60e01b811491506126c5565b6306608bdf60e21b811491506126be565b631d06562b60e11b811491506126b7565b63ceaf130960e01b811491506126b0565b63190be77560e21b811491506126a9565b632344486160e21b811491506126a2565b6338997b1160e01b8114915061269b565b6394ed11e760e01b81149150612694565b6301ffc9a760e01b8114915061268d565b6352d1902d60e01b81149150612686565b63278f794360e11b8114915061267f565b63c1a221f360e01b81149150612678565b633e15cc3d60e21b81149150612671565b631a7e6adf60e11b8114915061266a565b63ffffffff60e01b16632dd8113360e01b8114908115612905575b81156128f4575b81156128e3575b81156128d5575090565b637c627b2160e01b14919050565b6314add44b60e21b811491506128cb565b63ae574a4360e01b811491506128c4565b63062a422b60e01b811491506128bd565b63ffffffff60e01b166306d61fe760e41b81149081156129f1575b81156129e0575b81156129cf575b81156129be575b81156129ad575b811561299c575b811561298b575b811561297a575b811561296c575090565b63118a538960e01b14919050565b630c77631360e41b81149150612962565b631128186d60e01b8114915061295b565b63236b075960e11b81149150612954565b63bfd151c160e01b8114915061294d565b63031fb36160e21b81149150612946565b63c4db8dd960e01b8114915061293f565b63056ddae160e21b81149150612938565b638a91b0e360e01b81149150612931565b9190612a0d81612a88565b6001600160581b031991818316612a3e575050612a2982612a88565b16156121a3576006612a3b9201612aaf565b50565b612a4b9085939295612aaf565b50612a5583612a88565b16612a5f57505050565b612a3b926005612a839201906001600160581b031916600052602052604060002090565b612aaf565b6bffffffffffffffffffffffff19815160601b1690602060ff60581b91015160581b161790565b906001600160581b0319612ac282612a88565b16156121a35761217491612adf612ad883612a88565b9282612e86565b15612b3c575b60046002820191612b0a8484906001600160581b031916600052602052604060002090565b612b148154612576565b905501612b218154612576565b9055906001600160581b031916600052602052604060002090565b612bb96001820161205b84612b5a8360008052602052604060002090565b5460581b92612b818261205b8689906001600160581b031916600052602052604060002090565b612ba26120f58388906001600160581b031916600052602052604060002090565b6121058261205b8360008052602052604060002090565b60038101612bc78154612576565b9055612ae5565b6001600160a01b03908116908115612c8f5760008080527fc6a0cc20c824c4eecc4b0fbb7fb297d07492a7bd12c83d4fa4d27b4249f9bfc86020527fd594a02d3fda915a830c228e795b44eb4af5dfc9cc085b4c42f40bccd958a9105482168314928315612c7c575b8315612c44575b50505090565b604092935081527fc6a0cc20c824c4eecc4b0fbb7fb297d07492a7bd12c83d4fa4d27b4249f9bfc96020522054161515388080612c3e565b8082526040822054831615159350612c37565b5050600090565b9190612caa90612ca4611201565b50612a88565b60405192612cb78461076d565b600a92600a855260005b6101408110612d7757506001600160581b031980841615612d59575b6000935b85851080612d4e575b15612d3e57612d3261200e82612d02612d389461221e565b612d0c898c61119f565b52612d17888b61119f565b5086906001600160581b031916600052602052604060002090565b94612576565b93612ce1565b925050925061119c91845261221e565b508181161515612cea565b9250612d7161200e8360008052602052604060002090565b92612cdd565b602090612d82611201565b82828901015201612cc1565b906001600160581b0319612da182612a88565b16156121a357612db090612a88565b90612dbb8282612f19565b15611be857612e7b6120f583612de760029585906001600160581b031916600052602052604060002090565b54612e32600186019160581b61205b612e148585906001600160581b031916600052602052604060002090565b5460581b88906001600160581b031916600052602052604060002090565b6120d4612e538383906001600160581b031916600052602052604060002090565b5460581b61205b6120ba61200e868a906001600160581b031916600052602052604060002090565b016126488154611c0c565b90612e9090612a88565b6001600160581b0319811615612c8f5760026121749201906001600160581b031916600052602052604060002090565b6000602091604051838101906301ffc9a760e01b80835260248201526024815261237f81610752565b6000602091604051838101906301ffc9a760e01b825263ffffffff60e01b60248201526024815261237f81610752565b906001600160581b0319908181168015612fb45760008052836020528260406000205460581b1614928315612f86575b8315612f555750505090565b612f77929350600101906001600160581b031916600052602052604060002090565b5460581b161515388080612c3e565b925081612fa78285906001600160581b031916600052602052604060002090565b5460581b16151592612f49565b5050505060009056fea2646970667358221220397ed15d0894624e6518125232248f476aaad6c25fd2d6dcb4b6e22a6033bf5564736f6c63430008180033","linkReferences":{}},"methodIdentifiers":{"install(address,bytes32,bytes,(address,uint8)[],address)":"c877ea63","uninstall(address,bytes,bytes)":"b58bb5cb"},"id":33}