{"abi":[{"type":"constructor","inputs":[{"name":"entryPoint","type":"address","internalType":"address"}],"stateMutability":"nonpayable"},{"type":"function","name":"ENTRYPOINT","inputs":[],"outputs":[{"name":"","type":"address","internalType":"address"}],"stateMutability":"view"},{"type":"function","name":"addOwners","inputs":[{"name":"ownersToAdd","type":"address[]","internalType":"address[]"},{"name":"weightsToAdd","type":"uint256[]","internalType":"uint256[]"},{"name":"publicKeyOwnersToAdd","type":"tuple[]","internalType":"struct PublicKey[]","components":[{"name":"x","type":"uint256","internalType":"uint256"},{"name":"y","type":"uint256","internalType":"uint256"}]},{"name":"pubicKeyWeightsToAdd","type":"uint256[]","internalType":"uint256[]"},{"name":"newThresholdWeight","type":"uint256","internalType":"uint256"}],"outputs":[],"stateMutability":"nonpayable"},{"type":"function","name":"checkNSignatures","inputs":[{"name":"input","type":"tuple","internalType":"struct IWeightedMultisigPlugin.CheckNSignatureInput","components":[{"name":"actualDigest","type":"bytes32","internalType":"bytes32"},{"name":"minimalDigest","type":"bytes32","internalType":"bytes32"},{"name":"account","type":"address","internalType":"address"},{"name":"signatures","type":"bytes","internalType":"bytes"}]}],"outputs":[{"name":"success","type":"bool","internalType":"bool"},{"name":"firstFailure","type":"uint256","internalType":"uint256"},{"name":"returnError","type":"uint8","internalType":"enum IWeightedMultisigPlugin.CheckNSignatureError"}],"stateMutability":"view"},{"type":"function","name":"getOwnerId","inputs":[{"name":"pubKeyOwnerToCheck","type":"tuple","internalType":"struct PublicKey","components":[{"name":"x","type":"uint256","internalType":"uint256"},{"name":"y","type":"uint256","internalType":"uint256"}]}],"outputs":[{"name":"","type":"bytes30","internalType":"bytes30"}],"stateMutability":"pure"},{"type":"function","name":"getOwnerId","inputs":[{"name":"ownerToCheck","type":"address","internalType":"address"}],"outputs":[{"name":"","type":"bytes30","internalType":"bytes30"}],"stateMutability":"pure"},{"type":"function","name":"getReplaySafeMessageHash","inputs":[{"name":"account","type":"address","internalType":"address"},{"name":"hash","type":"bytes32","internalType":"bytes32"}],"outputs":[{"name":"","type":"bytes32","internalType":"bytes32"}],"stateMutability":"view"},{"type":"function","name":"isOwnerOf","inputs":[{"name":"account","type":"address","internalType":"address"},{"name":"pubKeyOwnerToCheck","type":"tuple","internalType":"struct PublicKey","components":[{"name":"x","type":"uint256","internalType":"uint256"},{"name":"y","type":"uint256","internalType":"uint256"}]}],"outputs":[{"name":"","type":"bool","internalType":"bool"},{"name":"","type":"tuple","internalType":"struct OwnerData","components":[{"name":"weight","type":"uint256","internalType":"uint256"},{"name":"credType","type":"uint8","internalType":"enum CredentialType"},{"name":"addr","type":"address","internalType":"address"},{"name":"publicKeyX","type":"uint256","internalType":"uint256"},{"name":"publicKeyY","type":"uint256","internalType":"uint256"}]}],"stateMutability":"view"},{"type":"function","name":"isOwnerOf","inputs":[{"name":"account","type":"address","internalType":"address"},{"name":"ownerToCheck","type":"address","internalType":"address"}],"outputs":[{"name":"","type":"bool","internalType":"bool"},{"name":"","type":"tuple","internalType":"struct OwnerData","components":[{"name":"weight","type":"uint256","internalType":"uint256"},{"name":"credType","type":"uint8","internalType":"enum CredentialType"},{"name":"addr","type":"address","internalType":"address"},{"name":"publicKeyX","type":"uint256","internalType":"uint256"},{"name":"publicKeyY","type":"uint256","internalType":"uint256"}]}],"stateMutability":"view"},{"type":"function","name":"isValidSignature","inputs":[{"name":"digest","type":"bytes32","internalType":"bytes32"},{"name":"signature","type":"bytes","internalType":"bytes"}],"outputs":[{"name":"","type":"bytes4","internalType":"bytes4"}],"stateMutability":"view"},{"type":"function","name":"onInstall","inputs":[{"name":"data","type":"bytes","internalType":"bytes"}],"outputs":[],"stateMutability":"nonpayable"},{"type":"function","name":"onUninstall","inputs":[{"name":"","type":"bytes","internalType":"bytes"}],"outputs":[],"stateMutability":"nonpayable"},{"type":"function","name":"ownerDataPerAccount","inputs":[{"name":"","type":"bytes30","internalType":"bytes30"},{"name":"","type":"address","internalType":"address"}],"outputs":[{"name":"weight","type":"uint256","internalType":"uint256"},{"name":"credType","type":"uint8","internalType":"enum CredentialType"},{"name":"addr","type":"address","internalType":"address"},{"name":"publicKeyX","type":"uint256","internalType":"uint256"},{"name":"publicKeyY","type":"uint256","internalType":"uint256"}],"stateMutability":"view"},{"type":"function","name":"ownershipInfoOf","inputs":[{"name":"account","type":"address","internalType":"address"}],"outputs":[{"name":"ownerAddresses","type":"bytes30[]","internalType":"bytes30[]"},{"name":"ownersData","type":"tuple[]","internalType":"struct OwnerData[]","components":[{"name":"weight","type":"uint256","internalType":"uint256"},{"name":"credType","type":"uint8","internalType":"enum CredentialType"},{"name":"addr","type":"address","internalType":"address"},{"name":"publicKeyX","type":"uint256","internalType":"uint256"},{"name":"publicKeyY","type":"uint256","internalType":"uint256"}]},{"name":"ownershipMetadata","type":"tuple","internalType":"struct OwnershipMetadata","components":[{"name":"numOwners","type":"uint256","internalType":"uint256"},{"name":"thresholdWeight","type":"uint256","internalType":"uint256"},{"name":"totalWeight","type":"uint256","internalType":"uint256"}]}],"stateMutability":"view"},{"type":"function","name":"pluginManifest","inputs":[],"outputs":[{"name":"","type":"tuple","internalType":"struct PluginManifest","components":[{"name":"interfaceIds","type":"bytes4[]","internalType":"bytes4[]"},{"name":"dependencyInterfaceIds","type":"bytes4[]","internalType":"bytes4[]"},{"name":"executionFunctions","type":"bytes4[]","internalType":"bytes4[]"},{"name":"permittedExecutionSelectors","type":"bytes4[]","internalType":"bytes4[]"},{"name":"permitAnyExternalAddress","type":"bool","internalType":"bool"},{"name":"canSpendNativeToken","type":"bool","internalType":"bool"},{"name":"permittedExternalCalls","type":"tuple[]","internalType":"struct ManifestExternalCallPermission[]","components":[{"name":"externalAddress","type":"address","internalType":"address"},{"name":"permitAnySelector","type":"bool","internalType":"bool"},{"name":"selectors","type":"bytes4[]","internalType":"bytes4[]"}]},{"name":"userOpValidationFunctions","type":"tuple[]","internalType":"struct ManifestAssociatedFunction[]","components":[{"name":"executionSelector","type":"bytes4","internalType":"bytes4"},{"name":"associatedFunction","type":"tuple","internalType":"struct ManifestFunction","components":[{"name":"functionType","type":"uint8","internalType":"enum ManifestAssociatedFunctionType"},{"name":"functionId","type":"uint8","internalType":"uint8"},{"name":"dependencyIndex","type":"uint256","internalType":"uint256"}]}]},{"name":"runtimeValidationFunctions","type":"tuple[]","internalType":"struct ManifestAssociatedFunction[]","components":[{"name":"executionSelector","type":"bytes4","internalType":"bytes4"},{"name":"associatedFunction","type":"tuple","internalType":"struct ManifestFunction","components":[{"name":"functionType","type":"uint8","internalType":"enum ManifestAssociatedFunctionType"},{"name":"functionId","type":"uint8","internalType":"uint8"},{"name":"dependencyIndex","type":"uint256","internalType":"uint256"}]}]},{"name":"preUserOpValidationHooks","type":"tuple[]","internalType":"struct ManifestAssociatedFunction[]","components":[{"name":"executionSelector","type":"bytes4","internalType":"bytes4"},{"name":"associatedFunction","type":"tuple","internalType":"struct ManifestFunction","components":[{"name":"functionType","type":"uint8","internalType":"enum ManifestAssociatedFunctionType"},{"name":"functionId","type":"uint8","internalType":"uint8"},{"name":"dependencyIndex","type":"uint256","internalType":"uint256"}]}]},{"name":"preRuntimeValidationHooks","type":"tuple[]","internalType":"struct ManifestAssociatedFunction[]","components":[{"name":"executionSelector","type":"bytes4","internalType":"bytes4"},{"name":"associatedFunction","type":"tuple","internalType":"struct ManifestFunction","components":[{"name":"functionType","type":"uint8","internalType":"enum ManifestAssociatedFunctionType"},{"name":"functionId","type":"uint8","internalType":"uint8"},{"name":"dependencyIndex","type":"uint256","internalType":"uint256"}]}]},{"name":"executionHooks","type":"tuple[]","internalType":"struct ManifestExecutionHook[]","components":[{"name":"selector","type":"bytes4","internalType":"bytes4"},{"name":"preExecHook","type":"tuple","internalType":"struct ManifestFunction","components":[{"name":"functionType","type":"uint8","internalType":"enum ManifestAssociatedFunctionType"},{"name":"functionId","type":"uint8","internalType":"uint8"},{"name":"dependencyIndex","type":"uint256","internalType":"uint256"}]},{"name":"postExecHook","type":"tuple","internalType":"struct ManifestFunction","components":[{"name":"functionType","type":"uint8","internalType":"enum ManifestAssociatedFunctionType"},{"name":"functionId","type":"uint8","internalType":"uint8"},{"name":"dependencyIndex","type":"uint256","internalType":"uint256"}]}]}]}],"stateMutability":"pure"},{"type":"function","name":"pluginMetadata","inputs":[],"outputs":[{"name":"","type":"tuple","internalType":"struct PluginMetadata","components":[{"name":"name","type":"string","internalType":"string"},{"name":"version","type":"string","internalType":"string"},{"name":"author","type":"string","internalType":"string"},{"name":"permissionDescriptors","type":"tuple[]","internalType":"struct SelectorPermission[]","components":[{"name":"functionSelector","type":"bytes4","internalType":"bytes4"},{"name":"permissionDescription","type":"string","internalType":"string"}]}]}],"stateMutability":"pure"},{"type":"function","name":"postExecutionHook","inputs":[{"name":"functionId","type":"uint8","internalType":"uint8"},{"name":"preExecHookData","type":"bytes","internalType":"bytes"}],"outputs":[],"stateMutability":"nonpayable"},{"type":"function","name":"preExecutionHook","inputs":[{"name":"functionId","type":"uint8","internalType":"uint8"},{"name":"sender","type":"address","internalType":"address"},{"name":"value","type":"uint256","internalType":"uint256"},{"name":"data","type":"bytes","internalType":"bytes"}],"outputs":[{"name":"context","type":"bytes","internalType":"bytes"}],"stateMutability":"nonpayable"},{"type":"function","name":"preRuntimeValidationHook","inputs":[{"name":"functionId","type":"uint8","internalType":"uint8"},{"name":"sender","type":"address","internalType":"address"},{"name":"value","type":"uint256","internalType":"uint256"},{"name":"data","type":"bytes","internalType":"bytes"}],"outputs":[],"stateMutability":"nonpayable"},{"type":"function","name":"preUserOpValidationHook","inputs":[{"name":"functionId","type":"uint8","internalType":"uint8"},{"name":"userOp","type":"tuple","internalType":"struct PackedUserOperation","components":[{"name":"sender","type":"address","internalType":"address"},{"name":"nonce","type":"uint256","internalType":"uint256"},{"name":"initCode","type":"bytes","internalType":"bytes"},{"name":"callData","type":"bytes","internalType":"bytes"},{"name":"accountGasLimits","type":"bytes32","internalType":"bytes32"},{"name":"preVerificationGas","type":"uint256","internalType":"uint256"},{"name":"gasFees","type":"bytes32","internalType":"bytes32"},{"name":"paymasterAndData","type":"bytes","internalType":"bytes"},{"name":"signature","type":"bytes","internalType":"bytes"}]},{"name":"userOpHash","type":"bytes32","internalType":"bytes32"}],"outputs":[{"name":"validationData","type":"uint256","internalType":"uint256"}],"stateMutability":"nonpayable"},{"type":"function","name":"removeOwners","inputs":[{"name":"ownersToRemove","type":"address[]","internalType":"address[]"},{"name":"publicKeyOwnersToRemove","type":"tuple[]","internalType":"struct PublicKey[]","components":[{"name":"x","type":"uint256","internalType":"uint256"},{"name":"y","type":"uint256","internalType":"uint256"}]},{"name":"newThresholdWeight","type":"uint256","internalType":"uint256"}],"outputs":[],"stateMutability":"nonpayable"},{"type":"function","name":"runtimeValidationFunction","inputs":[{"name":"functionId","type":"uint8","internalType":"uint8"},{"name":"sender","type":"address","internalType":"address"},{"name":"value","type":"uint256","internalType":"uint256"},{"name":"data","type":"bytes","internalType":"bytes"}],"outputs":[],"stateMutability":"nonpayable"},{"type":"function","name":"supportsInterface","inputs":[{"name":"interfaceId","type":"bytes4","internalType":"bytes4"}],"outputs":[{"name":"","type":"bool","internalType":"bool"}],"stateMutability":"view"},{"type":"function","name":"updateMultisigWeights","inputs":[{"name":"ownersToUpdate","type":"address[]","internalType":"address[]"},{"name":"newWeightsToUpdate","type":"uint256[]","internalType":"uint256[]"},{"name":"publicKeyOwnersToUpdate","type":"tuple[]","internalType":"struct PublicKey[]","components":[{"name":"x","type":"uint256","internalType":"uint256"},{"name":"y","type":"uint256","internalType":"uint256"}]},{"name":"pubicKeyNewWeightsToUpdate","type":"uint256[]","internalType":"uint256[]"},{"name":"newThresholdWeight","type":"uint256","internalType":"uint256"}],"outputs":[],"stateMutability":"nonpayable"},{"type":"function","name":"userOpValidationFunction","inputs":[{"name":"functionId","type":"uint8","internalType":"uint8"},{"name":"userOp","type":"tuple","internalType":"struct PackedUserOperation","components":[{"name":"sender","type":"address","internalType":"address"},{"name":"nonce","type":"uint256","internalType":"uint256"},{"name":"initCode","type":"bytes","internalType":"bytes"},{"name":"callData","type":"bytes","internalType":"bytes"},{"name":"accountGasLimits","type":"bytes32","internalType":"bytes32"},{"name":"preVerificationGas","type":"uint256","internalType":"uint256"},{"name":"gasFees","type":"bytes32","internalType":"bytes32"},{"name":"paymasterAndData","type":"bytes","internalType":"bytes"},{"name":"signature","type":"bytes","internalType":"bytes"}]},{"name":"userOpHash","type":"bytes32","internalType":"bytes32"}],"outputs":[{"name":"","type":"uint256","internalType":"uint256"}],"stateMutability":"view"},{"type":"event","name":"OwnersAdded","inputs":[{"name":"account","type":"address","indexed":true,"internalType":"address"},{"name":"owners","type":"bytes30[]","indexed":false,"internalType":"bytes30[]"},{"name":"weights","type":"tuple[]","indexed":false,"internalType":"struct OwnerData[]","components":[{"name":"weight","type":"uint256","internalType":"uint256"},{"name":"credType","type":"uint8","internalType":"enum CredentialType"},{"name":"addr","type":"address","internalType":"address"},{"name":"publicKeyX","type":"uint256","internalType":"uint256"},{"name":"publicKeyY","type":"uint256","internalType":"uint256"}]}],"anonymous":false},{"type":"event","name":"OwnersRemoved","inputs":[{"name":"account","type":"address","indexed":true,"internalType":"address"},{"name":"owners","type":"bytes30[]","indexed":false,"internalType":"bytes30[]"},{"name":"totalWeightRemoved","type":"uint256","indexed":false,"internalType":"uint256"}],"anonymous":false},{"type":"event","name":"OwnersUpdated","inputs":[{"name":"account","type":"address","indexed":true,"internalType":"address"},{"name":"owners","type":"bytes30[]","indexed":false,"internalType":"bytes30[]"},{"name":"weights","type":"tuple[]","indexed":false,"internalType":"struct OwnerData[]","components":[{"name":"weight","type":"uint256","internalType":"uint256"},{"name":"credType","type":"uint8","internalType":"enum CredentialType"},{"name":"addr","type":"address","internalType":"address"},{"name":"publicKeyX","type":"uint256","internalType":"uint256"},{"name":"publicKeyY","type":"uint256","internalType":"uint256"}]}],"anonymous":false},{"type":"event","name":"ThresholdUpdated","inputs":[{"name":"account","type":"address","indexed":true,"internalType":"address"},{"name":"oldThresholdWeight","type":"uint256","indexed":false,"internalType":"uint256"},{"name":"newThresholdWeight","type":"uint256","indexed":false,"internalType":"uint256"}],"anonymous":false},{"type":"error","name":"AlreadyInitialized","inputs":[]},{"type":"error","name":"ECDSAInvalidSignature","inputs":[]},{"type":"error","name":"ECDSAInvalidSignatureLength","inputs":[{"name":"length","type":"uint256","internalType":"uint256"}]},{"type":"error","name":"ECDSAInvalidSignatureS","inputs":[{"name":"s","type":"bytes32","internalType":"bytes32"}]},{"type":"error","name":"EmptyOwnersNotAllowed","inputs":[]},{"type":"error","name":"InvalidAddress","inputs":[]},{"type":"error","name":"InvalidContractSigLength","inputs":[]},{"type":"error","name":"InvalidMaxFeePerGas","inputs":[]},{"type":"error","name":"InvalidMaxPriorityFeePerGas","inputs":[]},{"type":"error","name":"InvalidNumSigsOnActualDigest","inputs":[{"name":"invalidNum","type":"uint256","internalType":"uint256"}]},{"type":"error","name":"InvalidOwner","inputs":[{"name":"owner","type":"bytes30","internalType":"bytes30"}]},{"type":"error","name":"InvalidPreVerificationGas","inputs":[]},{"type":"error","name":"InvalidPublicKey","inputs":[{"name":"x","type":"uint256","internalType":"uint256"},{"name":"y","type":"uint256","internalType":"uint256"}]},{"type":"error","name":"InvalidSigLength","inputs":[]},{"type":"error","name":"InvalidSigOffset","inputs":[]},{"type":"error","name":"InvalidThresholdWeight","inputs":[]},{"type":"error","name":"InvalidUserOpDigest","inputs":[]},{"type":"error","name":"InvalidWeight","inputs":[{"name":"owner","type":"bytes30","internalType":"bytes30"},{"name":"account","type":"address","internalType":"address"},{"name":"weight","type":"uint256","internalType":"uint256"}]},{"type":"error","name":"NotImplemented","inputs":[{"name":"selector","type":"bytes4","internalType":"bytes4"},{"name":"functionId","type":"uint8","internalType":"uint8"}]},{"type":"error","name":"NotInitialized","inputs":[]},{"type":"error","name":"OwnerDoesNotExist","inputs":[{"name":"owner","type":"bytes30","internalType":"bytes30"}]},{"type":"error","name":"OwnersWeightsMismatch","inputs":[]},{"type":"error","name":"ThresholdWeightExceedsTotalWeight","inputs":[{"name":"thresholdWeight","type":"uint256","internalType":"uint256"},{"name":"totalWeight","type":"uint256","internalType":"uint256"}]},{"type":"error","name":"TooManyOwners","inputs":[{"name":"currentNumOwners","type":"uint256","internalType":"uint256"},{"name":"numOwnersToAdd","type":"uint256","internalType":"uint256"}]},{"type":"error","name":"UnsupportedSigType","inputs":[{"name":"sigType","type":"uint8","internalType":"uint8"}]},{"type":"error","name":"ZeroOwnersInputNotAllowed","inputs":[]}],"bytecode":{"object":"0x60a0346200007757601f62004d0f38819003918201601f19168301916001600160401b038311848410176200007c578084926020946040528339810103126200007757516001600160a01b03811681036200007757608052604051614c7c9081620000938239608051818181611a7e01526135630152f35b600080fd5b634e487b7160e01b600052604160045260246000fdfe6080604052600436101561001257600080fd5b60003560e01c806301ffc9a71461018d5780630b96422d146101885780630bb42b8b146101835780630c7ecd84146101425780630cdc271f1461017e5780631128186d14610179578063118a53891461017457806315b76b841461016f5780631626ba7e1461016a57806346d60eb2146101425780636bbefc89146101655780636d61fe701461016057806371af817b1461015b57806377102c3514610156578063852b67af14610151578063858e6ee41461014c5780638a91b0e314610147578063bfd151c114610142578063c4db8dd91461013d578063c776313014610138578063c8050ee414610133578063e8eb3cc61461012e578063ef4a7203146101295763f582bceb1461012457600080fd5b611ade565b611aad565b611a68565b611a28565b611618565b61134a565b610663565b6111da565b611171565b61108d565b61105e565b610e33565b610cda565b610bd7565b610a37565b610a29565b6108df565b610784565b6106fb565b610598565b610262565b346101fd5760203660031901126101fd5760043563ffffffff60e01b81168091036101fd5760209063c85bdd1360e01b81149081156101d2575b506040519015158152f35b63043140ed60e01b8114915081156101ec575b50386101c7565b6301ffc9a760e01b149050386101e5565b600080fd5b9181601f840112156101fd578235916001600160401b0383116101fd576020808501948460051b0101116101fd57565b9181601f840112156101fd578235916001600160401b0383116101fd576020808501948460061b0101116101fd57565b346101fd5760603660031901126101fd576001600160401b036004358181116101fd57610293903690600401610202565b916024359081116101fd576102ac903690600401610232565b926102b6336135ab565b6103a3576102d1926102c9913691611b36565b923691611b8c565b81519181519182840180851161039e576102ed909492946127c4565b9360009283915b818310610354575050506000915b838310610317576103156044358661281f565b005b61034c60019161034761033361032d8787612289565b51613335565b61033d838a612289565b9061ffff19169052565b611cdc565b920191610302565b91939091906001906103959061034761038b6001600160a01b036103788a88612289565b511660101b62010000600160b01b031690565b61033d838c612289565b940191906102f4565b611c4e565b6040516321c4e35760e21b8152600490fd5b634e487b7160e01b600052604160045260246000fd5b608081019081106001600160401b038211176103e657604052565b6103b5565b604081019081106001600160401b038211176103e657604052565b606081019081106001600160401b038211176103e657604052565b60a081019081106001600160401b038211176103e657604052565b61012081019081106001600160401b038211176103e657604052565b90601f801991011681019081106001600160401b038211176103e657604052565b60405190610486826103eb565b565b6040519061048682610406565b60405190610486826103cb565b602435906001600160a01b03821682036101fd57565b600435906001600160a01b03821682036101fd57565b35906001600160a01b03821682036101fd57565b6001600160401b0381116103e657601f01601f191660200190565b929192610509826104e2565b916105176040519384610458565b8294818452818301116101fd578281602093846000960137010152565b9080601f830112156101fd5781602061054f933591016104fd565b90565b634e487b7160e01b600052602160045260246000fd5b6005111561057257565b610552565b604091949392606082019515158252602082015261059483610568565b0152565b346101fd576003196020368201126101fd576004356001600160401b03918282116101fd5760809082360301126101fd576040516105d5816103cb565b81600401358152602482013560208201526105f2604483016104ce565b604082015260648201359283116101fd576106196106239260046106329536920101610534565b6060820152611ceb565b60409391935193849384610577565b0390f35b9181601f840112156101fd578235916001600160401b0383116101fd57602083818601950101116101fd57565b346101fd5760803660031901126101fd5760043560ff811681036101fd576024356001600160a01b038116036101fd576064356001600160401b0381116101fd576106b2903690600401610636565b5050612044565b9060028210156105725752565b91926106e4608094979695929760a0850198855260208501906106b9565b6001600160a01b0316604083015260608201520152565b346101fd5760403660031901126101fd5760043561ffff1981168091036101fd5761074d906107286104a2565b90600052600160205260406000209060018060a01b0316600052602052604060002090565b80546001820154600283015460039093015460405193849361063293600881901c6001600160a01b03169160ff90911690866106c6565b346101fd5760403660031901126101fd5760043560ff811681036101fd576024356001600160401b0381116101fd576106b2903690600401610636565b60005b8381106107d45750506000910152565b81810151838201526020016107c4565b906020916107fd815180928185528580860191016107c1565b601f01601f1916010190565b90602090818352610825815160808486015260a08501906107e4565b918082015191606061085c610849601f1996604096888a83030160408b01526107e4565b60408401518789830301848a01526107e4565b91015194608085828403019101528451928382528282019083808660051b8501019701956000935b86851061089657505050505050505090565b909192939495969786806108cd8387838e898960019903018c525163ffffffff60e01b8151168452015191818582015201906107e4565b9a019501950193969594929190610884565b346101fd5760003660031901126101fd576108f8612073565b50610632610904612073565b61090c6120ba565b81526109166120fd565b602082015261092361211e565b60408201526109d8610933612157565b6060830190815261096f6109456121a8565b61094d610479565b63852b67af60e01b8152906020820152825190610969826121e4565b526121e4565b506109a561097b61229d565b610983610479565b6371af817b60e01b815290602082015282519061099f826121f6565b526121f6565b506109ae6122d6565b906109b7610479565b630b96422d60e01b815291602083015251906109d282612206565b52612206565b5060405191829182610809565b906003196060818401126101fd5760043560ff811681036101fd5792602435916001600160401b0383116101fd5782610120920301126101fd576004019060443590565b346101fd576106b2366109e5565b346101fd5760403660031901126101fd576024356001600160401b0381116101fd57610a6a610a9c913690600401610534565b610a76600435336123ca565b9060405191610a84836103cb565b80835260208301523360408301526060820152611ceb565b505015610aca57610632630b135d3f60e11b5b6040516001600160e01b031990911681529081906020820190565b6106326001600160e01b0319610aaf565b90815180825260208080930193019160005b828110610afb575050505090565b835161ffff191685529381019392810192600101610aed565b6080809180518452610b2e602082015160208601906106b9565b6040818101516001600160a01b031690850152606080820151908501520151910152565b90815180825260208080930193019160005b828110610b72575050505090565b909192938260a082610b876001948951610b14565b01950193929101610b64565b91610bbf604091610bb160809497969760a0875260a0870190610adb565b908582036020870152610b52565b94805182850152602081015160608501520151910152565b346101fd576020806003193601126101fd57610bf16104b8565b610bf96122ff565b50610c0b610c0682612ea1565b612f50565b90610c168251612f92565b9260005b8351811015610c7e5760019061ffff19610c348287612289565b5116600090815282845260408082206001600160a01b03871683526020529020610c6290612a2c565b612a2c565b610c6c8288612289565b52610c778187612289565b5001610c1a565b505060018060a01b03166000526002602052610632610ca0604060002061231e565b60405193849384610b93565b60206003198201126101fd57600435906001600160401b0382116101fd57610cd691600401610636565b9091565b346101fd57610ce836610cac565b610cf1336135ab565b15610d9e5781019060a0818303126101fd576001600160401b0381358181116101fd57820183601f820112156101fd5783816020610d3193359101611b36565b9260208301358281116101fd5781610d4a918501612394565b9360408401358381116101fd5782610d639186016123af565b60608501359384116101fd5761031595610d84610d93946080968801612394565b92610d8e83612fe2565b613061565b919092013591613229565b60405162dc149f60e41b8152600490fd5b60a06003198201126101fd576001600160401b03906004358281116101fd5781610ddb91600401610202565b939093926024358181116101fd5783610df691600401610202565b939093926044358381116101fd5782610e1191600401610232565b939093926064359182116101fd57610e2b91600401610202565b909160843590565b346101fd57610e4136610daf565b97969094959293610e51336135ab565b6103a357610e76610e8694610e6e610e8c9a610e7e953691611b36565b983691612346565b943691611b8c565b933691612346565b92613061565b81929151918151830361104c576000808415159283610f1e575b3360009081526002602052604090209495509293610ee09390610ed89093610ed360028601948554611cbc565b612812565b8092556135f0565b610ee657005b610f197f3b86bcc79bcf940dd733e98d88a2fb3d56cb59eab03971578162d018d2682a2d91604051918291339583613204565b0390a2005b60005b868110610f2e5750610ea6565b91610f7833610f61610f4c610f43878d612289565b5161ffff191690565b61ffff19166000526001602052604060002090565b9060018060a01b0316600052602052604060002090565b54610f838488612289565b5151811561101557878a82841015610fd1579260019492610ed3610fc393610fbb8a610fb5610f4382610fc99b612289565b92612289565b515190613d24565b90611cbc565b925b01610f21565b8284939497959711610fea575b50505050600190610fcb565b92849792610ed3610fc393610fbb88610fb5610f4360019b61100b9b612289565b939038878a610fde565b611048611025610f43878d612289565b604051632dfb424360e21b815261ffff1990911660048201529081906024820190565b0390fd5b604051630210e39560e61b8152600490fd5b346101fd5760403660031901126101fd57602061108561107c6104b8565b602435906123ca565b604051908152f35b346101fd5761109b36610daf565b979690949592936110ab336135ab565b6103a357610e76610e8694610e6e6110db9a610e7e956110d46110cf368c89611b8c565b612fe2565b3691611b36565b9190913360005260026020526040600020906110f982548286613c5d565b90926002810191825490810180911161039e57815494850180951161039e577f6bcc79f3790a680c839a139da8da45daa854ba5d3ec308ec1ec89d3f12bb3f17958161114b94610f19978555556135f0565b604051918291339583613204565b901515815260c0810192916104869160200190610b14565b346101fd5760603660031901126101fd5761118a6104b8565b60403660231901126101fd576111ca906111c46040516111a9816103eb565b602435815260443560208201526111be6124e9565b50613335565b906133a2565b9061063260405192839283611159565b346101fd576111e836610cac565b50506111f6610c0633612ea1565b6000903382526002602052600190600160408420015491611236336040519060018060a01b03168152637c9c64bb60e11b60208201526000604082015290565b9060608201600180835b611304575b87878761128f611253610488565b84815260208082018690526040808301879052336000908152600290925290205b90604060029180518455602081015160018501550151910155565b7fe81e1ec357e3c9a743825f13a44b813d8805d072a92c4477fcf36ce0dceba5826112ca6112bc8361342d565b604051918291339583612514565b0390a2604080519182526000602083015233917f249fd5fdc7ce39ccac456eaa5ab294c64fb6f518db9555154897318aaa308b4f9190a280f35b839115611325575b87908352608085208861fffe1982541691559091611240565b9081161580611341575b1561133b57829061130c565b80611245565b5080151561132f565b346101fd57602061108561135d366109e5565b91612562565b90815180825260208080930193019160005b828110611383575050505090565b83516001600160e01b03191685529381019392810192600101611375565b908082519081815260208091019281808460051b8301019501936000915b8483106113cf5750505050505090565b9091929394958480611413600193601f198682030187528a5190606090868060a01b0383511681528483015115158582015281604080940151938201520190611363565b98019301930191949392906113bf565b60408091805161143281610568565b845260ff60208201511660208501520151910152565b90815180825260208080930193019160005b828110611468575050505090565b9091929382608060019261149083895163ffffffff60e01b8151168452015184830190611423565b0195019392910161145a565b90815180825260208080930193019160005b8281106114bc575050505090565b909192938260e06001926114f56040895163ffffffff851b81511684526114e98682015187860190611423565b01516080830190611423565b019501939291016114ae565b9061054f9160208152815190611525610180928360208401526101a0830190611363565b9161159f61157361155f61154b602088015196601f199788888303016040890152611363565b604088015187878303016060880152611363565b606087015186868303016080870152611363565b6080860151151560a085015260a0860151151560c085015260c0860151858583030160e08601526113a1565b6116086115f16115da6115c360e089015194610100958989830301878a0152611448565b938801519361012094888883030186890152611448565b928701519261014093878783030185880152611448565b918601519161016092868683030184870152611448565b940151928285030191015261149c565b346101fd57600080600319360112611a255761063290611636612669565b50611a18611642612669565b916116cd6116c16116516126d5565b61167061166460408801928084526121e4565b63852b67af60e01b9052565b61168961167d82516121f6565b630b96422d60e01b9052565b6116a26116968251612206565b6371af817b60e01b9052565b6116bb6116af8251612216565b630b135d3f60e11b9052565b51612226565b6377102c3560e01b9052565b6116d5610488565b600181529061184b60209282848201528260408201526116f3612700565b60e08701908152611720611705610479565b63852b67af60e01b81528387820152825190610969826121e4565b5061174761172c610479565b630b96422d60e01b8152838782015282519061099f826121f6565b5061176e611753610479565b6371af817b60e01b815283878201528251906109d282612206565b5061179b61177a610479565b635b0e93fb60e11b8152838782015282519061179582612216565b52612216565b506117c86117a7610479565b631a7e6adf60e11b815283878201528251906117c282612226565b52612226565b506117f56117d4610479565b633e15cc3d60e21b815283878201528251906117ef82612236565b52612236565b50611822611801610479565b63c1a221f360e01b8152838782015282519061181c82612246565b52612246565b5061182b610479565b63278f794360e11b81529185830152519061184582612256565b52612256565b50611854610488565b6003815290808383015280604083015261186c610488565b6001815290808483015260408201526118d9611886612762565b9261010087019384526118b561189a610479565b630b135d3f60e11b81528287820152855190610969826121e4565b506118be610479565b6377102c3560e01b8152908582015283519061099f826121f6565b506119006118e5610479565b63852b67af60e01b815282858201528351906109d282612206565b5061192761190c610479565b630b96422d60e01b8152828582015283519061179582612216565b5061194e611933610479565b6371af817b60e01b815282858201528351906117c282612226565b5061197561195a610479565b635b0e93fb60e11b815282858201528351906117ef82612236565b5061199c611981610479565b631a7e6adf60e11b8152828582015283519061181c82612246565b506119c36119a8610479565b633e15cc3d60e21b8152828582015283519061184582612256565b506119f06119cf610479565b63c1a221f360e01b815282858201528351906119ea82612267565b52612267565b506119f9610479565b63278f794360e11b8152928301525190611a1282612278565b52612278565b5060405191829182611501565b80fd5b346101fd5760403660031901126101fd576020611a5b604051611a4a816103eb565b600435815260243583820152613335565b6040519061ffff19168152f35b346101fd5760003660031901126101fd576040517f00000000000000000000000000000000000000000000000000000000000000006001600160a01b03168152602090f35b346101fd5760203660031901126101fd57602062010000600160b01b03611ad26104b8565b60101b16604051908152f35b346101fd5760403660031901126101fd576111ca611afa6104b8565b611b026104a2565b611b0a6124e9565b5060101b62010000600160b01b0316906133a2565b6001600160401b0381116103e65760051b60200190565b9291611b4182611b1f565b91611b4f6040519384610458565b829481845260208094019160051b81019283116101fd57905b828210611b755750505050565b838091611b81846104ce565b815201910190611b68565b929192611b9882611b1f565b604092611ba86040519283610458565b819581835260208093019160061b8401938185116101fd57915b848310611bd157505050505050565b85838303126101fd578386918251611be8816103eb565b853581528286013583820152815201920191611bc2565b6040519061010082018281106001600160401b038211176103e6576040528160e06000918281528260208201528260408201528260608201528260808201528260a08201528260c08201520152565b634e487b7160e01b600052601160045260246000fd5b9060418202918083046041149015171561039e57565b600281901b91906001600160fe1b0381160361039e57565b906041820180921161039e57565b906015820180921161039e57565b906002820180921161039e57565b9190820180921161039e57565b60ff601f199116019060ff821161039e57565b600019811461039e5760010190565b90604160608301515110612032576040828101516001600160a01b031660009081526002602052206001015491821561202057611d26611bff565b926000918290839281516020830151141560001461201657929160ff60015b600160608a0152169460e08801525b838110611da0575050505080611d865750606082015115159060e0608084015193015191611d8183610568565b929190565b604051631007539160e31b81526004810191909152602490fd5b611db1611dac84611c64565b611c92565b875190811515918261200c575b508115611ffd575b50611fcd5782611df081606085015190604102016020810151906060604082015191015160001a92565b60c08b015260a08a015280602060ff821610611fc15750611e12845191611cc9565b9660001901965b60ff811680611f5057505091611e37611eb292611ed294868c612d4f565b604089015161ffff191660208a0151611e589061ffff19165b61ffff191690565b9061ffff191690811190811591611f01575b50611ed8575b611eab611e86610f4c60408c015161ffff191690565b60408601516001600160a01b03165b60018060a01b0316600052602052604060002090565b5490611cbc565b92610347611ec660408a015161ffff191690565b61ffff191660208a0152565b91611d54565b606089015115611e70578460808a0152600060608a0152611efc60e08a0160029052565b611e70565b60408681015181516001600160a01b039091168152637c9c64bb60e11b602082015260009181019190915261ffff199190911660608201526080902054159050611f4a565b1590565b38611e6a565b60028103611f7257505091611f6d611eb292611ed294868c612bf4565b611e37565b909250601b8114908115611fb6575b5015611f9b5791611f6d611eb29286611ed295878d61297b565b6040516353b8620160e11b815260ff83166004820152602490fd5b601c91501438611f81565b60208501519150611e19565b505093915050611fe06060820151151590565b15611fef575060009190600190565b608001516000925090600190565b90506060830151511038611dc6565b8111915038611dbe565b929160ff85611d45565b60405163d349279d60e01b8152600490fd5b60405163d245329360e01b8152600490fd5b6040516384b9b37960e01b81526001600160e01b031960003516600482015260ff919091166024820152604490fd5b60405190612080826103cb565b606080838181528160208201528160408201520152565b60405190602082018281106001600160401b038211176103e65760405260008252565b604051906120c782610406565b60218252603760f91b6040837f5765696768746564204d756c746973696720576562617574686e20506c75676960208201520152565b6040519061210a826103eb565b60058252640312e302e360dc1b6020830152565b6040519061212b826103eb565b601982527f436972636c6520496e7465726e65742046696e616e6369616c000000000000006020830152565b60409060405191612167836103cb565b60038352829160009160005b60608082101561219f5782516020929161218c826103eb565b8682528382015287820183015201612173565b50505091925050565b604051906121b5826103eb565b600a825269416464204f776e65727360b01b6020830152565b634e487b7160e01b600052603260045260246000fd5b8051156121f15760200190565b6121ce565b8051600110156121f15760400190565b8051600210156121f15760600190565b8051600310156121f15760800190565b8051600410156121f15760a00190565b8051600510156121f15760c00190565b8051600610156121f15760e00190565b8051600710156121f1576101000190565b8051600810156121f1576101200190565b8051600910156121f1576101400190565b80518210156121f15760209160051b010190565b604051906122aa826103eb565b601782527f557064617465204d756c746973696720576569676874730000000000000000006020830152565b604051906122e3826103eb565b600d82526c52656d6f7665204f776e65727360981b6020830152565b6040519061230c82610406565b60006040838281528260208201520152565b9060405161232b81610406565b60406002829480548452600181015460208501520154910152565b929161235182611b1f565b9161235f6040519384610458565b829481845260208094019160051b81019283116101fd57905b8282106123855750505050565b81358152908301908301612378565b9080601f830112156101fd5781602061054f93359101612346565b9080601f830112156101fd5781602061054f93359101611b8c565b9060405160208101927fd87cd6ef79d4e2b95e15ce8abf732db51ec771f1ca2edccf22a46c729ac5647284527fbb3dcb6be63dc1bed586f19f310ff9be992f42a915600fdf31872f5f02d4e70560408301527f06c015bd22b4c69690933c1058878ebdfef31f9aaae40bbe86d8a09fe1b2972c60608301524660808301523060a08301526bffffffffffffffffffffffff199060601b1660c082015260c0815260e081018181106001600160401b038211176103e65761054f938160405282519020926101206101008401937f7dc7da30a002512936154da01baa79a3d1e54e35034ffdfa7c53c28b3091236d85520152604081526124c881610406565b519020906042916040519161190160f01b8352600283015260228201522090565b604051906124f682610421565b60006080838281528260208201528260408201528260608201520152565b92919061252b602091604086526040860190610adb565b930152565b903590601e19813603018212156101fd57018035906001600160401b0382116101fd576020019181360383136101fd57565b9160ff831615612599576040516384b9b37960e01b81526001600160e01b031960003516600482015260ff84166024820152604490fd5b6125ce9192507f19457468657265756d205369676e6564204d6573736167653a0a333200000000600052601c52603c60002090565b6126096125da836134b4565b7f19457468657265756d205369676e6564204d6573736167653a0a333200000000600052601c52603c60002090565b91828214612657576126469261262782610100610619940190612530565b9091612631610495565b948552602085015233604085015236916104fd565b50501561265257600090565b600190565b604051635b019f7d60e11b8152600490fd5b6040519061018082018281106001600160401b038211176103e65760405281610160606091828152826020820152826040820152828082015260006080820152600060a08201528260c08201528260e08201528261010082015282610120820152826101408201520152565b6040519060c082018281106001600160401b038211176103e6576040526005825260a0366020840137565b6040906040519161012083018381106001600160401b038211176103e65760405260088352600083815b61010081106127395750505050565b6020908451612747816103eb565b848152826127536122ff565b8183015282850101520161272a565b6040906040519161016083018381106001600160401b038211176103e657604052600a8352600083815b610140811061279b5750505050565b60209084516127a9816103eb565b848152826127b56122ff565b8183015282850101520161278c565b906127ce82611b1f565b6127db6040519182610458565b82815280926127ec601f1991611b1f565b0190602036910137565b90600080516020614c0783398151915291820391821161039e57565b9190820391821161039e57565b919082519182156129695733600052600260205260409060406000208054948086111561295757600094855b88518710156129055761287b611f4661287561ffff1961286b8b8e612289565b511661ffff191690565b33613d8b565b6128d25761289a600191611eab8b610f61610f4c610f438d3394612289565b966128cb6128b38b610f61610f4c610f43863394612289565b60036000918281558260018201558260028201550155565b019561284b565b611048866128e3610f438a8d612289565b9051633af2c11760e11b815261ffff1990911660048201529081906024820190565b9397967fe81e1ec357e3c9a743825f13a44b813d8805d072a92c4477fcf36ce0dceba5829650612952955090610ed8856112bc95949361294b6002870195865492612812565b8655612812565b0390a2565b604051639aa6ffc360e01b8152600490fd5b60405163114ab5ed60e11b8152600490fd5b92936129a091926129979160a08601519060c087015192613e64565b90929192613ef2565b60016129f7818060a01b0392836040816129db620100008760b01b038560101b1680848c015261ffff19166000526001602052604060002090565b93169601511660018060a01b0316600052602052604060002090565b015460081c1603612a06575050565b60608101908151612a1657505050565b600060e092610486946080840152520160049052565b90604051612a3981610421565b80928054825260018101549060ff821690600282101561057257608092600392602086015260018060a01b039060081c166040850152600281015460608501520154910152565b60405190612a8d82610406565b60006040838151612a9d81610421565b6060815260606020820152838382015283606082015283608082015281528260208201520152565b90929192612ad2816104e2565b91612ae06040519384610458565b8294828452828201116101fd5760206104869301906107c1565b9080601f830112156101fd57815161054f92602001612ac5565b519081151582036101fd57565b60209081818403126101fd5780516001600160401b03918282116101fd57016060818503126101fd57604092835194612b5986610406565b82518481116101fd5783019360a0858303126101fd57855191612b7b83610421565b85518281116101fd57860181601f820112156101fd57818186612ba093519101612ac5565b8352838601519182116101fd5785612bc0608092612bdc948a9901612afa565b8585015286810151878501526060810151606085015201612b14565b60808201528552808201519085015201519082015290565b60a081015190929060101b61ffff191690612c38610c5d612c26610f4c604095610f43878a0191829061ffff19169052565b858501516001600160a01b0316611e95565b916080606084015193015193612c4c612a80565b50606060c0870151910180515182118015612d45575b612d345781815101916020830191612c7e602084510183611cbc565b90515110612d235792612ce1612cbf612cd3948380612cf29b9996611f469b998e8051808310908115612d1a575b50612d12575b5050518301019101612b21565b928251948591602083019190602083019252565b03601f198101855284610458565b81519060208301519201519261377e565b612cfa575050565b6060810190612d098251151590565b612a1657505050565b52388e612cb2565b90501538612cac565b835163d245329360e01b8152600490fd5b8251635a3cc6f560e01b8152600490fd5b5060418210612c62565b60a081015190926001600160a01b03808316939290848211612e8f5760109190911b62010000600160b01b031660408601908152849190612dc290600190612db190612d9e90610f4c90610f43565b60408801516001600160a01b0316611e95565b015460081c6001600160a01b031690565b1603612e61575b606060c085015192019081515183118015612e57575b612e45576020838351010191612df9602084510185611cbc565b90515110612e3357612cf293611f46938651808210908115612e2a575b50612e22575b506139aa565b865238612e1c565b90501538612e16565b604051633b28c31760e01b8152600490fd5b604051635a3cc6f560e01b8152600490fd5b5060418310612ddf565b606084018051612e72575b50612dc9565b60009086608087015252612e8960e0850160039052565b38612e6c565b60405163e6c4247b60e01b8152600490fd5b604080516001600160a01b039092168252637c9c64bb60e11b6020830152600090820152600160608201526080812060009283929091546040519260809060808501965b6001908185161580612f47575b15612f2c5761fffe1985169101600581901b870184018290529360021615612f24576060850152608084205492612ee5565b508592612ee5565b95935050945050608091506001830160051b01016040528252565b50841515612ef2565b908151612f5c816127c4565b9060005b818110612f6e575090925050565b60019061ffff19612f7f8288612289565b5116612f8b8286612289565b5201612f60565b90612f9c82611b1f565b612fa96040519182610458565b8281528092612fba601f1991611b1f565b019060005b828110612fcb57505050565b602090612fd66124e9565b82828501015201612fbf565b9060005b825181101561305c57612ff98184612289565b51516130156020918261300c8588612289565b51015190613a25565b156130235750600101612fe6565b61303a82613032869485612289565b515193612289565b510151604051632989640f60e21b815260048101929092526024820152604490fd5b509050565b9290939193835194805192825187148015906131f9575b61104c576130898488979498611cbc565b9661309c613096896127c4565b98612f92565b9660009485925b898b848610613151575050505050506000925b8484106130c4575050505050565b6131496001916130e46130da61032d8888612289565b61033d838d612289565b6130ee8685612289565b516130f9828b612289565b5152602060008161310a848d612289565b5101526131178787612289565b51516060613125848d612289565b5101526131328787612289565b5101516080613141838c612289565b510152611cdc565b9301926130b6565b976103476131ef9260406131de846131d86131868c9f9c6131a48c9d9e61033d8660019e9f61319361318687610fb593612289565b516001600160a01b031690565b60101b62010000600160b01b031690565b6131ae818d612289565b516131b98589612289565b51526131d260206131ca868a612289565b510160019052565b8c612289565b93612289565b516001600160a01b03909216910152565b96019291906130a3565b508051841415613078565b909161321b61054f93604084526040840190610adb565b916020818403910152610b52565b9192831561202057600093845b835186101561325f576132498685612289565b5151810180911161039e57600190950194613236565b909392919450838110613315578161114b6132d69261329f7f6bcc79f3790a680c839a139da8da45daa854ba5d3ec308ec1ec89d3f12bb3f179587613b23565b50508551906132ac610488565b91825287602083015260408201526112743360018060a01b03166000526002602052604060002090565b0390a27f249fd5fdc7ce39ccac456eaa5ab294c64fb6f518db9555154897318aaa308b4f60405180612952339482919060206040840193600081520152565b604051632cdc99e960e21b81526000600482015260248101859052604490fd5b602081519101518115801590613399575b1561337a5760408051602081019384528082019290925281529061336b606083610458565b9051902060101b61ffff191690565b604051632989640f60e21b815260048101929092526024820152604490fd5b50801515613346565b9190916133ad6124e9565b604080516001600160a01b0384168152637c9c64bb60e11b602082015260009181019190915261ffff19909416606085018190526080909420549093901561342557613419929350600052600160205260406000209060018060a01b0316600052602052604060002090565b9061054f600192612a2c565b505060009190565b6000919082805b82518210156134ae5761ffff19918261344d8286612289565b511686526001602081815260408089203360009081529083528190209294919254820180921161039e576001946134a7936128b3939761348d878b612289565b51168b525288203360009081526020919091526040902090565b0190613434565b93505050565b6040906134c382820182612530565b90818451918237206134d86060830183612530565b908185519182372083519160208084019460018060a01b03813516865201358584015260608301526080820152600060a0820152600060c0820152600060e08201526101007fc5d2460186f7233c927e7db2dcc703c0e500b653ca82273b7bfad8045d85a47081830152815261354d8161043c565b5190209051602081019182526001600160a01b037f00000000000000000000000000000000000000000000000000000000000000001660408201524660608201526135a581608081015b03601f198101835282610458565b51902090565b604080516001600160a01b039092168252637c9c64bb60e11b602083015260009082015260016060820152608090205480159081156135e8575090565b600191501690565b600190920180549291821561366e5782811061364d575082820361361357505050565b81905560408051928352602083019190915233917f249fd5fdc7ce39ccac456eaa5ab294c64fb6f518db9555154897318aaa308b4f9190a2565b604051632cdc99e960e21b8152600481018490526024810191909152604490fd5b9291505080821061367d575050565b604051632cdc99e960e21b815260048101919091526024810191909152604490fd5b906136b2602092828151948592016107c1565b0190565b90610486602e60405180946c1131b430b63632b733b2911d1160991b60208301526136eb815180926020602d860191016107c1565b8101601160f91b602d82015203600e810185520183610458565b8051602010156121f15760400190565b6040513d6000823e3d90fd5b60209291906137378492828151948592016107c1565b019081520190565b3d1561376a573d90613750826104e2565b9161375e6040519384610458565b82523d6000602084013e565b606090565b908160209103126101fd575190565b94939291907f7fffffff800000007fffffffffffffffde737d56d38bcf4279dce5617e3192a8831161399f57602095868201907fff1a2a9176d650e4a99dedb58f1793003935130579fe17b5a3f698ac5b00e6346137eb835160608601516137e581611ca0565b91613f7f565b898151910120036139925761380b61381091613805614002565b90614212565b6136b6565b613825825160408501516137e5845182611cbc565b888151910120908881519101200361396a57600160f81b8061385861384a8551613705565b516001600160f81b03191690565b160361396a576080820151151580613976575b61396a575186604051918280613884600095869461369f565b039060025afa156139655786816138c9815194516138a9604051968792868401613721565b03946138bd601f1996878101835282610458565b6040519182809261369f565b039060025afa15613965578051604080518981018381526020810187905291820187905260608201889052608082018990529193839290613915908260a0850103908101835282610458565b51906101005afa9561392561373f565b908151978061395c575b61393f57505061054f9550614061565b600197613958975082018101955001925061376f915050565b1490565b5087151561392f565b613715565b50505050505050600090565b50600160fa1b8061398a61384a8551613705565b16141561386b565b5050505050505050600090565b505050505050600090565b600091929082916040516139e2816135976020820194630b135d3f60e11b998a875260248401526040604484015260648301906107e4565b51915afa906139ef61373f565b82613a17575b826139ff57505090565b9091506020818051810103126101fd57602001511490565b9150602082511015916139f5565b600160601b63ffffffff60c01b031990818110801590613abc575b8015613aab575b613aa3577f5ac635d8aa3a93e7b3ebbd55769886bc651d06b0cc53b0f63bce3c3e27d2604b828281807fffffffff00000001000000000000000000000000fffffffffffffffffffffffc81960991818180090908089180091490565b505050600090565b5080158015613a4757508215613a47565b5081831015613a40565b90805182556001820190602081015190600282101561057257826080926003945460ff610100600160a81b03604086015160081b169216906affffffffffffffffffffff60a81b1617179055606081015160028501550151910155565b91908251906000938215612969578282510361104c576103e88311613c3d57906000915b838310613b55575050509190565b909194613b74611f46613b6e611e50610f438a87612289565b3361415b565b613c2d57613b828684612289565b5151158015613c16575b613bd857613bcf600191613bbd613ba38987612289565b51613bb833610f61610f4c610f438e8b612289565b613ac6565b613bc78886612289565b515190611cbc565b95019190613b47565b5084610fb5610f4382613bea94612289565b5151604051634d7f725b60e11b815261ffff199290921660048301523360248301526044820152606490fd5b50620f4240613c258785612289565b515111613b8c565b611048611025610f438885612289565b604051632103b34b60e11b81526000600482015260248101849052604490fd5b909291928151916000948315612969578383510361104c576103e8613c828583611cbc565b11613d035750906000915b838310613c9b575050509190565b909194613cb4611f46613b6e611e50610f438a87612289565b613c2d57613cc28684612289565b5151158015613cec575b613bd857613ce3600191613bbd613ba38987612289565b95019190613c8d565b50620f4240613cfb8785612289565b515111613ccc565b604051632103b34b60e11b8152600481019190915260248101849052604490fd5b81158015613d7f575b613d525761ffff19166000908152600160209081526040808320338452909152902055565b604051634d7f725b60e11b815261ffff199190911660048201523360248201526044810191909152606490fd5b50620f42408211613d2d565b604080516001600160a01b039092168252637c9c64bb60e11b602083015260009082015261ffff1990911691906060810183905260808120805484158015613e5c575b613e53576001600060015b15613e27575b50606084015260808320805460009161fffe198083169190898314613e0657505091613dd9565b9294809498995060029196975061fffc925016931691161717905555600190565b60018116159081613e49575b5015613e3f5738613ddf565b5060009450505050565b9050151538613e33565b50600093505050565b508015613dce565b91907f7fffffffffffffffffffffffffffffff5d576e7357a4501ddfe92f46681b20a08411613edc57926020929160ff608095604051948552168484015260408301526060820152600092839182805260015afa156139655780516001600160a01b03811615613ed357918190565b50809160019190565b50505060009160039190565b6004111561057257565b613efb81613ee8565b80613f04575050565b613f0d81613ee8565b60018103613f275760405163f645eedf60e01b8152600490fd5b613f3081613ee8565b60028103613f515760405163fce698f760e01b815260048101839052602490fd5b80613f5d600392613ee8565b14613f655750565b6040516335e2f38360e21b81526004810191909152602490fd5b805160609493929083811115613ffa575b81811115613ff2575b50828110613fa657505050565b60405192819003808452929450601f19929183910181601f840181165b808301518189015201908115613fdb57908290613fc3565b505060008583016020015250603f01168201604052565b905038613f99565b925082613f90565b6040519061400f82610406565b604082527f6768696a6b6c6d6e6f707172737475767778797a303132333435363738392d5f6040837f4142434445464748494a4b4c4d4e4f505152535455565758595a61626364656660208201520152565b939190929383158015614143575b801561413b575b8015614123575b6141195761408b8386613a25565b156141195760405191602083526020808401526020604084015260608301527fffffffff00000000ffffffffffffffffbce6faada7179e84f3b9cac2fc63254f6080830152600080516020614c07833981519152948560a084015260208360c0816005600019fa156101fd57614113938661410d9451818189099409916142ba565b916127f6565b90081590565b5050505050600090565b50600080516020614c0783398151915282101561407d565b508115614076565b50600080516020614c0783398151915284101561406f565b9061ffff19169081156141e357604080516001600160a01b039092168252637c9c64bb60e11b6020830152600090820152606081018281526080822080549092906141da576001608092522091825492831580156141d0575b156141c457600193505555600190565b90600217905555600190565b50600184166141b4565b50505050600090565b5050600090565b906141f4826104e2565b6142016040519182610458565b82815280926127ec601f19916104e2565b8051156142b05761423d61423861423161422c8451611c7a565b611cae565b6003900490565b6141ea565b91602083019180805101906020820192835194600085525b83831061426457505050505290565b6004906003809401938451600190603f9082828260121c16880101518553828282600c1c16880101518386015382828260061c1688010151600286015316850101519082015301614255565b505061054f612097565b60009260ff929091848315806149c6575b61396a576142d983836149ce565b90958615806149be575b614980575b85811c60028a60fe1c16015b1561496657600186821c1660028a831c60011b16016001811461492d575b60028114614920575b600314614913575b60009493929419019560019860015b886000191161439f575050505050505050506040519160608301526020825260208083015260206040830152600080516020614c278339815191526080830152600163ffffffff60601b0360601b19918260a082015260208160c0816005600019fa156101fd5751900990565b600163ffffffff60601b0360609a95969798999a1b198860020994600160601b63ffffffff60c01b0319868009600160601b63ffffffff60c01b031981830996600160601b63ffffffff60c01b03199082900991600160601b63ffffffff60c01b03199081908f8281830891600160601b63ffffffff60c01b031991820390080960030992600160601b63ffffffff60c01b03199083099c600160601b63ffffffff60c01b0319910995600160601b63ffffffff60c01b03198082600080516020614c2783398151915209600160601b63ffffffff60c01b03198580090892600160601b63ffffffff60c01b031991829081038508900998600160601b63ffffffff60c01b0319908a908290840908988a8c1c600116848d1c60011b60021601156148f55760018c600286838f841c16921c831b1601146148be575b838c8c6002600182841c168185851c60011b1601146148ab575b6003926001600292841c16921c60011b1601146148a2575b861561488f57600160601b63ffffffff60c01b0319908a9082908f90090890600160601b63ffffffff60c01b03199083820390829089900908958115614679575b600160601b63ffffffff60c01b0319908188800990099b600160601b63ffffffff60c01b03199081888181800909900998600160601b63ffffffff60c01b0319908190818981818009099009600160601b63ffffffff60c01b03198381808080808e80098a09600080516020614c2783398151915209600160601b63ffffffff60c01b0319808e8181800909600160601b63ffffffff60c01b0319908103908680090808600160601b63ffffffff60c01b031990810390808d8009890908090895600160601b63ffffffff60c01b03199283908190818480099009600080516020614c278339815191520991600160601b63ffffffff60c01b03199182908181800909600160601b63ffffffff60c01b03199081039180090808985b60001901979693959493614332565b8661454e57919a9198919550600160601b63ffffffff60c01b03199050808083600080516020614c2783398151915209600160601b63ffffffff60c01b031984600080516020614c2783398151915209098b0999600160601b63ffffffff60c01b031990818a8103820890600160601b63ffffffff60c01b0319908b9008099a600160601b63ffffffff60c01b03199081808085600080516020614c2783398151915209600160601b63ffffffff60c01b031986600080516020614c278339815191520909600160601b63ffffffff60c01b031985600080516020614c2783398151915209090997600160601b63ffffffff60c01b031990818084600080516020614c2783398151915209600160601b63ffffffff60c01b031985600080516020614c278339815191520909099a600160601b63ffffffff60c01b0319808c600080516020614c2783398151915209600160601b63ffffffff60c01b03198084600309600160601b63ffffffff60c01b03198560030909089a600160601b63ffffffff60c01b031992839081808083600080516020614c2783398151915209600160601b63ffffffff60c01b031984600080516020614c278339815191520909600160601b63ffffffff60c01b031983600080516020614c2783398151915209090991600160601b63ffffffff60c01b03199182908e8203900890600160601b63ffffffff60c01b03199060030909089361466a565b60019c50909a8c9950909550905061466a565b5050828461450d565b508993508a92508591508d90508c6144f5565b5050600080516020614be78339815191527f4fe342e2fe1a7f9b8ee7eb4a7c0f9e162bce33576b315ececbb6406837bf51f56144db565b50949a90999097600160601b63ffffffff60c01b031903945061466a565b9150955084958091614323565b939750879385935061431b565b600080516020614be783398151915298507f4fe342e2fe1a7f9b8ee7eb4a7c0f9e162bce33576b315ececbb6406837bf51f59350614312565b60001901600160028188841c16918b841c901b16016142f4565b979094600080516020614c078339815191529182039008936000978515806149b6575b156142e857505050505050505050600090565b5060016149a3565b5081156142e3565b5086156142cb565b7f4fe342e2fe1a7f9b8ee7eb4a7c0f9e162bce33576b315ececbb6406837bf51f59291600080516020614be7833981519152918115614b265780831480614b1d575b15614b065750600160601b63ffffffff60c01b03199190508184600209918083800992818080808781818909950995817fffffffff00000001000000000000000000000000fffffffffffffffffffffffe81600184089208096003098180808086600080516020614c278339815191520981858009089981600181818b099a099709810393898203900890090893915b6040519060208252602080830152602060408301526060820152600080516020614c278339815191526080820152600163ffffffff60601b0360601b19928360a083015260208260c0816005600019fa156101fd57838080935180950980099009930990565b909150614b14929350614b2c565b91939291614aa0565b50818514614a10565b50509190565b60019283927f94e82e0c1ed3bdb90743191a9c5bbf0d88fc827fd214cc5f0b5ec6ba27673d69600163ffffffff60601b0360601b198095818094817fb01cbd1c01e58065711814b583f061e9d431cca994cea1313449bf97c840ae0a9a8b920908950908928080808087800996870994818088600080516020614be7833981519152099181808085600080516020614c2783398151915209818b810381868009080893818a869d099482039008090894600109926001099056fe6b17d1f2e12c4247f8bce6e563a440f277037d812deb33a0f4a13945d898c296ffffffff00000000ffffffffffffffffbce6faada7179e84f3b9cac2fc632551ffffffff00000001000000000000000000000000fffffffffffffffffffffffda26469706673582212204fbb3253c0ba10ff4e82828d48fe55602721e34ccd159cdb5da72e6303b6c3eb64736f6c63430008180033","linkReferences":{}},"methodIdentifiers":{"ENTRYPOINT()":"e8eb3cc6","addOwners(address[],uint256[],(uint256,uint256)[],uint256[],uint256)":"852b67af","checkNSignatures((bytes32,bytes32,address,bytes))":"0bb42b8b","getOwnerId((uint256,uint256))":"c8050ee4","getOwnerId(address)":"ef4a7203","getReplaySafeMessageHash(address,bytes32)":"77102c35","isOwnerOf(address,(uint256,uint256))":"858e6ee4","isOwnerOf(address,address)":"f582bceb","isValidSignature(bytes32,bytes)":"1626ba7e","onInstall(bytes)":"6d61fe70","onUninstall(bytes)":"8a91b0e3","ownerDataPerAccount(bytes30,address)":"0cdc271f","ownershipInfoOf(address)":"6bbefc89","pluginManifest()":"c7763130","pluginMetadata()":"118a5389","postExecutionHook(uint8,bytes)":"1128186d","preExecutionHook(uint8,address,uint256,bytes)":"46d60eb2","preRuntimeValidationHook(uint8,address,uint256,bytes)":"0c7ecd84","preUserOpValidationHook(uint8,(address,uint256,bytes,bytes,bytes32,uint256,bytes32,bytes,bytes),bytes32)":"15b76b84","removeOwners(address[],(uint256,uint256)[],uint256)":"0b96422d","runtimeValidationFunction(uint8,address,uint256,bytes)":"bfd151c1","supportsInterface(bytes4)":"01ffc9a7","updateMultisigWeights(address[],uint256[],(uint256,uint256)[],uint256[],uint256)":"71af817b","userOpValidationFunction(uint8,(address,uint256,bytes,bytes,bytes32,uint256,bytes32,bytes,bytes),bytes32)":"c4db8dd9"},"id":66}