{
  "address": "0xFEF1c57185393f456eAEca363a0D3C12cd8DF07b",
  "abi": [
    {
      "inputs": [
        {
          "internalType": "contract IEntryPoint",
          "name": "_entryPoint",
          "type": "address"
        }
      ],
      "stateMutability": "nonpayable",
      "type": "constructor"
    },
    {
      "anonymous": false,
      "inputs": [
        {
          "indexed": true,
          "internalType": "address",
          "name": "proxy",
          "type": "address"
        },
        {
          "indexed": true,
          "internalType": "address",
          "name": "owner",
          "type": "address"
        }
      ],
      "name": "AccountCreated",
      "type": "event"
    },
    {
      "inputs": [],
      "name": "accountImplementation",
      "outputs": [
        {
          "internalType": "contract ECDSAAccount",
          "name": "",
          "type": "address"
        }
      ],
      "stateMutability": "view",
      "type": "function"
    },
    {
      "inputs": [
        {
          "internalType": "address",
          "name": "_owner",
          "type": "address"
        }
      ],
      "name": "createAccount",
      "outputs": [
        {
          "internalType": "contract ECDSAAccount",
          "name": "account",
          "type": "address"
        }
      ],
      "stateMutability": "nonpayable",
      "type": "function"
    },
    {
      "inputs": [
        {
          "internalType": "address",
          "name": "_owner",
          "type": "address"
        },
        {
          "internalType": "bytes32",
          "name": "_salt",
          "type": "bytes32"
        }
      ],
      "name": "createAccount",
      "outputs": [
        {
          "internalType": "contract ECDSAAccount",
          "name": "account",
          "type": "address"
        }
      ],
      "stateMutability": "nonpayable",
      "type": "function"
    },
    {
      "inputs": [
        {
          "internalType": "address",
          "name": "_owner",
          "type": "address"
        },
        {
          "internalType": "bytes32",
          "name": "_salt",
          "type": "bytes32"
        }
      ],
      "name": "getAddress",
      "outputs": [
        {
          "internalType": "address",
          "name": "",
          "type": "address"
        }
      ],
      "stateMutability": "view",
      "type": "function"
    },
    {
      "inputs": [
        {
          "internalType": "address",
          "name": "_owner",
          "type": "address"
        }
      ],
      "name": "getAddress",
      "outputs": [
        {
          "internalType": "address",
          "name": "",
          "type": "address"
        }
      ],
      "stateMutability": "view",
      "type": "function"
    }
  ],
  "transactionHash": "0x0ba35af41c46a6f3271fde30f2a5b5f582802138f2373938ab47e14a60a5ac30",
  "args": [
    "0x5FF137D4b0FDCD49DcA30c7CF57E578a026d2789"
  ],
  "numDeployments": 1,
  "solcInputHash": "fb9dcff4bec638d67f64a185d06b5f4b",
  "bytecode": "0x60a060405234801561001057600080fd5b50604051613f1f380380613f1f83398101604081905261002f91610088565b8060405161003c9061007b565b6001600160a01b039091168152602001604051809103906000f080158015610068573d6000803e3d6000fd5b506001600160a01b0316608052506100b8565b612fd280610f4d83390190565b60006020828403121561009a57600080fd5b81516001600160a01b03811681146100b157600080fd5b9392505050565b608051610e6d6100e060003960008181607a0152818161018701526103c70152610e6d6000f3fe60806040523480156200001157600080fd5b50600436106200006f5760003560e01c80639859387b11620000565780639859387b14620000dc578063ae22c57d14620000f3578063f14ddffc146200010a57600080fd5b806311464fbe14620000745780637ac4ed6414620000c5575b600080fd5b6200009c7f000000000000000000000000000000000000000000000000000000000000000081565b60405173ffffffffffffffffffffffffffffffffffffffff909116815260200160405180910390f35b6200009c620000d636600462000576565b62000121565b6200009c620000ed366004620005a3565b6200029d565b6200009c62000104366004620005a3565b62000309565b6200009c6200011b36600462000576565b6200036d565b6000806040518060200162000136906200053e565b7fffffffffffffffffffffffffffffffffffffffffffffffffffffffffffffffe082820381018352601f90910116604081905273ffffffffffffffffffffffffffffffffffffffff861660248201527f000000000000000000000000000000000000000000000000000000000000000090604401604080517fffffffffffffffffffffffffffffffffffffffffffffffffffffffffffffffe0818403018152918152602080830180517bffffffffffffffffffffffffffffffffffffffffffffffffffffffff167fc4d66de80000000000000000000000000000000000000000000000000000000017905290516200023193929101620005e7565b604080517fffffffffffffffffffffffffffffffffffffffffffffffffffffffffffffffe0818403018152908290526200026f929160200162000657565b604051602081830303815290604052805190602001209050620002938382620004fe565b9150505b92915050565b6040517fffffffffffffffffffffffffffffffffffffffff000000000000000000000000606083901b16602082015260006034820181905290819081906054016040516020818303038152906040528051906020012090506200030184826200036d565b949350505050565b6040517fffffffffffffffffffffffffffffffffffffffff000000000000000000000000606083901b166020820152600060348201819052908190819060540160405160208183030381529060405280519060200120905062000301848262000121565b6000806200037c848462000121565b905073ffffffffffffffffffffffffffffffffffffffff81163b15620003a457905062000297565b60405173ffffffffffffffffffffffffffffffffffffffff8516602482015283907f000000000000000000000000000000000000000000000000000000000000000090604401604080517fffffffffffffffffffffffffffffffffffffffffffffffffffffffffffffffe08184030181529181526020820180517bffffffffffffffffffffffffffffffffffffffffffffffffffffffff167fc4d66de800000000000000000000000000000000000000000000000000000000179052516200046c906200053e565b62000479929190620005e7565b8190604051809103906000f59050801580156200049a573d6000803e3d6000fd5b5091508373ffffffffffffffffffffffffffffffffffffffff168273ffffffffffffffffffffffffffffffffffffffff167fac631f3001b55ea1509cf3d7e74898f85392a61a76e8149181ae1259622dabc860405160405180910390a35092915050565b60006200050d83833062000514565b9392505050565b6000604051836040820152846020820152828152600b8101905060ff815360559020949350505050565b6107ad806200068b83390190565b803573ffffffffffffffffffffffffffffffffffffffff811681146200057157600080fd5b919050565b600080604083850312156200058a57600080fd5b62000595836200054c565b946020939093013593505050565b600060208284031215620005b657600080fd5b6200050d826200054c565b60005b83811015620005de578181015183820152602001620005c4565b50506000910152565b73ffffffffffffffffffffffffffffffffffffffff83168152604060208201526000825180604084015262000624816060850160208701620005c1565b601f017fffffffffffffffffffffffffffffffffffffffffffffffffffffffffffffffe016919091016060019392505050565b600083516200066b818460208801620005c1565b83519083019062000681818360208801620005c1565b0194935050505056fe60806040526040516107ad3803806107ad83398101604081905261002291610319565b61002e82826000610035565b5050610436565b61003e8361006b565b60008251118061004b5750805b156100665761006483836100ab60201b6100291760201c565b505b505050565b610074816100d7565b6040516001600160a01b038216907fbc7cd75a20ee27fd9adebab32041f755214dbc6bffa90cc0225b39da2e5c2d3b90600090a250565b60606100d08383604051806060016040528060278152602001610786602791396101a9565b9392505050565b6100ea8161022260201b6100551760201c565b6101515760405162461bcd60e51b815260206004820152602d60248201527f455243313936373a206e657720696d706c656d656e746174696f6e206973206e60448201526c1bdd08184818dbdb9d1c9858dd609a1b60648201526084015b60405180910390fd5b806101887f360894a13ba1a3210667c828492db98dca3e2076cc3735a920a3ca505d382bbc60001b61023160201b6100711760201c565b80546001600160a01b0319166001600160a01b039290921691909117905550565b6060600080856001600160a01b0316856040516101c691906103e7565b600060405180830381855af49150503d8060008114610201576040519150601f19603f3d011682016040523d82523d6000602084013e610206565b606091505b50909250905061021886838387610234565b9695505050505050565b6001600160a01b03163b151590565b90565b606083156102a357825160000361029c576001600160a01b0385163b61029c5760405162461bcd60e51b815260206004820152601d60248201527f416464726573733a2063616c6c20746f206e6f6e2d636f6e74726163740000006044820152606401610148565b50816102ad565b6102ad83836102b5565b949350505050565b8151156102c55781518083602001fd5b8060405162461bcd60e51b81526004016101489190610403565b634e487b7160e01b600052604160045260246000fd5b60005b838110156103105781810151838201526020016102f8565b50506000910152565b6000806040838503121561032c57600080fd5b82516001600160a01b038116811461034357600080fd5b60208401519092506001600160401b038082111561036057600080fd5b818501915085601f83011261037457600080fd5b815181811115610386576103866102df565b604051601f8201601f19908116603f011681019083821181831017156103ae576103ae6102df565b816040528281528860208487010111156103c757600080fd5b6103d88360208301602088016102f5565b80955050505050509250929050565b600082516103f98184602087016102f5565b9190910192915050565b60208152600082518060208401526104228160408501602087016102f5565b601f01601f19169190910160400192915050565b610341806104456000396000f3fe60806040523661001357610011610017565b005b6100115b610027610022610074565b6100b9565b565b606061004e83836040518060600160405280602781526020016102e5602791396100dd565b9392505050565b73ffffffffffffffffffffffffffffffffffffffff163b151590565b90565b60006100b47f360894a13ba1a3210667c828492db98dca3e2076cc3735a920a3ca505d382bbc5473ffffffffffffffffffffffffffffffffffffffff1690565b905090565b3660008037600080366000845af43d6000803e8080156100d8573d6000f35b3d6000fd5b60606000808573ffffffffffffffffffffffffffffffffffffffff16856040516101079190610277565b600060405180830381855af49150503d8060008114610142576040519150601f19603f3d011682016040523d82523d6000602084013e610147565b606091505b509150915061015886838387610162565b9695505050505050565b606083156101fd5782516000036101f65773ffffffffffffffffffffffffffffffffffffffff85163b6101f6576040517f08c379a000000000000000000000000000000000000000000000000000000000815260206004820152601d60248201527f416464726573733a2063616c6c20746f206e6f6e2d636f6e747261637400000060448201526064015b60405180910390fd5b5081610207565b610207838361020f565b949350505050565b81511561021f5781518083602001fd5b806040517f08c379a00000000000000000000000000000000000000000000000000000000081526004016101ed9190610293565b60005b8381101561026e578181015183820152602001610256565b50506000910152565b60008251610289818460208701610253565b9190910192915050565b60208152600082518060208401526102b2816040850160208701610253565b601f017fffffffffffffffffffffffffffffffffffffffffffffffffffffffffffffffe016919091016040019291505056fe416464726573733a206c6f772d6c6576656c2064656c65676174652063616c6c206661696c6564a26469706673582212209880fc7511e9df80a44b04c2b744ac639d79f639b0fe45b4b9e13e9f50e3ea8564736f6c63430008110033416464726573733a206c6f772d6c6576656c2064656c65676174652063616c6c206661696c6564a2646970667358221220d86cc96ea7c86cf441db32985ff95ca3a209348a37bbbb2839840f1839c159b264736f6c6343000811003360c06040523060a0523480156200001557600080fd5b5060405162002fd238038062002fd2833981016040819052620000389162000123565b6001600160a01b038116608052806200005062000062565b506200005b62000062565b5062000155565b600054610100900460ff1615620000cf5760405162461bcd60e51b815260206004820152602760248201527f496e697469616c697a61626c653a20636f6e747261637420697320696e697469604482015266616c697a696e6760c81b606482015260840160405180910390fd5b60005460ff9081161462000121576000805460ff191660ff9081179091556040519081527f7f26b83ff96e1f2b6a682f133852f6798a09c465da95921460cefb38474024989060200160405180910390a15b565b6000602082840312156200013657600080fd5b81516001600160a01b03811681146200014e57600080fd5b9392505050565b60805160a051612e0a620001c8600039600081816108800152818161093001528181610d8801528181610e380152610f810152600081816102220152818161047001528181610c1501528181610cc40152818161111a015281816113730152818161155601526118430152612e0a6000f3fe60806040526004361061019a5760003560e01c806352d1902d116100e1578063b61d27f61161008a578063c4d66de811610064578063c4d66de814610511578063d087d28814610531578063f23a6e6114610546578063f2fde38b1461058c57600080fd5b8063b61d27f614610494578063bc197c81146104b4578063c399ec88146104fc57600080fd5b80638456cb59116100bb5780638456cb59146104215780638da5cb5b14610436578063b0d691fe1461046157600080fd5b806352d1902d146103df5780635c975abb146103f4578063715018a61461040c57600080fd5b80633a871cdd116101435780634a58db191161011d5780634a58db19146103a45780634d44560d146103ac5780634f1ef286146103cc57600080fd5b80633a871cdd146103415780633f4ba83a1461036f57806347e1da2a1461038457600080fd5b80631626ba7e116101745780631626ba7e146102df57806318dfb3c7146102ff5780633659cfe61461032157600080fd5b806301ffc9a7146101db57806306dc245c14610210578063150b7a021461026957600080fd5b366101d65760405134815233907f6063d17f97b8837d6ec87876288b0dcba611bf6d68465a6e592be6f9d9ba4dc39060200160405180910390a2005b600080fd5b3480156101e757600080fd5b506101fb6101f63660046125e7565b6105ac565b60405190151581526020015b60405180910390f35b34801561021c57600080fd5b506102447f000000000000000000000000000000000000000000000000000000000000000081565b60405173ffffffffffffffffffffffffffffffffffffffff9091168152602001610207565b34801561027557600080fd5b506102ae61028436600461268d565b7f150b7a020000000000000000000000000000000000000000000000000000000095945050505050565b6040517fffffffff000000000000000000000000000000000000000000000000000000009091168152602001610207565b3480156102eb57600080fd5b506102ae6102fa3660046127da565b610691565b34801561030b57600080fd5b5061031f61031a366004612866565b61073d565b005b34801561032d57600080fd5b5061031f61033c3660046128d2565b610869565b34801561034d57600080fd5b5061036161035c3660046128ef565b610a6e565b604051908152602001610207565b34801561037b57600080fd5b5061031f610a94565b34801561039057600080fd5b5061031f61039f366004612943565b610aae565b61031f610c0b565b3480156103b857600080fd5b5061031f6103c73660046129dd565b610cb2565b61031f6103da366004612a09565b610d71565b3480156103eb57600080fd5b50610361610f67565b34801561040057600080fd5b5060655460ff166101fb565b34801561041857600080fd5b5061031f611053565b34801561042d57600080fd5b5061031f611065565b34801561044257600080fd5b5060335473ffffffffffffffffffffffffffffffffffffffff16610244565b34801561046d57600080fd5b507f0000000000000000000000000000000000000000000000000000000000000000610244565b3480156104a057600080fd5b5061031f6104af366004612a43565b61107d565b3480156104c057600080fd5b506102ae6104cf366004612a93565b7fbc197c810000000000000000000000000000000000000000000000000000000098975050505050505050565b34801561050857600080fd5b506103616110d4565b34801561051d57600080fd5b5061031f61052c3660046128d2565b61118b565b34801561053d57600080fd5b50610361611326565b34801561055257600080fd5b506102ae610561366004612b52565b7ff23a6e61000000000000000000000000000000000000000000000000000000009695505050505050565b34801561059857600080fd5b5061031f6105a73660046128d2565b6113a2565b60007fffffffff0000000000000000000000000000000000000000000000000000000082167f150b7a0200000000000000000000000000000000000000000000000000000000148061063f57507fffffffff0000000000000000000000000000000000000000000000000000000082167f4e2312e000000000000000000000000000000000000000000000000000000000145b8061068b57507fffffffff0000000000000000000000000000000000000000000000000000000082167f01ffc9a700000000000000000000000000000000000000000000000000000000145b92915050565b60006106ea6106b560335473ffffffffffffffffffffffffffffffffffffffff1690565b7f19457468657265756d205369676e6564204d6573736167653a0a3332000000006000908152601c869052603c902084611456565b61071557507fffffffff0000000000000000000000000000000000000000000000000000000061068b565b507f1626ba7e0000000000000000000000000000000000000000000000000000000092915050565b6107456114d1565b61074d61153e565b8281146107bb576040517f08c379a000000000000000000000000000000000000000000000000000000000815260206004820152601360248201527f77726f6e67206172726179206c656e677468730000000000000000000000000060448201526064015b60405180910390fd5b60005b83811015610862576108508585838181106107db576107db612bbc565b90506020020160208101906107f091906128d2565b600085858581811061080457610804612bbc565b90506020028101906108169190612beb565b8080601f0160208091040260200160405190810160405280939291908181526020018383808284376000920191909152506115ff92505050565b8061085a81612c50565b9150506107be565b5050505050565b73ffffffffffffffffffffffffffffffffffffffff7f000000000000000000000000000000000000000000000000000000000000000016300361092e576040517f08c379a000000000000000000000000000000000000000000000000000000000815260206004820152602c60248201527f46756e6374696f6e206d7573742062652063616c6c6564207468726f7567682060448201527f64656c656761746563616c6c000000000000000000000000000000000000000060648201526084016107b2565b7f000000000000000000000000000000000000000000000000000000000000000073ffffffffffffffffffffffffffffffffffffffff166109a37f360894a13ba1a3210667c828492db98dca3e2076cc3735a920a3ca505d382bbc5473ffffffffffffffffffffffffffffffffffffffff1690565b73ffffffffffffffffffffffffffffffffffffffff1614610a46576040517f08c379a000000000000000000000000000000000000000000000000000000000815260206004820152602c60248201527f46756e6374696f6e206d7573742062652063616c6c6564207468726f7567682060448201527f6163746976652070726f7879000000000000000000000000000000000000000060648201526084016107b2565b610a4f8161161f565b60408051600080825260208201909252610a6b91839190611627565b50565b6000610a7861182b565b610a8284846118ca565b9050610a8d8261197c565b9392505050565b610a9c6119e7565b610aa4611a72565b610aac611ade565b565b610ab66114d1565b610abe61153e565b848114610b27576040517f08c379a000000000000000000000000000000000000000000000000000000000815260206004820152601360248201527f77726f6e67206172726179206c656e677468730000000000000000000000000060448201526064016107b2565b848314610b90576040517f08c379a000000000000000000000000000000000000000000000000000000000815260206004820152601360248201527f77726f6e67206172726179206c656e677468730000000000000000000000000060448201526064016107b2565b60005b85811015610c0257610bf0878783818110610bb057610bb0612bbc565b9050602002016020810190610bc591906128d2565b868684818110610bd757610bd7612bbc565b9050602002013585858581811061080457610804612bbc565b80610bfa81612c50565b915050610b93565b50505050505050565b610c136114d1565b7f00000000000000000000000000000000000000000000000000000000000000006040517fb760faf900000000000000000000000000000000000000000000000000000000815230600482015273ffffffffffffffffffffffffffffffffffffffff919091169063b760faf99034906024016000604051808303818588803b158015610c9e57600080fd5b505af1158015610862573d6000803e3d6000fd5b610cba6119e7565b610cc26114d1565b7f00000000000000000000000000000000000000000000000000000000000000006040517f205c287800000000000000000000000000000000000000000000000000000000815273ffffffffffffffffffffffffffffffffffffffff848116600483015260248201849052919091169063205c287890604401600060405180830381600087803b158015610d5557600080fd5b505af1158015610d69573d6000803e3d6000fd5b505050505050565b73ffffffffffffffffffffffffffffffffffffffff7f0000000000000000000000000000000000000000000000000000000000000000163003610e36576040517f08c379a000000000000000000000000000000000000000000000000000000000815260206004820152602c60248201527f46756e6374696f6e206d7573742062652063616c6c6564207468726f7567682060448201527f64656c656761746563616c6c000000000000000000000000000000000000000060648201526084016107b2565b7f000000000000000000000000000000000000000000000000000000000000000073ffffffffffffffffffffffffffffffffffffffff16610eab7f360894a13ba1a3210667c828492db98dca3e2076cc3735a920a3ca505d382bbc5473ffffffffffffffffffffffffffffffffffffffff1690565b73ffffffffffffffffffffffffffffffffffffffff1614610f4e576040517f08c379a000000000000000000000000000000000000000000000000000000000815260206004820152602c60248201527f46756e6374696f6e206d7573742062652063616c6c6564207468726f7567682060448201527f6163746976652070726f7879000000000000000000000000000000000000000060648201526084016107b2565b610f578261161f565b610f6382826001611627565b5050565b60003073ffffffffffffffffffffffffffffffffffffffff7f0000000000000000000000000000000000000000000000000000000000000000161461102e576040517f08c379a000000000000000000000000000000000000000000000000000000000815260206004820152603860248201527f555550535570677261646561626c653a206d757374206e6f742062652063616c60448201527f6c6564207468726f7567682064656c656761746563616c6c000000000000000060648201526084016107b2565b507f360894a13ba1a3210667c828492db98dca3e2076cc3735a920a3ca505d382bbc90565b61105b6119e7565b610aac6000611b5b565b61106d6119e7565b6110756114d1565b610aac611bd2565b6110856114d1565b61108d61153e565b6110ce848484848080601f0160208091040260200160405190810160405280939291908181526020018383808284376000920191909152506115ff92505050565b50505050565b6040517f70a0823100000000000000000000000000000000000000000000000000000000815230600482015260009073ffffffffffffffffffffffffffffffffffffffff7f000000000000000000000000000000000000000000000000000000000000000016906370a08231906024015b602060405180830381865afa158015611162573d6000803e3d6000fd5b505050506040513d601f19601f820116820180604052508101906111869190612caf565b905090565b600054610100900460ff16158080156111ab5750600054600160ff909116105b806111c55750303b1580156111c5575060005460ff166001145b611251576040517f08c379a000000000000000000000000000000000000000000000000000000000815260206004820152602e60248201527f496e697469616c697a61626c653a20636f6e747261637420697320616c72656160448201527f647920696e697469616c697a656400000000000000000000000000000000000060648201526084016107b2565b600080547fffffffffffffffffffffffffffffffffffffffffffffffffffffffffffffff0016600117905580156112af57600080547fffffffffffffffffffffffffffffffffffffffffffffffffffffffffffff00ff166101001790555b6112b882611c2d565b6112c0611cdd565b8015610f6357600080547fffffffffffffffffffffffffffffffffffffffffffffffffffffffffffff00ff169055604051600181527f7f26b83ff96e1f2b6a682f133852f6798a09c465da95921460cefb38474024989060200160405180910390a15050565b6040517f35567e1a0000000000000000000000000000000000000000000000000000000081523060048201526000602482018190529073ffffffffffffffffffffffffffffffffffffffff7f000000000000000000000000000000000000000000000000000000000000000016906335567e1a90604401611145565b6113aa6119e7565b73ffffffffffffffffffffffffffffffffffffffff811661144d576040517f08c379a000000000000000000000000000000000000000000000000000000000815260206004820152602660248201527f4f776e61626c653a206e6577206f776e657220697320746865207a65726f206160448201527f646472657373000000000000000000000000000000000000000000000000000060648201526084016107b2565b610a6b81611b5b565b60008060006114658585611d74565b9092509050600081600481111561147e5761147e612cc8565b1480156114b657508573ffffffffffffffffffffffffffffffffffffffff168273ffffffffffffffffffffffffffffffffffffffff16145b806114c757506114c7868686611db9565b9695505050505050565b60655460ff1615610aac576040517f08c379a000000000000000000000000000000000000000000000000000000000815260206004820152601060248201527f5061757361626c653a207061757365640000000000000000000000000000000060448201526064016107b2565b3373ffffffffffffffffffffffffffffffffffffffff7f0000000000000000000000000000000000000000000000000000000000000000161480611599575060335473ffffffffffffffffffffffffffffffffffffffff1633145b610aac576040517f08c379a000000000000000000000000000000000000000000000000000000000815260206004820181905260248201527f6163636f756e743a206e6f7420456e747279506f696e74206f72204f776e657260448201526064016107b2565b60008061160d858585611f16565b91509150816108625761086281611f4e565b610a6b6119e7565b7f4910fdfa16fed3260ed0e7147f7cc6da11a60208b5b9406d12a635614ffd91435460ff161561165f5761165a83611f56565b505050565b8273ffffffffffffffffffffffffffffffffffffffff166352d1902d6040518163ffffffff1660e01b8152600401602060405180830381865afa9250505080156116e4575060408051601f3d9081017fffffffffffffffffffffffffffffffffffffffffffffffffffffffffffffffe01682019092526116e191810190612caf565b60015b611770576040517f08c379a000000000000000000000000000000000000000000000000000000000815260206004820152602e60248201527f45524331393637557067726164653a206e657720696d706c656d656e7461746960448201527f6f6e206973206e6f74205555505300000000000000000000000000000000000060648201526084016107b2565b7f360894a13ba1a3210667c828492db98dca3e2076cc3735a920a3ca505d382bbc811461181f576040517f08c379a000000000000000000000000000000000000000000000000000000000815260206004820152602960248201527f45524331393637557067726164653a20756e737570706f727465642070726f7860448201527f6961626c6555554944000000000000000000000000000000000000000000000060648201526084016107b2565b5061165a838383612060565b3373ffffffffffffffffffffffffffffffffffffffff7f00000000000000000000000000000000000000000000000000000000000000001614610aac576040517f08c379a000000000000000000000000000000000000000000000000000000000815260206004820152601c60248201527f6163636f756e743a206e6f742066726f6d20456e747279506f696e740000000060448201526064016107b2565b7f19457468657265756d205369676e6564204d6573736167653a0a3332000000006000908152601c829052603c812061196461191b60335473ffffffffffffffffffffffffffffffffffffffff1690565b8261192a610140880188612beb565b8080601f01602080910402602001604051908101604052809392919081815260200183838082843760009201919091525061145692505050565b61197257600191505061068b565b5060009392505050565b8015610a6b5760405160009033907fffffffffffffffffffffffffffffffffffffffffffffffffffffffffffffffff90849084818181858888f193505050503d8060008114610862576040519150601f19603f3d011682016040523d82523d6000602084013e610862565b60335473ffffffffffffffffffffffffffffffffffffffff16331480611a0c57503330145b610aac576040517f08c379a000000000000000000000000000000000000000000000000000000000815260206004820152601760248201527f43616c6c6572206973206e6f7420746865206f776e657200000000000000000060448201526064016107b2565b60655460ff16610aac576040517f08c379a000000000000000000000000000000000000000000000000000000000815260206004820152601460248201527f5061757361626c653a206e6f742070617573656400000000000000000000000060448201526064016107b2565b611ae6611a72565b606580547fffffffffffffffffffffffffffffffffffffffffffffffffffffffffffffff001690557f5db9ee0a495bf2e6ff9c91a7834c1ba4fdd244a5e8aa4e537bd38aeae4b073aa335b60405173ffffffffffffffffffffffffffffffffffffffff909116815260200160405180910390a1565b6033805473ffffffffffffffffffffffffffffffffffffffff8381167fffffffffffffffffffffffff0000000000000000000000000000000000000000831681179093556040519116919082907f8be0079c531659141344cd1fd0a4f28419497f9722a3daafe3b4186f6b6457e090600090a35050565b611bda6114d1565b606580547fffffffffffffffffffffffffffffffffffffffffffffffffffffffffffffff001660011790557f62e78cea01bee320cd4e420270b5ea74000d11b0c9f74754ebdbfc544b05a258611b313390565b600054610100900460ff16611cc4576040517f08c379a000000000000000000000000000000000000000000000000000000000815260206004820152602b60248201527f496e697469616c697a61626c653a20636f6e7472616374206973206e6f74206960448201527f6e697469616c697a696e6700000000000000000000000000000000000000000060648201526084016107b2565b611ccc612085565b611cd5816113a2565b610a6b612124565b600054610100900460ff16610aac576040517f08c379a000000000000000000000000000000000000000000000000000000000815260206004820152602b60248201527f496e697469616c697a61626c653a20636f6e7472616374206973206e6f74206960448201527f6e697469616c697a696e6700000000000000000000000000000000000000000060648201526084016107b2565b6000808251604103611daa5760208301516040840151606085015160001a611d9e878285856121c3565b94509450505050611db2565b506000905060025b9250929050565b60008060008573ffffffffffffffffffffffffffffffffffffffff16631626ba7e60e01b8686604051602401611df0929190612d65565b604080517fffffffffffffffffffffffffffffffffffffffffffffffffffffffffffffffe08184030181529181526020820180517bffffffffffffffffffffffffffffffffffffffffffffffffffffffff167fffffffff00000000000000000000000000000000000000000000000000000000909416939093179092529051611e799190612d7e565b600060405180830381855afa9150503d8060008114611eb4576040519150601f19603f3d011682016040523d82523d6000602084013e611eb9565b606091505b5091509150818015611ecd57506020815110155b80156114c7575080517f1626ba7e0000000000000000000000000000000000000000000000000000000090611f0b9083016020908101908401612caf565b149695505050505050565b6000606060008084516020860187895af191503d604051602082018101604052818152816000602083013e8092505050935093915050565b805160208201fd5b73ffffffffffffffffffffffffffffffffffffffff81163b611ffa576040517f08c379a000000000000000000000000000000000000000000000000000000000815260206004820152602d60248201527f455243313936373a206e657720696d706c656d656e746174696f6e206973206e60448201527f6f74206120636f6e74726163740000000000000000000000000000000000000060648201526084016107b2565b7f360894a13ba1a3210667c828492db98dca3e2076cc3735a920a3ca505d382bbc80547fffffffffffffffffffffffff00000000000000000000000000000000000000001673ffffffffffffffffffffffffffffffffffffffff92909216919091179055565b612069836122b2565b6000825111806120765750805b1561165a576110ce83836122ff565b600054610100900460ff1661211c576040517f08c379a000000000000000000000000000000000000000000000000000000000815260206004820152602b60248201527f496e697469616c697a61626c653a20636f6e7472616374206973206e6f74206960448201527f6e697469616c697a696e6700000000000000000000000000000000000000000060648201526084016107b2565b610aac612324565b600054610100900460ff166121bb576040517f08c379a000000000000000000000000000000000000000000000000000000000815260206004820152602b60248201527f496e697469616c697a61626c653a20636f6e7472616374206973206e6f74206960448201527f6e697469616c697a696e6700000000000000000000000000000000000000000060648201526084016107b2565b610aac6123c4565b6000807f7fffffffffffffffffffffffffffffff5d576e7357a4501ddfe92f46681b20a08311156121fa57506000905060036122a9565b6040805160008082526020820180845289905260ff881692820192909252606081018690526080810185905260019060a0016020604051602081039080840390855afa15801561224e573d6000803e3d6000fd5b50506040517fffffffffffffffffffffffffffffffffffffffffffffffffffffffffffffffe0015191505073ffffffffffffffffffffffffffffffffffffffff81166122a2576000600192509250506122a9565b9150600090505b94509492505050565b6122bb81611f56565b60405173ffffffffffffffffffffffffffffffffffffffff8216907fbc7cd75a20ee27fd9adebab32041f755214dbc6bffa90cc0225b39da2e5c2d3b90600090a250565b6060610a8d8383604051806060016040528060278152602001612dae60279139612485565b600054610100900460ff166123bb576040517f08c379a000000000000000000000000000000000000000000000000000000000815260206004820152602b60248201527f496e697469616c697a61626c653a20636f6e7472616374206973206e6f74206960448201527f6e697469616c697a696e6700000000000000000000000000000000000000000060648201526084016107b2565b610aac33611b5b565b600054610100900460ff1661245b576040517f08c379a000000000000000000000000000000000000000000000000000000000815260206004820152602b60248201527f496e697469616c697a61626c653a20636f6e7472616374206973206e6f74206960448201527f6e697469616c697a696e6700000000000000000000000000000000000000000060648201526084016107b2565b606580547fffffffffffffffffffffffffffffffffffffffffffffffffffffffffffffff00169055565b60606000808573ffffffffffffffffffffffffffffffffffffffff16856040516124af9190612d7e565b600060405180830381855af49150503d80600081146124ea576040519150601f19603f3d011682016040523d82523d6000602084013e6124ef565b606091505b50915091506114c7868383876060831561259157825160000361258a5773ffffffffffffffffffffffffffffffffffffffff85163b61258a576040517f08c379a000000000000000000000000000000000000000000000000000000000815260206004820152601d60248201527f416464726573733a2063616c6c20746f206e6f6e2d636f6e747261637400000060448201526064016107b2565b508161259b565b61259b83836125a3565b949350505050565b8151156125b35781518083602001fd5b806040517f08c379a00000000000000000000000000000000000000000000000000000000081526004016107b29190612d9a565b6000602082840312156125f957600080fd5b81357fffffffff0000000000000000000000000000000000000000000000000000000081168114610a8d57600080fd5b73ffffffffffffffffffffffffffffffffffffffff81168114610a6b57600080fd5b60008083601f84011261265d57600080fd5b50813567ffffffffffffffff81111561267557600080fd5b602083019150836020828501011115611db257600080fd5b6000806000806000608086880312156126a557600080fd5b85356126b081612629565b945060208601356126c081612629565b935060408601359250606086013567ffffffffffffffff8111156126e357600080fd5b6126ef8882890161264b565b969995985093965092949392505050565b7f4e487b7100000000000000000000000000000000000000000000000000000000600052604160045260246000fd5b600082601f83011261274057600080fd5b813567ffffffffffffffff8082111561275b5761275b612700565b604051601f83017fffffffffffffffffffffffffffffffffffffffffffffffffffffffffffffffe0908116603f011681019082821181831017156127a1576127a1612700565b816040528381528660208588010111156127ba57600080fd5b836020870160208301376000602085830101528094505050505092915050565b600080604083850312156127ed57600080fd5b82359150602083013567ffffffffffffffff81111561280b57600080fd5b6128178582860161272f565b9150509250929050565b60008083601f84011261283357600080fd5b50813567ffffffffffffffff81111561284b57600080fd5b6020830191508360208260051b8501011115611db257600080fd5b6000806000806040858703121561287c57600080fd5b843567ffffffffffffffff8082111561289457600080fd5b6128a088838901612821565b909650945060208701359150808211156128b957600080fd5b506128c687828801612821565b95989497509550505050565b6000602082840312156128e457600080fd5b8135610a8d81612629565b60008060006060848603121561290457600080fd5b833567ffffffffffffffff81111561291b57600080fd5b8401610160818703121561292e57600080fd5b95602085013595506040909401359392505050565b6000806000806000806060878903121561295c57600080fd5b863567ffffffffffffffff8082111561297457600080fd5b6129808a838b01612821565b9098509650602089013591508082111561299957600080fd5b6129a58a838b01612821565b909650945060408901359150808211156129be57600080fd5b506129cb89828a01612821565b979a9699509497509295939492505050565b600080604083850312156129f057600080fd5b82356129fb81612629565b946020939093013593505050565b60008060408385031215612a1c57600080fd5b8235612a2781612629565b9150602083013567ffffffffffffffff81111561280b57600080fd5b60008060008060608587031215612a5957600080fd5b8435612a6481612629565b935060208501359250604085013567ffffffffffffffff811115612a8757600080fd5b6128c68782880161264b565b60008060008060008060008060a0898b031215612aaf57600080fd5b8835612aba81612629565b97506020890135612aca81612629565b9650604089013567ffffffffffffffff80821115612ae757600080fd5b612af38c838d01612821565b909850965060608b0135915080821115612b0c57600080fd5b612b188c838d01612821565b909650945060808b0135915080821115612b3157600080fd5b50612b3e8b828c0161264b565b999c989b5096995094979396929594505050565b60008060008060008060a08789031215612b6b57600080fd5b8635612b7681612629565b95506020870135612b8681612629565b94506040870135935060608701359250608087013567ffffffffffffffff811115612bb057600080fd5b6129cb89828a0161264b565b7f4e487b7100000000000000000000000000000000000000000000000000000000600052603260045260246000fd5b60008083357fffffffffffffffffffffffffffffffffffffffffffffffffffffffffffffffe1843603018112612c2057600080fd5b83018035915067ffffffffffffffff821115612c3b57600080fd5b602001915036819003821315611db257600080fd5b60007fffffffffffffffffffffffffffffffffffffffffffffffffffffffffffffffff8203612ca8577f4e487b7100000000000000000000000000000000000000000000000000000000600052601160045260246000fd5b5060010190565b600060208284031215612cc157600080fd5b5051919050565b7f4e487b7100000000000000000000000000000000000000000000000000000000600052602160045260246000fd5b60005b83811015612d12578181015183820152602001612cfa565b50506000910152565b60008151808452612d33816020860160208601612cf7565b601f017fffffffffffffffffffffffffffffffffffffffffffffffffffffffffffffffe0169290920160200192915050565b82815260406020820152600061259b6040830184612d1b565b60008251612d90818460208701612cf7565b9190910192915050565b602081526000610a8d6020830184612d1b56fe416464726573733a206c6f772d6c6576656c2064656c65676174652063616c6c206661696c6564a26469706673582212206afba605fd811b41205916c833aae86f69ae2cf56999fe151b69d559061c31c664736f6c63430008110033",
  "devdoc": {
    "details": "Account factory that creates the upgradeable account signed and verified by ECDSA.",
    "kind": "dev",
    "methods": {
      "createAccount(address)": {
        "details": "Salted deterministic deployment using create2 and a specific logic UpgradeableECDSAAccount implementation. Use index 0 in salt that allows to deploy only one account from the same owner.",
        "params": {
          "_owner": "owner (e.g. EOA) of the account"
        }
      },
      "createAccount(address,bytes32)": {
        "details": "Salted deterministic deployment using create2 and a specific logic UpgradeableECDSAAccount implementation. index could be part of the salt if the owner wants to control multiple accounts from the same owner key.",
        "params": {
          "_owner": "owner (e.g. EOA) of the account",
          "_salt": "extra salt (e.g. using owner and index) that allows for deterministic deployment"
        }
      },
      "getAddress(address)": {
        "details": "Pre-compute the counterfactual address prior to calling createAccount. Use index 0 in salt that allows to deploy only one account from the same owner.",
        "params": {
          "_owner": "owner (e.g. EOA) of the account"
        }
      },
      "getAddress(address,bytes32)": {
        "details": "Pre-compute the counterfactual address prior to calling createAccount.",
        "params": {
          "_owner": "owner (e.g. EOA) of the account",
          "_salt": "extra salt (e.g. using owner and index) that allows for deterministic deployment"
        }
      }
    },
    "version": 1
  },
  "userdoc": {
    "kind": "user",
    "methods": {},
    "version": 1
  },
  "storageLayout": {
    "storage": [],
    "types": null
  }
}