{
  "address": "0x26f77C6455518CAF29A5414004C5A2Ef441228b1",
  "abi": [
    {
      "inputs": [
        {
          "internalType": "contract IEntryPoint",
          "name": "_newEntryPoint",
          "type": "address"
        }
      ],
      "stateMutability": "nonpayable",
      "type": "constructor"
    },
    {
      "anonymous": false,
      "inputs": [
        {
          "indexed": false,
          "internalType": "address",
          "name": "previousAdmin",
          "type": "address"
        },
        {
          "indexed": false,
          "internalType": "address",
          "name": "newAdmin",
          "type": "address"
        }
      ],
      "name": "AdminChanged",
      "type": "event"
    },
    {
      "anonymous": false,
      "inputs": [
        {
          "indexed": true,
          "internalType": "address",
          "name": "beacon",
          "type": "address"
        }
      ],
      "name": "BeaconUpgraded",
      "type": "event"
    },
    {
      "anonymous": false,
      "inputs": [
        {
          "indexed": false,
          "internalType": "uint8",
          "name": "version",
          "type": "uint8"
        }
      ],
      "name": "Initialized",
      "type": "event"
    },
    {
      "anonymous": false,
      "inputs": [
        {
          "indexed": true,
          "internalType": "address",
          "name": "previousOwner",
          "type": "address"
        },
        {
          "indexed": true,
          "internalType": "address",
          "name": "newOwner",
          "type": "address"
        }
      ],
      "name": "OwnershipTransferred",
      "type": "event"
    },
    {
      "anonymous": false,
      "inputs": [
        {
          "indexed": false,
          "internalType": "address",
          "name": "account",
          "type": "address"
        }
      ],
      "name": "Paused",
      "type": "event"
    },
    {
      "anonymous": false,
      "inputs": [
        {
          "indexed": false,
          "internalType": "address",
          "name": "account",
          "type": "address"
        }
      ],
      "name": "Unpaused",
      "type": "event"
    },
    {
      "anonymous": false,
      "inputs": [
        {
          "indexed": true,
          "internalType": "address",
          "name": "implementation",
          "type": "address"
        }
      ],
      "name": "Upgraded",
      "type": "event"
    },
    {
      "inputs": [
        {
          "internalType": "uint32",
          "name": "unstakeDelaySec",
          "type": "uint32"
        }
      ],
      "name": "addStake",
      "outputs": [],
      "stateMutability": "payable",
      "type": "function"
    },
    {
      "inputs": [],
      "name": "deposit",
      "outputs": [],
      "stateMutability": "payable",
      "type": "function"
    },
    {
      "inputs": [],
      "name": "entryPoint",
      "outputs": [
        {
          "internalType": "contract IEntryPoint",
          "name": "",
          "type": "address"
        }
      ],
      "stateMutability": "view",
      "type": "function"
    },
    {
      "inputs": [],
      "name": "getDeposit",
      "outputs": [
        {
          "internalType": "uint256",
          "name": "",
          "type": "uint256"
        }
      ],
      "stateMutability": "view",
      "type": "function"
    },
    {
      "inputs": [],
      "name": "getDepositInfo",
      "outputs": [
        {
          "components": [
            {
              "internalType": "uint112",
              "name": "deposit",
              "type": "uint112"
            },
            {
              "internalType": "bool",
              "name": "staked",
              "type": "bool"
            },
            {
              "internalType": "uint112",
              "name": "stake",
              "type": "uint112"
            },
            {
              "internalType": "uint32",
              "name": "unstakeDelaySec",
              "type": "uint32"
            },
            {
              "internalType": "uint48",
              "name": "withdrawTime",
              "type": "uint48"
            }
          ],
          "internalType": "struct IStakeManager.DepositInfo",
          "name": "info",
          "type": "tuple"
        }
      ],
      "stateMutability": "view",
      "type": "function"
    },
    {
      "inputs": [
        {
          "components": [
            {
              "internalType": "address",
              "name": "sender",
              "type": "address"
            },
            {
              "internalType": "uint256",
              "name": "nonce",
              "type": "uint256"
            },
            {
              "internalType": "bytes",
              "name": "initCode",
              "type": "bytes"
            },
            {
              "internalType": "bytes",
              "name": "callData",
              "type": "bytes"
            },
            {
              "internalType": "uint256",
              "name": "callGasLimit",
              "type": "uint256"
            },
            {
              "internalType": "uint256",
              "name": "verificationGasLimit",
              "type": "uint256"
            },
            {
              "internalType": "uint256",
              "name": "preVerificationGas",
              "type": "uint256"
            },
            {
              "internalType": "uint256",
              "name": "maxFeePerGas",
              "type": "uint256"
            },
            {
              "internalType": "uint256",
              "name": "maxPriorityFeePerGas",
              "type": "uint256"
            },
            {
              "internalType": "bytes",
              "name": "paymasterAndData",
              "type": "bytes"
            },
            {
              "internalType": "bytes",
              "name": "signature",
              "type": "bytes"
            }
          ],
          "internalType": "struct UserOperation",
          "name": "userOp",
          "type": "tuple"
        },
        {
          "internalType": "uint48",
          "name": "validUntil",
          "type": "uint48"
        },
        {
          "internalType": "uint48",
          "name": "validAfter",
          "type": "uint48"
        }
      ],
      "name": "getHash",
      "outputs": [
        {
          "internalType": "bytes32",
          "name": "",
          "type": "bytes32"
        }
      ],
      "stateMutability": "view",
      "type": "function"
    },
    {
      "inputs": [
        {
          "internalType": "address",
          "name": "_newOwner",
          "type": "address"
        },
        {
          "internalType": "address",
          "name": "_newVerifyingSigner",
          "type": "address"
        }
      ],
      "name": "initialize",
      "outputs": [],
      "stateMutability": "nonpayable",
      "type": "function"
    },
    {
      "inputs": [],
      "name": "owner",
      "outputs": [
        {
          "internalType": "address",
          "name": "",
          "type": "address"
        }
      ],
      "stateMutability": "view",
      "type": "function"
    },
    {
      "inputs": [
        {
          "internalType": "bytes",
          "name": "paymasterAndData",
          "type": "bytes"
        }
      ],
      "name": "parsePaymasterAndData",
      "outputs": [
        {
          "internalType": "uint48",
          "name": "validUntil",
          "type": "uint48"
        },
        {
          "internalType": "uint48",
          "name": "validAfter",
          "type": "uint48"
        },
        {
          "internalType": "bytes",
          "name": "signature",
          "type": "bytes"
        }
      ],
      "stateMutability": "pure",
      "type": "function"
    },
    {
      "inputs": [],
      "name": "pause",
      "outputs": [],
      "stateMutability": "nonpayable",
      "type": "function"
    },
    {
      "inputs": [],
      "name": "paused",
      "outputs": [
        {
          "internalType": "bool",
          "name": "",
          "type": "bool"
        }
      ],
      "stateMutability": "view",
      "type": "function"
    },
    {
      "inputs": [
        {
          "internalType": "enum IPaymaster.PostOpMode",
          "name": "mode",
          "type": "uint8"
        },
        {
          "internalType": "bytes",
          "name": "context",
          "type": "bytes"
        },
        {
          "internalType": "uint256",
          "name": "actualGasCost",
          "type": "uint256"
        }
      ],
      "name": "postOp",
      "outputs": [],
      "stateMutability": "nonpayable",
      "type": "function"
    },
    {
      "inputs": [],
      "name": "proxiableUUID",
      "outputs": [
        {
          "internalType": "bytes32",
          "name": "",
          "type": "bytes32"
        }
      ],
      "stateMutability": "view",
      "type": "function"
    },
    {
      "inputs": [],
      "name": "renounceOwnership",
      "outputs": [],
      "stateMutability": "nonpayable",
      "type": "function"
    },
    {
      "inputs": [
        {
          "internalType": "address",
          "name": "_newVerifyingSigner",
          "type": "address"
        }
      ],
      "name": "setVerifyingSigner",
      "outputs": [],
      "stateMutability": "nonpayable",
      "type": "function"
    },
    {
      "inputs": [
        {
          "internalType": "address",
          "name": "newOwner",
          "type": "address"
        }
      ],
      "name": "transferOwnership",
      "outputs": [],
      "stateMutability": "nonpayable",
      "type": "function"
    },
    {
      "inputs": [],
      "name": "unlockStake",
      "outputs": [],
      "stateMutability": "nonpayable",
      "type": "function"
    },
    {
      "inputs": [],
      "name": "unpause",
      "outputs": [],
      "stateMutability": "nonpayable",
      "type": "function"
    },
    {
      "inputs": [
        {
          "internalType": "address",
          "name": "newImplementation",
          "type": "address"
        }
      ],
      "name": "upgradeTo",
      "outputs": [],
      "stateMutability": "nonpayable",
      "type": "function"
    },
    {
      "inputs": [
        {
          "internalType": "address",
          "name": "newImplementation",
          "type": "address"
        },
        {
          "internalType": "bytes",
          "name": "data",
          "type": "bytes"
        }
      ],
      "name": "upgradeToAndCall",
      "outputs": [],
      "stateMutability": "payable",
      "type": "function"
    },
    {
      "inputs": [
        {
          "components": [
            {
              "internalType": "address",
              "name": "sender",
              "type": "address"
            },
            {
              "internalType": "uint256",
              "name": "nonce",
              "type": "uint256"
            },
            {
              "internalType": "bytes",
              "name": "initCode",
              "type": "bytes"
            },
            {
              "internalType": "bytes",
              "name": "callData",
              "type": "bytes"
            },
            {
              "internalType": "uint256",
              "name": "callGasLimit",
              "type": "uint256"
            },
            {
              "internalType": "uint256",
              "name": "verificationGasLimit",
              "type": "uint256"
            },
            {
              "internalType": "uint256",
              "name": "preVerificationGas",
              "type": "uint256"
            },
            {
              "internalType": "uint256",
              "name": "maxFeePerGas",
              "type": "uint256"
            },
            {
              "internalType": "uint256",
              "name": "maxPriorityFeePerGas",
              "type": "uint256"
            },
            {
              "internalType": "bytes",
              "name": "paymasterAndData",
              "type": "bytes"
            },
            {
              "internalType": "bytes",
              "name": "signature",
              "type": "bytes"
            }
          ],
          "internalType": "struct UserOperation",
          "name": "userOp",
          "type": "tuple"
        },
        {
          "internalType": "bytes32",
          "name": "userOpHash",
          "type": "bytes32"
        },
        {
          "internalType": "uint256",
          "name": "maxCost",
          "type": "uint256"
        }
      ],
      "name": "validatePaymasterUserOp",
      "outputs": [
        {
          "internalType": "bytes",
          "name": "context",
          "type": "bytes"
        },
        {
          "internalType": "uint256",
          "name": "validationData",
          "type": "uint256"
        }
      ],
      "stateMutability": "nonpayable",
      "type": "function"
    },
    {
      "inputs": [],
      "name": "verifyingSigner",
      "outputs": [
        {
          "internalType": "address",
          "name": "",
          "type": "address"
        }
      ],
      "stateMutability": "view",
      "type": "function"
    },
    {
      "inputs": [
        {
          "internalType": "address payable",
          "name": "withdrawAddress",
          "type": "address"
        }
      ],
      "name": "withdrawStake",
      "outputs": [],
      "stateMutability": "nonpayable",
      "type": "function"
    },
    {
      "inputs": [
        {
          "internalType": "address payable",
          "name": "withdrawAddress",
          "type": "address"
        },
        {
          "internalType": "uint256",
          "name": "amount",
          "type": "uint256"
        }
      ],
      "name": "withdrawTo",
      "outputs": [],
      "stateMutability": "nonpayable",
      "type": "function"
    }
  ],
  "args": [
    "0x5FF137D4b0FDCD49DcA30c7CF57E578a026d2789"
  ],
  "numDeployments": 1,
  "solcInputHash": "6223512c8807e0d5387e0f2a7e680ca1",
  "bytecode": "0x60c0604052306080523480156200001557600080fd5b5060405162002d6c38038062002d6c833981016040819052620000389162000123565b6001600160a01b03811660a052806200005062000062565b506200005b62000062565b5062000155565b600054610100900460ff1615620000cf5760405162461bcd60e51b815260206004820152602760248201527f496e697469616c697a61626c653a20636f6e747261637420697320696e697469604482015266616c697a696e6760c81b606482015260840160405180910390fd5b60005460ff9081161462000121576000805460ff191660ff9081179091556040519081527f7f26b83ff96e1f2b6a682f133852f6798a09c465da95921460cefb38474024989060200160405180910390a15b565b6000602082840312156200013657600080fd5b81516001600160a01b03811681146200014e57600080fd5b9392505050565b60805160a051612b9d620001cf600039600081816104160152818161053c0152818161060e01528181610dc201528181610edf01528181610fae0152818161103e015281816110f401526118cb0152600081816106690152818161071e01528181610a6301528181610b130152610c5c0152612b9d6000f3fe60806040526004361061018b5760003560e01c80638da5cb5b116100d6578063c23a5cea1161007f578063f2fde38b11610059578063f2fde38b1461048a578063f465c77e146104aa578063f5cba98c146104d857600080fd5b8063c23a5cea1461044d578063c399ec881461046d578063d0e30db01461048257600080fd5b8063a9a23409116100b0578063a9a23409146103e4578063b0d691fe14610404578063bb9fe6bf1461043857600080fd5b80638da5cb5b1461036957806394d4ad601461039457806394e1fc19146103c457600080fd5b80634f1ef28611610138578063715018a611610112578063715018a6146102cb5780638456cb59146102e05780638969e0f9146102f557600080fd5b80634f1ef2861461027257806352d1902d146102855780635c975abb146102a857600080fd5b80633659cfe6116101695780633659cfe61461021d5780633f4ba83a1461023d578063485cc9551461025257600080fd5b80630396cb6014610190578063205c2878146101a557806323d9ac9b146101c5575b600080fd5b6101a361019e366004612418565b6104f8565b005b3480156101b157600080fd5b506101a36101c0366004612457565b6105b2565b3480156101d157600080fd5b5061012d546101f39073ffffffffffffffffffffffffffffffffffffffff1681565b60405173ffffffffffffffffffffffffffffffffffffffff90911681526020015b60405180910390f35b34801561022957600080fd5b506101a3610238366004612483565b610652565b34801561024957600080fd5b506101a361085c565b34801561025e57600080fd5b506101a361026d3660046124a0565b610876565b6101a3610280366004612557565b610a4c565b34801561029157600080fd5b5061029a610c42565b604051908152602001610214565b3480156102b457600080fd5b5060c95460ff166040519015158152602001610214565b3480156102d757600080fd5b506101a3610d2e565b3480156102ec57600080fd5b506101a3610d40565b34801561030157600080fd5b5061030a610d58565b6040805182516dffffffffffffffffffffffffffff908116825260208085015115159083015283830151169181019190915260608083015163ffffffff169082015260809182015165ffffffffffff169181019190915260a001610214565b34801561037557600080fd5b5060975473ffffffffffffffffffffffffffffffffffffffff166101f3565b3480156103a057600080fd5b506103b46103af36600461265f565b610e32565b60405161021494939291906126a1565b3480156103d057600080fd5b5061029a6103df366004612738565b610e6f565b3480156103f057600080fd5b506101a36103ff36600461279c565b610eb7565b34801561041057600080fd5b506101f37f000000000000000000000000000000000000000000000000000000000000000081565b34801561044457600080fd5b506101a3610ecd565b34801561045957600080fd5b506101a3610468366004612483565b610f59565b34801561047957600080fd5b5061029a61100d565b6101a36110be565b34801561049657600080fd5b506101a36104a5366004612483565b61114e565b3480156104b657600080fd5b506104ca6104c53660046127fc565b611202565b6040516102149291906128b8565b3480156104e457600080fd5b506101a36104f3366004612483565b61122e565b610500611286565b610508611307565b6040517f0396cb6000000000000000000000000000000000000000000000000000000000815263ffffffff821660048201527f000000000000000000000000000000000000000000000000000000000000000073ffffffffffffffffffffffffffffffffffffffff1690630396cb609034906024016000604051808303818588803b15801561059657600080fd5b505af11580156105aa573d6000803e3d6000fd5b505050505050565b6105ba611286565b6105c2611307565b6040517f205c287800000000000000000000000000000000000000000000000000000000815273ffffffffffffffffffffffffffffffffffffffff8381166004830152602482018390527f0000000000000000000000000000000000000000000000000000000000000000169063205c287890604401600060405180830381600087803b15801561059657600080fd5b73ffffffffffffffffffffffffffffffffffffffff7f000000000000000000000000000000000000000000000000000000000000000016300361071c576040517f08c379a000000000000000000000000000000000000000000000000000000000815260206004820152602c60248201527f46756e6374696f6e206d7573742062652063616c6c6564207468726f7567682060448201527f64656c656761746563616c6c000000000000000000000000000000000000000060648201526084015b60405180910390fd5b7f000000000000000000000000000000000000000000000000000000000000000073ffffffffffffffffffffffffffffffffffffffff166107917f360894a13ba1a3210667c828492db98dca3e2076cc3735a920a3ca505d382bbc5473ffffffffffffffffffffffffffffffffffffffff1690565b73ffffffffffffffffffffffffffffffffffffffff1614610834576040517f08c379a000000000000000000000000000000000000000000000000000000000815260206004820152602c60248201527f46756e6374696f6e206d7573742062652063616c6c6564207468726f7567682060448201527f6163746976652070726f787900000000000000000000000000000000000000006064820152608401610713565b61083d81611374565b604080516000808252602082019092526108599183919061137c565b50565b610864611286565b61086c61157b565b6108746115e7565b565b600054610100900460ff16158080156108965750600054600160ff909116105b806108b05750303b1580156108b0575060005460ff166001145b61093c576040517f08c379a000000000000000000000000000000000000000000000000000000000815260206004820152602e60248201527f496e697469616c697a61626c653a20636f6e747261637420697320616c72656160448201527f647920696e697469616c697a65640000000000000000000000000000000000006064820152608401610713565b600080547fffffffffffffffffffffffffffffffffffffffffffffffffffffffffffffff00166001179055801561099a57600080547fffffffffffffffffffffffffffffffffffffffffffffffffffffffffffff00ff166101001790555b6109a383611664565b61012d80547fffffffffffffffffffffffff00000000000000000000000000000000000000001673ffffffffffffffffffffffffffffffffffffffff84161790558015610a4757600080547fffffffffffffffffffffffffffffffffffffffffffffffffffffffffffff00ff169055604051600181527f7f26b83ff96e1f2b6a682f133852f6798a09c465da95921460cefb38474024989060200160405180910390a15b505050565b73ffffffffffffffffffffffffffffffffffffffff7f0000000000000000000000000000000000000000000000000000000000000000163003610b11576040517f08c379a000000000000000000000000000000000000000000000000000000000815260206004820152602c60248201527f46756e6374696f6e206d7573742062652063616c6c6564207468726f7567682060448201527f64656c656761746563616c6c00000000000000000000000000000000000000006064820152608401610713565b7f000000000000000000000000000000000000000000000000000000000000000073ffffffffffffffffffffffffffffffffffffffff16610b867f360894a13ba1a3210667c828492db98dca3e2076cc3735a920a3ca505d382bbc5473ffffffffffffffffffffffffffffffffffffffff1690565b73ffffffffffffffffffffffffffffffffffffffff1614610c29576040517f08c379a000000000000000000000000000000000000000000000000000000000815260206004820152602c60248201527f46756e6374696f6e206d7573742062652063616c6c6564207468726f7567682060448201527f6163746976652070726f787900000000000000000000000000000000000000006064820152608401610713565b610c3282611374565b610c3e8282600161137c565b5050565b60003073ffffffffffffffffffffffffffffffffffffffff7f00000000000000000000000000000000000000000000000000000000000000001614610d09576040517f08c379a000000000000000000000000000000000000000000000000000000000815260206004820152603860248201527f555550535570677261646561626c653a206d757374206e6f742062652063616c60448201527f6c6564207468726f7567682064656c656761746563616c6c00000000000000006064820152608401610713565b507f360894a13ba1a3210667c828492db98dca3e2076cc3735a920a3ca505d382bbc90565b610d36611286565b610874600061171c565b610d48611286565b610d50611307565b610874611793565b6040805160a08101825260008082526020820181905281830181905260608201819052608082015290517f5287ce1200000000000000000000000000000000000000000000000000000000815230600482015273ffffffffffffffffffffffffffffffffffffffff7f00000000000000000000000000000000000000000000000000000000000000001690635287ce129060240160a060405180830381865afa158015610e09573d6000803e3d6000fd5b505050506040513d601f19601f82011682018060405250810190610e2d91906128fd565b905090565b6000803681610e45605460148789612996565b810190610e5291906129c0565b9094509250610e648560548189612996565b949793965094505050565b6000610e7a846117ee565b463086602001358686604051602001610e98969594939291906129ee565b6040516020818303038152906040528051906020012090509392505050565b610ebf611307565b610ec76118b3565b50505050565b610ed5611286565b610edd611307565b7f000000000000000000000000000000000000000000000000000000000000000073ffffffffffffffffffffffffffffffffffffffff1663bb9fe6bf6040518163ffffffff1660e01b8152600401600060405180830381600087803b158015610f4557600080fd5b505af1158015610ec7573d6000803e3d6000fd5b610f61611286565b610f69611307565b6040517fc23a5cea00000000000000000000000000000000000000000000000000000000815273ffffffffffffffffffffffffffffffffffffffff82811660048301527f0000000000000000000000000000000000000000000000000000000000000000169063c23a5cea90602401600060405180830381600087803b158015610ff257600080fd5b505af1158015611006573d6000803e3d6000fd5b5050505050565b6040517f70a082310000000000000000000000000000000000000000000000000000000081523060048201526000907f000000000000000000000000000000000000000000000000000000000000000073ffffffffffffffffffffffffffffffffffffffff16906370a0823190602401602060405180830381865afa15801561109a573d6000803e3d6000fd5b505050506040513d601f19601f82011682018060405250810190610e2d9190612a4b565b6110c6611307565b6040517fb760faf90000000000000000000000000000000000000000000000000000000081523060048201527f000000000000000000000000000000000000000000000000000000000000000073ffffffffffffffffffffffffffffffffffffffff169063b760faf99034906024016000604051808303818588803b158015610ff257600080fd5b611156611286565b73ffffffffffffffffffffffffffffffffffffffff81166111f9576040517f08c379a000000000000000000000000000000000000000000000000000000000815260206004820152602660248201527f4f776e61626c653a206e6577206f776e657220697320746865207a65726f206160448201527f64647265737300000000000000000000000000000000000000000000000000006064820152608401610713565b6108598161171c565b6060600061120e611307565b6112166118b3565b611221858585611952565b915091505b935093915050565b611236611286565b61123e611307565b61012d80547fffffffffffffffffffffffff00000000000000000000000000000000000000001673ffffffffffffffffffffffffffffffffffffffff92909216919091179055565b60975473ffffffffffffffffffffffffffffffffffffffff163314610874576040517f08c379a000000000000000000000000000000000000000000000000000000000815260206004820181905260248201527f4f776e61626c653a2063616c6c6572206973206e6f7420746865206f776e65726044820152606401610713565b60c95460ff1615610874576040517f08c379a000000000000000000000000000000000000000000000000000000000815260206004820152601060248201527f5061757361626c653a20706175736564000000000000000000000000000000006044820152606401610713565b610859611286565b7f4910fdfa16fed3260ed0e7147f7cc6da11a60208b5b9406d12a635614ffd91435460ff16156113af57610a4783611a6a565b8273ffffffffffffffffffffffffffffffffffffffff166352d1902d6040518163ffffffff1660e01b8152600401602060405180830381865afa925050508015611434575060408051601f3d9081017fffffffffffffffffffffffffffffffffffffffffffffffffffffffffffffffe016820190925261143191810190612a4b565b60015b6114c0576040517f08c379a000000000000000000000000000000000000000000000000000000000815260206004820152602e60248201527f45524331393637557067726164653a206e657720696d706c656d656e7461746960448201527f6f6e206973206e6f7420555550530000000000000000000000000000000000006064820152608401610713565b7f360894a13ba1a3210667c828492db98dca3e2076cc3735a920a3ca505d382bbc811461156f576040517f08c379a000000000000000000000000000000000000000000000000000000000815260206004820152602960248201527f45524331393637557067726164653a20756e737570706f727465642070726f7860448201527f6961626c655555494400000000000000000000000000000000000000000000006064820152608401610713565b50610a47838383611b74565b60c95460ff16610874576040517f08c379a000000000000000000000000000000000000000000000000000000000815260206004820152601460248201527f5061757361626c653a206e6f74207061757365640000000000000000000000006044820152606401610713565b6115ef61157b565b60c980547fffffffffffffffffffffffffffffffffffffffffffffffffffffffffffffff001690557f5db9ee0a495bf2e6ff9c91a7834c1ba4fdd244a5e8aa4e537bd38aeae4b073aa335b60405173ffffffffffffffffffffffffffffffffffffffff909116815260200160405180910390a1565b600054610100900460ff166116fb576040517f08c379a000000000000000000000000000000000000000000000000000000000815260206004820152602b60248201527f496e697469616c697a61626c653a20636f6e7472616374206973206e6f74206960448201527f6e697469616c697a696e670000000000000000000000000000000000000000006064820152608401610713565b611703611b99565b61170b611c30565b6117148161114e565b610859611ccf565b6097805473ffffffffffffffffffffffffffffffffffffffff8381167fffffffffffffffffffffffff0000000000000000000000000000000000000000831681179093556040519116919082907f8be0079c531659141344cd1fd0a4f28419497f9722a3daafe3b4186f6b6457e090600090a35050565b61179b611307565b60c980547fffffffffffffffffffffffffffffffffffffffffffffffffffffffffffffff001660011790557f62e78cea01bee320cd4e420270b5ea74000d11b0c9f74754ebdbfc544b05a25861163a3390565b606081356020830135600061180e6118096040870187612a64565b611d6e565b905060006118226118096060880188612a64565b6040805173ffffffffffffffffffffffffffffffffffffffff9690961660208701528581019490945260608501929092525060808084019190915284013560a08084019190915284013560c08084019190915284013560e080840191909152840135610100808401919091529093013561012080830191909152835180830390910181526101409091019092525090565b3373ffffffffffffffffffffffffffffffffffffffff7f00000000000000000000000000000000000000000000000000000000000000001614610874576040517f08c379a000000000000000000000000000000000000000000000000000000000815260206004820152601560248201527f53656e646572206e6f7420456e747279506f696e7400000000000000000000006044820152606401610713565b6060600080808061196a6103af6101208a018a612a64565b8080601f01602080910402602001604051908101604052809392919081815260200183838082843760009201829052509598509396509194506119ea92506119b791508b90508686610e6f565b7f19457468657265756d205369676e6564204d6573736167653a0a3332000000006000908152601c91909152603c902090565b61012d54909150611a129073ffffffffffffffffffffffffffffffffffffffff168284611d81565b611a4057611a2260018585611dfc565b60405180602001604052806000815250909550955050505050611226565b611a4c60008585611dfc565b6040805160208101909152600081529a909950975050505050505050565b73ffffffffffffffffffffffffffffffffffffffff81163b611b0e576040517f08c379a000000000000000000000000000000000000000000000000000000000815260206004820152602d60248201527f455243313936373a206e657720696d706c656d656e746174696f6e206973206e60448201527f6f74206120636f6e7472616374000000000000000000000000000000000000006064820152608401610713565b7f360894a13ba1a3210667c828492db98dca3e2076cc3735a920a3ca505d382bbc80547fffffffffffffffffffffffff00000000000000000000000000000000000000001673ffffffffffffffffffffffffffffffffffffffff92909216919091179055565b611b7d83611e34565b600082511180611b8a5750805b15610a4757610ec78383611e81565b600054610100900460ff16610874576040517f08c379a000000000000000000000000000000000000000000000000000000000815260206004820152602b60248201527f496e697469616c697a61626c653a20636f6e7472616374206973206e6f74206960448201527f6e697469616c697a696e670000000000000000000000000000000000000000006064820152608401610713565b600054610100900460ff16611cc7576040517f08c379a000000000000000000000000000000000000000000000000000000000815260206004820152602b60248201527f496e697469616c697a61626c653a20636f6e7472616374206973206e6f74206960448201527f6e697469616c697a696e670000000000000000000000000000000000000000006064820152608401610713565b610874611ead565b600054610100900460ff16611d66576040517f08c379a000000000000000000000000000000000000000000000000000000000815260206004820152602b60248201527f496e697469616c697a61626c653a20636f6e7472616374206973206e6f74206960448201527f6e697469616c697a696e670000000000000000000000000000000000000000006064820152608401610713565b610874611f4d565b6000604051828085833790209392505050565b6000806000611d90858561200e565b90925090506000816004811115611da957611da9612ac9565b148015611de157508573ffffffffffffffffffffffffffffffffffffffff168273ffffffffffffffffffffffffffffffffffffffff16145b80611df25750611df2868686612053565b9695505050505050565b600060d08265ffffffffffff16901b60a08465ffffffffffff16901b85611e24576000611e27565b60015b60ff161717949350505050565b611e3d81611a6a565b60405173ffffffffffffffffffffffffffffffffffffffff8216907fbc7cd75a20ee27fd9adebab32041f755214dbc6bffa90cc0225b39da2e5c2d3b90600090a250565b6060611ea68383604051806060016040528060278152602001612b41602791396121b0565b9392505050565b600054610100900460ff16611f44576040517f08c379a000000000000000000000000000000000000000000000000000000000815260206004820152602b60248201527f496e697469616c697a61626c653a20636f6e7472616374206973206e6f74206960448201527f6e697469616c697a696e670000000000000000000000000000000000000000006064820152608401610713565b6108743361171c565b600054610100900460ff16611fe4576040517f08c379a000000000000000000000000000000000000000000000000000000000815260206004820152602b60248201527f496e697469616c697a61626c653a20636f6e7472616374206973206e6f74206960448201527f6e697469616c697a696e670000000000000000000000000000000000000000006064820152608401610713565b60c980547fffffffffffffffffffffffffffffffffffffffffffffffffffffffffffffff00169055565b60008082516041036120445760208301516040840151606085015160001a6120388782858561222b565b9450945050505061204c565b506000905060025b9250929050565b60008060008573ffffffffffffffffffffffffffffffffffffffff16631626ba7e60e01b868660405160240161208a929190612af8565b604080517fffffffffffffffffffffffffffffffffffffffffffffffffffffffffffffffe08184030181529181526020820180517bffffffffffffffffffffffffffffffffffffffffffffffffffffffff167fffffffff000000000000000000000000000000000000000000000000000000009094169390931790925290516121139190612b11565b600060405180830381855afa9150503d806000811461214e576040519150601f19603f3d011682016040523d82523d6000602084013e612153565b606091505b509150915081801561216757506020815110155b8015611df2575080517f1626ba7e00000000000000000000000000000000000000000000000000000000906121a59083016020908101908401612a4b565b149695505050505050565b60606000808573ffffffffffffffffffffffffffffffffffffffff16856040516121da9190612b11565b600060405180830381855af49150503d8060008114612215576040519150601f19603f3d011682016040523d82523d6000602084013e61221a565b606091505b5091509150611df28683838761231a565b6000807f7fffffffffffffffffffffffffffffff5d576e7357a4501ddfe92f46681b20a08311156122625750600090506003612311565b6040805160008082526020820180845289905260ff881692820192909252606081018690526080810185905260019060a0016020604051602081039080840390855afa1580156122b6573d6000803e3d6000fd5b50506040517fffffffffffffffffffffffffffffffffffffffffffffffffffffffffffffffe0015191505073ffffffffffffffffffffffffffffffffffffffff811661230a57600060019250925050612311565b9150600090505b94509492505050565b606083156123b05782516000036123a95773ffffffffffffffffffffffffffffffffffffffff85163b6123a9576040517f08c379a000000000000000000000000000000000000000000000000000000000815260206004820152601d60248201527f416464726573733a2063616c6c20746f206e6f6e2d636f6e74726163740000006044820152606401610713565b50816123ba565b6123ba83836123c2565b949350505050565b8151156123d25781518083602001fd5b806040517f08c379a00000000000000000000000000000000000000000000000000000000081526004016107139190612b2d565b63ffffffff8116811461085957600080fd5b60006020828403121561242a57600080fd5b8135611ea681612406565b73ffffffffffffffffffffffffffffffffffffffff8116811461085957600080fd5b6000806040838503121561246a57600080fd5b823561247581612435565b946020939093013593505050565b60006020828403121561249557600080fd5b8135611ea681612435565b600080604083850312156124b357600080fd5b82356124be81612435565b915060208301356124ce81612435565b809150509250929050565b7f4e487b7100000000000000000000000000000000000000000000000000000000600052604160045260246000fd5b604051601f82017fffffffffffffffffffffffffffffffffffffffffffffffffffffffffffffffe016810167ffffffffffffffff8111828210171561254f5761254f6124d9565b604052919050565b6000806040838503121561256a57600080fd5b823561257581612435565b915060208381013567ffffffffffffffff8082111561259357600080fd5b818601915086601f8301126125a757600080fd5b8135818111156125b9576125b96124d9565b6125e9847fffffffffffffffffffffffffffffffffffffffffffffffffffffffffffffffe0601f84011601612508565b915080825287848285010111156125ff57600080fd5b80848401858401376000848284010152508093505050509250929050565b60008083601f84011261262f57600080fd5b50813567ffffffffffffffff81111561264757600080fd5b60208301915083602082850101111561204c57600080fd5b6000806020838503121561267257600080fd5b823567ffffffffffffffff81111561268957600080fd5b6126958582860161261d565b90969095509350505050565b600065ffffffffffff8087168352808616602084015250606060408301528260608301528284608084013760006080848401015260807fffffffffffffffffffffffffffffffffffffffffffffffffffffffffffffffe0601f850116830101905095945050505050565b6000610160828403121561271e57600080fd5b50919050565b65ffffffffffff8116811461085957600080fd5b60008060006060848603121561274d57600080fd5b833567ffffffffffffffff81111561276457600080fd5b6127708682870161270b565b935050602084013561278181612724565b9150604084013561279181612724565b809150509250925092565b600080600080606085870312156127b257600080fd5b8435600381106127c157600080fd5b9350602085013567ffffffffffffffff8111156127dd57600080fd5b6127e98782880161261d565b9598909750949560400135949350505050565b60008060006060848603121561281157600080fd5b833567ffffffffffffffff81111561282857600080fd5b6128348682870161270b565b9660208601359650604090950135949350505050565b60005b8381101561286557818101518382015260200161284d565b50506000910152565b6000815180845261288681602086016020860161284a565b601f017fffffffffffffffffffffffffffffffffffffffffffffffffffffffffffffffe0169290920160200192915050565b6040815260006128cb604083018561286e565b90508260208301529392505050565b80516dffffffffffffffffffffffffffff811681146128f857600080fd5b919050565b600060a0828403121561290f57600080fd5b60405160a0810181811067ffffffffffffffff82111715612932576129326124d9565b60405261293e836128da565b81526020830151801515811461295357600080fd5b6020820152612964604084016128da565b6040820152606083015161297781612406565b6060820152608083015161298a81612724565b60808201529392505050565b600080858511156129a657600080fd5b838611156129b357600080fd5b5050820193919092039150565b600080604083850312156129d357600080fd5b82356129de81612724565b915060208301356124ce81612724565b60c081526000612a0160c083018961286e565b60208301979097525073ffffffffffffffffffffffffffffffffffffffff949094166040850152606084019290925265ffffffffffff90811660808401521660a090910152919050565b600060208284031215612a5d57600080fd5b5051919050565b60008083357fffffffffffffffffffffffffffffffffffffffffffffffffffffffffffffffe1843603018112612a9957600080fd5b83018035915067ffffffffffffffff821115612ab457600080fd5b60200191503681900382131561204c57600080fd5b7f4e487b7100000000000000000000000000000000000000000000000000000000600052602160045260246000fd5b8281526040602082015260006123ba604083018461286e565b60008251612b2381846020870161284a565b9190910192915050565b602081526000611ea6602083018461286e56fe416464726573733a206c6f772d6c6576656c2064656c65676174652063616c6c206661696c6564a26469706673582212204e783d61c31814b8b81a0d99e1352892252e3c7d987062988650ffdc307fa71c64736f6c63430008110033",
  "devdoc": {
    "kind": "dev",
    "methods": {
      "addStake(uint32)": {
        "params": {
          "unstakeDelaySec": "- the unstake delay for this paymaster. Can only be increased."
        }
      },
      "constructor": {
        "custom:oz-upgrades-unsafe-allow": "constructor"
      },
      "owner()": {
        "details": "Returns the address of the current owner."
      },
      "paused()": {
        "details": "Returns true if the contract is paused, and false otherwise."
      },
      "postOp(uint8,bytes,uint256)": {
        "params": {
          "actualGasCost": "- actual gas used so far (without this postOp call).",
          "context": "- the context value returned by validatePaymasterUserOp",
          "mode": "enum with the following options:      opSucceeded - user operation succeeded.      opReverted  - user op reverted. still has to pay for gas.      postOpReverted - user op succeeded, but caused postOp (in mode=opSucceeded) to revert.                       Now this is the 2nd call, after user's op was deliberately reverted."
        }
      },
      "proxiableUUID()": {
        "details": "Implementation of the ERC1822 {proxiableUUID} function. This returns the storage slot used by the implementation. It is used to validate the implementation's compatibility when performing an upgrade. IMPORTANT: A proxy pointing at a proxiable contract should not be considered proxiable itself, because this risks bricking a proxy that upgrades to it, by delegating to itself until out of gas. Thus it is critical that this function revert if invoked through a proxy. This is guaranteed by the `notDelegated` modifier."
      },
      "renounceOwnership()": {
        "details": "Leaves the contract without owner. It will not be possible to call `onlyOwner` functions. Can only be called by the current owner. NOTE: Renouncing ownership will leave the contract without an owner, thereby disabling any functionality that is only available to the owner."
      },
      "transferOwnership(address)": {
        "details": "Transfers ownership of the contract to a new account (`newOwner`). Can only be called by the current owner."
      },
      "upgradeTo(address)": {
        "custom:oz-upgrades-unsafe-allow-reachable": "delegatecall",
        "details": "Upgrade the implementation of the proxy to `newImplementation`. Calls {_authorizeUpgrade}. Emits an {Upgraded} event."
      },
      "upgradeToAndCall(address,bytes)": {
        "custom:oz-upgrades-unsafe-allow-reachable": "delegatecall",
        "details": "Upgrade the implementation of the proxy to `newImplementation`, and subsequently execute the function call encoded in `data`. Calls {_authorizeUpgrade}. Emits an {Upgraded} event."
      },
      "validatePaymasterUserOp((address,uint256,bytes,bytes,uint256,uint256,uint256,uint256,uint256,bytes,bytes),bytes32,uint256)": {
        "params": {
          "maxCost": "the maximum cost of this transaction (based on maximum gas and gas price from userOp)",
          "userOp": "the user operation",
          "userOpHash": "hash of the user's request data."
        },
        "returns": {
          "context": "value to send to a postOp      zero length to signify postOp is not required.",
          "validationData": "signature and time-range of this operation, encoded the same as the return value of validateUserOperation      <20-byte> sigAuthorizer - 0 for valid signature, 1 to mark signature failure,         otherwise, an address of an \"authorizer\" contract.      <6-byte> validUntil - last timestamp this operation is valid. 0 for \"indefinite\"      <6-byte> validAfter - first timestamp this operation is valid      Note that the validation code cannot use block.timestamp (or block.number) directly."
        }
      },
      "withdrawStake(address)": {
        "params": {
          "withdrawAddress": "the address to send withdrawn value."
        }
      }
    },
    "version": 1
  },
  "userdoc": {
    "kind": "user",
    "methods": {
      "addStake(uint32)": {
        "notice": "add stake for this paymaster. This method can also carry eth value to add to the current stake."
      },
      "deposit()": {
        "notice": "add a deposit for this paymaster, used for paying for transaction fees"
      },
      "getDeposit()": {
        "notice": "return current paymaster's deposit on the entryPoint."
      },
      "getDepositInfo()": {
        "notice": "return current paymaster's full deposit&stake information on the entryPoint."
      },
      "getHash((address,uint256,bytes,bytes,uint256,uint256,uint256,uint256,uint256,bytes,bytes),uint48,uint48)": {
        "notice": "return the hash we're going to sign off-chain (and validate on-chain) this method is called by the off-chain service, to sign the request. it is called on-chain from the validatePaymasterUserOp, to validate the signature. note that this signature covers all fields of the UserOperation, except the \"paymasterAndData\", which will carry the signature itself. struct UserOperation {   address sender;   uint256 nonce;   bytes initCode;   bytes callData;   uint256 callGasLimit;   uint256 verificationGasLimit;   uint256 preVerificationGas;   uint256 maxFeePerGas;   uint256 maxPriorityFeePerGas;   bytes paymasterAndData;   bytes signature; }"
      },
      "parsePaymasterAndData(bytes)": {
        "notice": "paymasterAndData[:20] : address(this) paymasterAndData[20:84] : abi.encode(validUntil, validAfter) paymasterAndData[84:] : signature"
      },
      "postOp(uint8,bytes,uint256)": {
        "notice": "post-operation handler. Must verify sender is the entryPoint"
      },
      "unlockStake()": {
        "notice": "unlock the stake, in order to withdraw it. The paymaster can't serve requests once unlocked, until it calls addStake again"
      },
      "validatePaymasterUserOp((address,uint256,bytes,bytes,uint256,uint256,uint256,uint256,uint256,bytes,bytes),bytes32,uint256)": {
        "notice": "payment validation: check if paymaster agrees to pay. Must verify sender is the entryPoint. Revert to reject this request. Note that bundlers will reject this method if it changes the state, unless the paymaster is trusted (whitelisted) The paymaster pre-pays using its deposit, and receive back a refund after the postOp method returns."
      },
      "withdrawStake(address)": {
        "notice": "withdraw the entire paymaster's stake. stake must be unlocked first (and then wait for the unstakeDelay to be over)"
      }
    },
    "notice": "For sponsor mode, a signature is required from Circle. The purpose of signature is mostly used to allow Circle to offer the gasless experience (free for end user) or other services. In this mode, the paymaster uses external service to decide whether to pay for the UserOp. The calling user must pass the UserOp to that external signer first, which performs whatever off-chain verification before signing the UserOp. The off-chain service could enable the user to pay for the gas cost with a credit card, subscription, or free, etc. The paymaster verifies the external signer has signed the request in method _validatePaymasterUserOp(). getHash() returns a hash we're going to sign off-chain and validate on-chain. Note that this signature is NOT a replacement for the account-specific signature: - the paymaster checks a signature to agree to pay for gas. - the account checks a signature prove identity and account ownership. Since this contract is upgrable, we do not allow use either selfdestruct or delegatecall to prevent a malicious actor from attacking the logic contract.",
    "version": 1
  },
  "storageLayout": {
    "storage": [
      {
        "astId": 1494,
        "contract": "src/paymaster/v1/permissioned/SponsorPaymaster.sol:SponsorPaymaster",
        "label": "_initialized",
        "offset": 0,
        "slot": "0",
        "type": "t_uint8"
      },
      {
        "astId": 1497,
        "contract": "src/paymaster/v1/permissioned/SponsorPaymaster.sol:SponsorPaymaster",
        "label": "_initializing",
        "offset": 1,
        "slot": "0",
        "type": "t_bool"
      },
      {
        "astId": 1476,
        "contract": "src/paymaster/v1/permissioned/SponsorPaymaster.sol:SponsorPaymaster",
        "label": "__gap",
        "offset": 0,
        "slot": "1",
        "type": "t_array(t_uint256)50_storage"
      },
      {
        "astId": 1791,
        "contract": "src/paymaster/v1/permissioned/SponsorPaymaster.sol:SponsorPaymaster",
        "label": "__gap",
        "offset": 0,
        "slot": "51",
        "type": "t_array(t_uint256)50_storage"
      },
      {
        "astId": 2290,
        "contract": "src/paymaster/v1/permissioned/SponsorPaymaster.sol:SponsorPaymaster",
        "label": "__gap",
        "offset": 0,
        "slot": "101",
        "type": "t_array(t_uint256)50_storage"
      },
      {
        "astId": 1001,
        "contract": "src/paymaster/v1/permissioned/SponsorPaymaster.sol:SponsorPaymaster",
        "label": "_owner",
        "offset": 0,
        "slot": "151",
        "type": "t_address"
      },
      {
        "astId": 1121,
        "contract": "src/paymaster/v1/permissioned/SponsorPaymaster.sol:SponsorPaymaster",
        "label": "__gap",
        "offset": 0,
        "slot": "152",
        "type": "t_array(t_uint256)49_storage"
      },
      {
        "astId": 1813,
        "contract": "src/paymaster/v1/permissioned/SponsorPaymaster.sol:SponsorPaymaster",
        "label": "_paused",
        "offset": 0,
        "slot": "201",
        "type": "t_bool"
      },
      {
        "astId": 1918,
        "contract": "src/paymaster/v1/permissioned/SponsorPaymaster.sol:SponsorPaymaster",
        "label": "__gap",
        "offset": 0,
        "slot": "202",
        "type": "t_array(t_uint256)49_storage"
      },
      {
        "astId": 5938,
        "contract": "src/paymaster/v1/permissioned/SponsorPaymaster.sol:SponsorPaymaster",
        "label": "__gap",
        "offset": 0,
        "slot": "251",
        "type": "t_array(t_uint256)50_storage"
      },
      {
        "astId": 6243,
        "contract": "src/paymaster/v1/permissioned/SponsorPaymaster.sol:SponsorPaymaster",
        "label": "verifyingSigner",
        "offset": 0,
        "slot": "301",
        "type": "t_address"
      }
    ],
    "types": {
      "t_address": {
        "encoding": "inplace",
        "label": "address",
        "numberOfBytes": "20"
      },
      "t_array(t_uint256)49_storage": {
        "base": "t_uint256",
        "encoding": "inplace",
        "label": "uint256[49]",
        "numberOfBytes": "1568"
      },
      "t_array(t_uint256)50_storage": {
        "base": "t_uint256",
        "encoding": "inplace",
        "label": "uint256[50]",
        "numberOfBytes": "1600"
      },
      "t_bool": {
        "encoding": "inplace",
        "label": "bool",
        "numberOfBytes": "1"
      },
      "t_uint256": {
        "encoding": "inplace",
        "label": "uint256",
        "numberOfBytes": "32"
      },
      "t_uint8": {
        "encoding": "inplace",
        "label": "uint8",
        "numberOfBytes": "1"
      }
    }
  }
}